:020000040800F2
:1000000030080020C1010008AB250008332000089B
:10001000A925000869080008972D000800000000C5
:10002000000000000000000000000000352700086C
:100030006B080008000000009F2600083727000812
:10004000DB010008DB010008DB010008DB01000820
:10005000DB010008DB010008DB010008DB01000810
:10006000DB010008DB010008DB010008DB01000800
:10007000DB010008DB010008DB010008DB010008F0
:10008000DB010008DB010008DB010008DB010008E0
:10009000DB010008DB010008DB010008DB010008D0
:1000A000DB010008DB010008DB010008DB010008C0
:1000B000DB010008DB010008DB010008DB010008B0
:1000C000DB010008DB010008DB010008DB010008A0
:1000D000DB010008DB010008DB010008DB01000890
:1000E000DB010008DB010008DB010008DB01000880
:1000F000DB010008DB010008DB010008DB01000870
:10010000DB010008DB010008F9270008DB0100081B
:10011000DB010008D92A0008DB010008DB01000828
:10012000DB010008DB010008DB010008DB0100083F
:10013000DB010008DB010008DB010008DB0100082F
:10014000DB010008DB010008DB010008DB0100081F
:10015000DB010008DB010008DB010008DB0100080F
:10016000DB010008DB010008DB010008DB010008FF
:10017000DB010008DB010008DB01000800000000D3
:10018000DB010008DB010008DB010008DB010008DF
:10019000DB010008DB010008DB010008DB010008CF
:1001A000DB010008DB010008DB010008DFF80CD0F0
:1001B00000F048FB00480047C9360008300800201E
:1001C0000648804706480047FEE7FEE7FEE7FEE7F1
:1001D000FEE7FEE7FEE7FEE7FEE7FEE7DD270008B5
:1001E000AD0100082DE9F05F0546002092469B46D0
:1001F00088460646814640241BE02846414647463D
:10020000224600F050FA53465A46C01A914110D384
:1002100011461846224600F037FA2D1A67EB0108FE
:100220004F4622460120002100F02EFA17EB00096C
:100230004E41201EA4F10104DFDC484631462A4627
:100240004346BDE8F09FD2B201E000F8012B491E01
:10025000FBD270470022F6E710B513460A46044663
:100260001946FFF7F0FF204610BD2DE9FE4F8046EE
:1002700081EA0300C00F0C46009021F0004123F0FA
:100280000045B8EB0200A94105D240462146904600
:100290001C460B46024623F00040104347D0270D72
:1002A000C7F30A00C3F30A510290401A0190402894
:1002B0006BDAC3F3130040F4801B0098924620B120
:1002C0000023D2EB030A63EB0B0B01985946C0F1F4
:1002D0004002504600F0D8F906460D4650465946B1
:1002E000019A00F0F0F910EB08006141002487EA60
:1002F000115284EAE7731A4340D0009A62B3019A1C
:10030000012A4FEA075215DC001B61EB02014FF096
:10031000004202EA0752CDE90042001C41F580117B
:1003200032462B4600F027FA03B0BDE8F08F404676
:100330002146F9E7001B61EB0201001C41F5801327
:1003400000185B412018A2F5001747EB030140EAB3
:10035000D570B6196D4111E06D084FEA360645EAD1
:10036000C0754FEA0752001B61EB0201001C41F50A
:10037000801149084FEA30000019514132462B469E
:1003800003B0BDE8F04F00F0E7B90098012240004B
:100390000023D0EB020263EBE073009821464FEAA2
:1003A000E074B8EB000061EB0401E9E783F000437F
:1003B0005BE781F0004158E72DE9FE4F81EA030435
:1003C00004F0004421F0004100944FF0000B23F0B2
:1003D000004350EA01045ED052EA03045BD0C3F349
:1003E0000A54C1F30A552C44A4F2F3340194A0FB3F
:1003F0000254C1F3130141F48011C3F3130343F416
:10040000801301FB024400FB034E840A970A44EA6E
:10041000815447EA8357A4FB076802958D0A05FBC0
:1004200007854FEA932C04FB0C542705029D4FEAE5
:10043000065847EA1637B5EB08056EEB070C870E32
:10044000920E47EA811742EA8312A7FB0201B6EB3C
:100450000B0164EB00042B0D43EA0C335E1844EBF4
:100460001C50DA465146E7FB0201C5F313044FEA7C
:100470000B3343EA14534FEA0432019C43EA060368
:10048000A4F10C040294009CCDE900B400F073F9CF
:1004900003B0BDE8F08F00200146F9E72DE9F04DEB
:1004A00081EA030404F0004B21F0004514464FF0AC
:1004B000000A23F0004150EA050220D054EA01026C
:1004C0001DD0C5F30A570246C5F31303C1F3130049
:1004D000C1F30A5640F4801543F48013A7EB0608D5
:1004E000101BD64608F2FD3873EB050002D308F165
:1004F000010801E092185B41B8F1000F03DA002017
:100500000146BDE8F08D00204FF480110646844678
:100510000EE0171B73EB050705D3121B63EB0503F6
:1005200006434CEA010C49084FEA300092185B413F
:1005300050EA0107EDD152EA030012D082EA04002A
:1005400083EA0501084305D0101BAB4106D2012206
:10055000002306E000224FF0004302E06FF00102AA
:1005600053101AEB06004CEB085110EB0A0041EB5C
:100570000B01BDE8F04D00F0EFB80EB5C10F80EAF9
:10058000E0700844CA07002140F233438DE80E00B2
:100590000A460B4600F0EFF803B000BD00F0004241
:1005A00030F000400AD0C10D01F56071C0F31600B3
:1005B00042EA0151C208400711437047002001463A
:1005C0007047000030B5041E71F1000404DB4FF0E9
:1005D0000044404264EB0101141E73F1000405DB8A
:1005E0001C464FF00043524263EB04038B4208BFAA
:1005F000824230BD30B5041E71F1000404DB4FF0BF
:100600000044404264EB0101141E73F1000405DB59
:100610001C464FF00043524263EB0403994208BF6B
:10062000904230BD01F0004330B421F0004150EA67
:10063000010206D00A0DA2F56072C1F31301002A6F
:1006400002DC30BC00207047440F44EAC104C10002
:10065000E01830BC00EBC25000F047B830B50B4694
:10066000014600202022012409E021FA02F59D42E2
:1006700005D303FA02F5491B04FA02F52844151EB6
:10068000A2F10102F1DC30BD202A04DB203A00FA9D
:1006900002F1002070479140C2F1200320FA03F3D9
:1006A000194390407047202A04DB203A21FA02F0D7
:1006B0000021704721FA02F3D040C2F1200291409C
:1006C000084319467047202A06DBCB17203A41FA27
:1006D00002F043EAE07306E041FA02F3D040C2F1CF
:1006E000200291400843194670470029A8BF70476F
:1006F000401C490008BF20F00100704710B4B0FA58
:1007000080FC00FA0CF050EA010404BF10BC7047F2
:1007100049B1CCF1200421FA04F411FA0CF118BF0C
:10072000012121430843A3EB0C01CB1D4FEA0061DB
:100730004FEA102042BF002010BC704700EBC350AE
:1007400010440029A4BF10BC7047401C490008BFDA
:1007500020F0010010BC704710B5141E73F10004A6
:1007600008DA401C41F1000192185B411A4301D1A3
:1007700020F0010010BD2DE9F04D92469B4611B1CD
:10078000B1FA81F202E0B0FA80F220329046FFF72F
:100790007BFF04460F4640EA0A0041EA0B0153463C
:1007A0005A46084313D0114653EA010019D0C8F144
:1007B00040025046FFF777FF05460E465046594621
:1007C0004246FFF761FF084305D0012004E02046C0
:1007D0003946BDE8F08D0020054346EAE0762C431B
:1007E00037430A986305E40AA0EB08000022FD0ADB
:1007F00044EA47540A3002D500200146E9E70105E2
:1008000010196941DDE9084500196941BDE8F04D5D
:10081000A2E7C1F30A52C1F3130140F2FF3341F4DE
:1008200080119A4202DA00200146704740F23343B9
:100830009A42A2F2334202DC5242FFF734BFFFF782
:1008400023BF0000064C074D06E0E06840F00103BE
:1008500094E8070098471034AC42F6D3FFF7AAFC9F
:10086000243B0008443B0008FEE7704772B6FEE7F1
:1008700090F83510022903D080214165012070478E
:10088000052180F835100068016821F00101016040
:10089000002070472DE9F84F00224FF00108032592
:1008A0004FF00F0E0B6808FA02F42340A3426ED1FA
:1008B0004E68012E05D0022E03D0112E01D0122E2B
:1008C00012D186684FEA420C05FA0CF7BE43CF6896
:1008D00007FA0CF7374387604668A6430C79C4F3E0
:1008E0000014944034434460C668570005FA07FC7E
:1008F0008C6826EA0C06BC403443C4604C68022C69
:1009000001D0122C13D1D40800EB8404A346D4F8F0
:10091000209054074FEAD46A0EFA0AF629EA06092B
:100920000E6906FA0AF646EA0906CBF82060046862
:100930000E7924EA0C0406F00306BE402643066046
:100940004C68E4006FD53B4C266846F48046266030
:10095000246822F0030604F480440094364C3444A6
:10096000A446D4F808489607360F0EFA06F7BC439B
:10097000324FB84201D100272EE0314FB84201D1A9
:10098000012729E02F4FB84202D1022724E04AE094
:100990002D4FB84201D103271EE02C4FB84201D1A0
:1009A000042719E02A4FB84201D1052714E0294F46
:1009B000B84201D106270FE0274FB84201D10727DF
:1009C0000AE0264FB84201D1082705E0244FB8427B
:1009D00001D1092700E00A27B7402743CCF808785F
:1009E000204E34684F689C43FF0300D51C4334609D
:1009F0001C4E361D34684F689C43BF0300D51C4312
:100A00003460184E083634684F689C43FF0200D5A6
:100A10001C433460134E0C3634684F689C43BF024D
:100A200000D51C433460521C102AFFF43BAFBDE8D4
:100A3000F88F0000443802400030014000000240BE
:100A40000004024000080240000C02400010024076
:100A50000014024000180240001C02400020024026
:100A600000240240003C01400AB181617047090442
:100A7000FBE7000001488068704700002C00002060
:100A80000248816802781144816070472C00002080
:100A90000B4810B5016841F400710160016841F430
:100AA00080610160016841F480710160032000F001
:100AB0006FF8002000F006F800F024F8002010BDC8
:100AC000003C024070B50D4D04464FF47A71287811
:100AD000B1FBF0F00A490968B1FBF0F000F03CFB13
:100AE00048B9102C07D200222146501E00F030F8E1
:100AF00000206C6070BD012070BD00002C00002043
:100B0000380000200A4808B5016841F480410160BE
:100B1000006800F4804000900548001F016841F023
:100B200080510160006800F08050009008BD000016
:100B300044380240002809DB00F01F0201219140E7
:100B40004009800000F1E020C0F80011704700006B
:100B5000F0B40E4B1B680C46C3F30223C3F1070528
:100B6000042D00D90425191D072901D2002300E016
:100B7000DB1E012606FA05F1491E214099409E40E0
:100B8000761E16403143F0BC02F016B90CED00E0C1
:100B9000064900F0070208684FF6FF03184040EAD4
:100BA0000220034A10430860704700000CED00E08B
:100BB0000000FA052DE9F8431748016841F080511B
:100BC00001600068154F00F08050012600903E64DF
:100BD000FFF750FF05464FF47A78114C05E000BF4F
:100BE000FFF748FF401B40450DD86068C003F7D5AC
:100BF0007E64FFF73FFF0546464607E0FFF73AFFF2
:100C0000401BB04202D90320BDE8F883606880032E
:100C1000F4D50020F8E700004038024000000E4202
:100C2000007000402DE9F0470E46050065D0DFF862
:100C30001481D8F80000F7B200F00F00B04207D2DC
:100C400088F80070D8F8000000F00F00B04254D1CE
:100C500028683D4C810712D5400703D5206840F431
:100C6000E05020602878000703D5206840F46040F9
:100C700020602068A96820F0F000084320602878F0
:100C8000C0072DD0304968680839012812D00228E1
:100C900013D0032811D00968890700292DDA2168AB
:100CA00021F0030101432160FFF7E4FE814641F298
:100CB000883A0EE009688903EFE709688901ECE7E3
:100CC000FFF7D8FEA0EB0901514502D90320BDE88A
:100CD000F0872068696800F00C00B0EB810FEFD15D
:100CE000D8F80010404601F00F01B14207D9077053
:100CF000006800F00F00B04201D00120E7E728783B
:100D0000400705D52068E96820F4E05008432060DA
:100D10002878000706D52068296920F4604040EA59
:100D2000C100206000F038F82168084AC1F30311BF
:100D3000515CC8400649086006480068FFF7C2FEDB
:100D40000020C4E7003C0240083802400C3B000889
:100D50003800002030000020044805490068096878
:100D6000044AC1F38221515CC8407047380000201A
:100D7000083802401C3B000804480549006809681F
:100D8000044AC1F34231515CC8407047380000202A
:100D9000083802401C3B0008154810B5006810F0E8
:100DA0000C02144813D01449042A0FD0082A0ED17B
:100DB0000F4C241F2268236802F03F025B0207D514
:100DC0002068C0F38810A0FB010106E0084610BDB2
:100DD0002168C1F38811A1FB00010023FFF702FA8B
:100DE0002168C1F30141491C4900B0FBF1F010BD7D
:100DF000083802400024F40040787D012DE9F84FC6
:100E000004006ED02078DFF83C93C007A9F10405F8
:100E10004AD009F104000168C1F38101012908D019
:100E20000068C0F3810002280AD1D9F8000040020E
:100E300006D52868800337D560680028E1D033E004
:100E40006068B0F5803F10D0B0F5A02F286810D0B2
:100E500020F480302860286820F4802028606068B2
:100E6000A8B1FFF707FE06460DE0286840F4803081
:100E7000F4E740F480202860F7E700BFFFF7FAFDB1
:100E8000801B642873D828688003F7D50CE0FFF72F
:100E9000F1FD064605E000BFFFF7ECFD801B64286E
:100EA000F0D828688003F7D42078DFF89C82800788
:100EB0004FF0000A3ED5A348001D016811F00C0F49
:100EC00008D00068C0F3810002280BD1D9F80000D7
:100ED000400207D42868800716D5E068012800D1B1
:100EE00012E02BE1E068B8B10120C8F80000FFF77C
:100EF000C1FD064605E000BFFFF7BCFD801B0228D0
:100F0000C0D828688007F7D52868216920F0F80044
:100F100040EAC10028600DE0C8F800A0FFF7AAFD74
:100F2000064604E0FFF7A6FD801B02281FD82868AC
:100F30008007F7D42078000722D5824E8348616964
:100F4000703671B101210160FFF794FD074604E09E
:100F5000FFF790FDC01B022809D830688007F7D53D
:100F60000EE0C0F800A0FFF785FD074605E082E02F
:100F7000FFF780FDC01B02287DD830688007F7D4BA
:100F80002078400768D5DFF8BCB100270BF13C0B97
:100F9000DBF80000C0000BD4DBF8001041F08051FA
:100FA000CBF80010DBF80000012700F08050009023
:100FB000674E3068C00510D4306840F480703060EF
:100FC000FFF758FD009005E0FFF754FD0099401A27
:100FD000022850D83068C005F6D55A4EA0686C3645
:100FE00001280FD00528306810D020F001003060B3
:100FF000306820F004003060A068B8B1FFF73AFD17
:1010000000900FE0306840F00100F4E740F0040089
:101010003060F7E7FFF72EFD0099411A41F2883062
:10102000814266D830688007F4D50EE0FFF722FDD4
:10103000009007E0FFF71EFD0099411A41F2883049
:10104000814256D830688007F4D42FB1DBF8001005
:1010500021F08051CBF80010A069C8B33949091DAF
:101060000968C1F3810102294AD00228504607D0FD
:10107000C8F8600000E03CE0FFF7FCFC04463BE001
:101080004746C8F86000FFF7F5FC064605E000BFDC
:10109000FFF7F0FC801B02282BD828688001F7D4CA
:1010A000D4E907010843A16A2A4A490802EB014131
:1010B000626A41EA8211084394F82C1040EA016107
:1010C000C9F8001001203866FFF7D4FC044606E09A
:1010D00036E000BFFFF7CEFC001B022809D82868C5
:1010E0008001F7D52CE000BFFFF7C4FC001B0228ED
:1010F00002D90320BDE8F88F28688001F4D41FE0EE
:101100000128F7D0D9F80000E26900F4800191428B
:1011100014D1226A00F03F0191420FD147F6C0710D
:10112000626A0140914209D1A26A00F440319142C1
:1011300004D1E16A00F07060884201D00120D9E753
:101140000020D7E70438024000004742800E4742A3
:10115000007000400000FFFF10B5401EB0F1807F1E
:1011600001D3012010BD4FF0E02460610F21601712
:1011700001F022FE0020A06107202061002010BDA8
:101180007047704710B590F83C20012A22D0012208
:1011900080F83C20CA688C6822F4407222434C6874
:1011A00022F4806222430C6822F4006222430C691C
:1011B00022F4805222434C6922F400522243C9692E
:1011C000002322F480420A4301684A6480F83C30DC
:1011D000002010BD022010BD70B590F83C20012AFF
:1011E00032D0012480F83C40022280F83D20036880
:1011F0005A689D6822F070060A6832435A60134BA1
:1012000002689A4214D0B2F1804F11D0104B9A422A
:101210000ED0104B9A420BD00F4B9A4208D00F4B76
:101220009A4205D00E4B9A4202D00E4B9A4204D1FC
:10123000496825F080031943916080F83D40002102
:1012400080F83C10084670BD022070BD00000140CF
:101250000004004000080040000C00400004014071
:10126000004001400018004010B5040003D094F87D
:101270003D0010B107E0012010BD002084F83C00C3
:10128000204600F00DF8022084F83D00211D206862
:1012900001F0B8FA012084F83D00002010BD0000E4
:1012A00008B501681748814212D11748016841F01A
:1012B000080101600068002200F00800009011465B
:1012C0003220FFF745FCBDE808403220FFF732BC72
:1012D0000D480E4A001D914207D1016841F40031CA
:1012E0000160006800F4003009E0094A914207D12A
:1012F000016841F480210160006800F480200090C2
:1013000008BD0000000C004040380240004401408D
:10131000004801400168CA6842F00102CA600068E2
:10132000816801F00701062903D0016841F001013D
:1013300001600020704770B5044690F83C00012819
:1013400017D0012584F83C50022084F83D00206825
:10135000826822F0770222F47F4282600868502877
:1013600030D00DDC20284DD005DC98B310283BD1BF
:1013700048E0022070BD302844D0402834D139E004
:10138000602828D0702806D0B0F5805F2CD0B0F54A
:10139000005F29D10AE0CB68D1E90121206801F082
:1013A000A2FA2068816841F0770109E0CB68D1E9B1
:1013B0000121206801F097FA2068816841F480419A
:1013C000816011E0CA684968206801F061FB502122
:1013D000206807E016E0CA684968206801F069FBE8
:1013E0006021206801F089FA84F83D50002084F8DB
:1013F0003C0070BDCA684968206801F049FB402183
:101400002068EFE7226801461046EBE72DE9F0413E
:101410000D46040003D094F83D0018B108E0012007
:10142000BDE8F081002084F83C00204600F03AF846
:10143000022084F83D002068816844F2070291434D
:101440008160211D206801F0DDF9226890689169B2
:10145000166A2B68AF69034340F20330814341EAC7
:101460000721A868EF6908434FF6FC418843E96803
:1014700040EA0720014328692F6A000140EA07304B
:10148000084369686D6926F0AA0646EA05152943EE
:1014900093602268906120680162012084F83D0019
:1014A0000020BDE770B586B0044614216846FEF7FB
:1014B000D1FE46482368002445490225012683427F
:1014C00019D143481430026842F0010202600068FA
:1014D00000F001000590086840F0100008600868FE
:1014E000694600F0100005904FF420600090CDE9AF
:1014F0000154384845E0364A37481032B3F1804F3E
:1015000018D0364EB34243D1136843F00203136040
:10151000126802F0020205920A6842F001020A60B3
:10152000096801F001010591C0210091CDE9015444
:10153000694647E0136843F001031360126802F044
:10154000010205920A6842F001020A600A6802F08C
:10155000010205920A6842F002020A60096801F07D
:101560000201059120210091CDE90154CDE9034606
:101570006946FFF78FF908200090CDE9015418481B
:101580006946CDE9034600BFFFF784F906B070BD98
:1015900014488342FAD1106840F0040010601068CB
:1015A00000F004000590086840F008000860086832
:1015B000694600F0080005904FF440500090CDE9D6
:1015C00001540948CDE90345DEE700000000014071
:1015D0003038024000100240000002400004004089
:1015E0000004024000080040000C024010B5044610
:1015F000006891B1042904D00122002101F066F9AC
:10160000206801225FF0040101F060F920680168A0
:1016100041F001010160002010BD01220021F3E72B
:10162000704770B50446006801694FF00005C94372
:10163000890715D4C168C943890711D4E91E01611E
:1016400001202077206880698007204602D0FFF7BC
:10165000E7FF04E000F0FEF8204600F09FF9257750
:1016600020680169C943490717D4C168C9434907BC
:1016700013D46FF004010161022020772068806993
:1016800010F4407F204602D0FFF7CAFF04E000F0CC
:10169000E1F8204600F082F9257720680169C94306
:1016A000090716D4C168C943090712D46FF00801AD
:1016B0000161042020772068C0698007204602D09D
:1016C000FFF7AEFF04E000F0C5F8204600F066F931
:1016D000257720680169C943C90617D4C168C94381
:1016E000C90613D46FF0100101610820207720682B
:1016F000C06910F4407F204602D0FFF791FF04E05C
:1017000000F0A8F8204600F049F925772068016923
:10171000C943C90708D1C168C943C90704D1891E93
:101720000161204600F05EF920680169C94309069D
:1017300009D4C168C943090605D46FF0800101616D
:101740002046FFF71DFD20680169C943490609D4F9
:10175000C168C943490605D46FF0400101612046C4
:1017600000F0D4FA20680169C94389060BD4C16826
:10177000C943890607D46FF0200101612046BDE806
:101780007040FFF7FEBC70BD70B586B004461421F2
:101790006846FEF75FFD2748256800222649022398
:1017A000032485420FD1086840F0040008600868EF
:1017B000694600F0040005904FF470700090CDE988
:1017C00001321E4810E01E48854213D1086840F0DF
:1017D000100008600868694600F01000059060205D
:1017E0000090CDE901321748CDE90324FFF752F804
:1017F00006B070BD144E1548B54209D10D6845F0CC
:1018000020050D60096801F02001059140210BE0E1
:101810000F4EB542ECD10D6845F020050D6009680A
:1018200001F02001059180210091CDE90132694646
:10183000DAE70000000401403038024000080240AE
:1018400000400140001002400044014000140240EA
:1018500000480140704770B5044690F83C000D46C2
:1018600001280DD0012684F83C60022084F83D0058
:1018700042B1042A18D0082A2AD00C2A4DD139E0C6
:10188000022070BD206801F041F82068816941F0B4
:10189000080181612068816921F00401816120686B
:1018A00081692A69114311E0206801F05FF820681E
:1018B000816941F4006181612068816921F480615E
:1018C0008161206881692A6941EA0221816124E0FD
:1018D000206801F081F82068C16941F00801C16108
:1018E0002068C16921F00401C1612068C1692A69C9
:1018F000114311E0206801F0A3F82068C16941F4A8
:101900000061C1612068C16921F48061C161206802
:10191000C1692A6941EA0221C16184F83D60002061
:1019200084F83C0070BD10B5040003D094F83D006D
:1019300010B107E0012010BD002084F83C002046D3
:1019400000F00CF8022084F83D00211D206800F012
:1019500059FF012084F83D00002010BD08B50C4A55
:1019600001680C48914207D1016841F00201016011
:10197000006800F0020009E0074A914207D10168BF
:1019800041F480310160006800F48030009008BDAF
:10199000000401404438024000400140704700000C
:1019A00010B504460068012200F090FF0B49206842
:1019B000884202D00A49884203D1416C41F4004177
:1019C00041642068816801F00701062903D001689D
:1019D00041F001010160002010BD00000000014045
:1019E000000401402DE9F04FB9492DED028B8DB077
:1019F0000068096888427CD1B64C4FF0000B208803
:101A0000401C20806088401C80B26080A188491CF6
:101A1000A1800F285CD300255E46A4F802B0012007
:101A200000F03EFEAC4FA168404247F82100022082
:101A300000F036FEA26807F1140848F822000320DF
:101A400000F02EFEA26807F1280949F822000420C0
:101A500000F026FE4242A06807F13C0141F8202038
:101A6000401CA060052800DBA660002057F820205D
:101A7000401CC0B215440528F8D3052295FBF2F0AE
:101A80000023E0611846454655F82060401CC0B26E
:101A900033440528F8D393FBF2F000232062184664
:101AA0004FEA090555F82060401CC0B233440528B0
:101AB000F8D393FBF2F000236062184651F82050EF
:101AC000401CC0B22B440528F8D393FBF2F0A0626F
:101AD000208814287ED3A4F800B0A069FEF75EFD2C
:101AE00005460E466069FEF759FD81468A46206923
:101AF00000E0E8E0FEF752FD07468846E068FEF7A2
:101B00004DFDCDE90A5641EC100BA06ACDF81890B6
:101B1000CDE907A0606A0297CDE90380206A0090B2
:101B200053EC102B6DA0E16901F036F9E069FEF786
:101B300024FD41EC100B6848503000F037FD51ECAB
:101B4000100BFEF76FFD00EE100A84ED030ABDEEE8
:101B5000C00A10EE100A9FED6B8B002800DA40429D
:101B600000EE100A5C4853EC182BB8EEC00A503057
:101B700084ED030A90ED000B51EC100BFEF722FDF3
:101B800094ED030A03D2B1EE400A84ED030A01F09A
:101B900059FE206AFEF7F1FC41EC100B4E488830EC
:101BA00000F004FD51EC100BFEF73CFD00EE100AB6
:101BB00084ED040ABDEEC00A10EE100A002800DA17
:101BC000404200EE100A4448B8EEC00A883084ED66
:101BD000040A00E072E090ED000B53EC182B51EC7E
:101BE000100BFEF7EFFC94ED040A03D2B1EE400AAD
:101BF00084ED040A01F080FE606AFEF7BEFC41EC51
:101C0000100B3548C03000F0D1FC51EC100BFEF742
:101C100009FD00EE100A84ED050ABDEEC00A10EEC3
:101C2000100A002800DA404200EE100A2A4853EC5D
:101C3000182BB8EEC00AC03084ED050A90ED000BF9
:101C400051EC100BFEF7BEFC94ED050A03D2B1EE89
:101C5000400A84ED050A01F0A3FEA06AFEF78DFCA0
:101C600041EC100B1C48F83000F0A0FC51EC100BBC
:101C7000FEF7D8FC00EE100A84ED060ABDEEC00A9D
:101C800010EE100A002800DA404200EE100A124856
:101C900053EC182BB8EEC00AF83084ED060A90ED2C
:101CA000000B51EC100BFEF78DFC94ED060A03D2ED
:101CB000B1EE400A84ED060A01F0CCFEA0880A28A5
:101CC00001D3A4F804B00DB0BDEC028BBDE8F08FD9
:101CD00070020020000000204000002025642C201D
:101CE000252E32662C2025642C20252E32662C20B1
:101CF00025642C20252E32662C2025642C20252EB0
:101D000032660A00000000000000000070477047C3
:101D100070B5026804461068D168536910F00F0F5F
:101D200052D003F0010501F490762E435FD0C20734
:101D300005D0CA0503D5E26B42F00102E263420717
:101D400005D5DA0703D0E26B42F00202E2638207B4
:101D500005D5DA0703D0E26B42F00402E263020722
:101D600007D501F020022A4303D0E26B42F00802BB
:101D7000E263E26B002A33D0800604D5880602D5E0
:101D8000204600F0C5FE20684069E16BC0F380107A
:101D9000090700D428B3204600F0ACFE2068416952
:101DA00049061AD5416921F040014161606BA0B13B
:101DB0001B490165606BFEF75BFD002810D0606B6E
:101DC000016DBDE870400847830610D58B060ED51F
:101DD0002046BDE8704000F09BBE2046FFF797FF0D
:101DE00070BD2046FFF793FF0020E06370BD03063F
:101DF00006D50B0604D52046BDE8704000F068BF4C
:101E00004006F3D54806F1D5D168204621F04001BF
:101E1000D160202184F8391000F00AF970BD00006B
:101E2000E52A000870B5040004D094F839000025B4
:101E300010B106E0012070BD84F83850204600F053
:101E400023F8242084F839002068C16821F4005167
:101E5000C160204600F0A8FE2068016921F490418D
:101E600001612068416921F02A0141612068C1684F
:101E700041F40051C160E563202084F8390084F802
:101E80003A00002070BD0000F0B587B00446142170
:101E90006846FEF7DFF9314B216800223048022402
:101EA0000325994237D12E4910310A6842F4801235
:101EB0000A60096801F480110591016841F004018C
:101EC0000160016801F004010591016841F0080119
:101ED00001600068012600F00800059098148DE864
:101EE00051000827CDE9035769461E48FEF7D2FC8A
:101EF00004208DE85100CDE9035769461A48FEF7E2
:101F0000C9FC002211463520FEF722FE3520FEF7DF
:101F100011FE07B0F0BD154B9942FAD110491431AA
:101F20000B6843F010030B60096801F01001059184
:101F3000016841F0010101600068029200F00100B7
:101F400005904FF4C060CDE900040720CDE90350AF
:101F500069460748FEF79EFCDBE7000000500040A2
:101F60003038024000080240000C024000100140DE
:101F70000000024070472DE9F843044690F839000C
:101F80001F4616460D46202850D1B5B1AEB194F883
:101F9000380001284AD0012084F838004FF00008AA
:101FA000C4F83C80212084F83900FEF763FDA68444
:101FB0008146E68484F8388026E00120BDE8F88375
:101FC000E08C401EE084A0684B46B0F5805F4FF087
:101FD00000024FF080012046009703D000F0A9FED8
:101FE000E8B90DE000F0A5FEC8B928882168C0F363
:101FF00008004860206908B16D1C05E0AD1C03E0D5
:10200000216815F8010B4860E08C0028D8D14B46B8
:10201000002240212046009700F08BFE08B10320EB
:10202000CCE7202084F839000020C7E70220C5E76C
:102030007047FEE7F0B587B014216846FEF70AF94D
:1020400031480024016841F010010160016801F08D
:1020500010010591016841F020010160016801F063
:1020600020010591016841F080010160016801F0E3
:1020700080010591016841F001010160016801F0F2
:1020800001010591016841F008010160016801F05A
:1020900008010591016841F004010160016801F047
:1020A00004010591016841F0020101600068174ECA
:1020B00000F002004FF4C07505900022294630461A
:1020C000FEF7D2FC124F002203213846FEF7CCFC6B
:1020D00000950125CDE90154694630460394FEF789
:1020E000D9FB03200090CDE901546946384603949A
:1020F000FEF7D0FB0820CDE900046946384602947B
:10210000FEF7C8FB07B0F0BD3038024000100240B7
:10211000000C024010B588B01C216846FEF79AF802
:1021200015481449002401600921C0E9011440F256
:102130006441C0E903148461FFF796F808B1FEF723
:1021400095FB0D48FFF7EFFB08B1FEF78FFB602012
:10215000CDE9000402940022694607480494FFF781
:102160007AFB08B1FEF782FB0348FFF70DFB08B0CE
:1021700010BD0000004401403003002010B588B0BD
:102180001C216846FEF766F81548144900240160D2
:102190000921C0E9011440F26441C0E903148461DB
:1021A000FFF762F808B1FEF761FB0D48FFF7BBFBD4
:1021B00008B1FEF75BFB6020CDE900040294002229
:1021C000694607480494FFF746FB08B1FEF74EFB4B
:1021D0000348FFF7D9FA08B010BD000000480140DD
:1021E0007003002010B58CB024216846FEF732F849
:1021F00000241648099414490A9401600121C0E999
:1022000001144FF6FF72C0E9032444618461CDE9F3
:10221000001405200291CDE90340CDE90541CDE947
:10222000074069460948FFF7F1F808B1FEF71EFBC1
:10223000099409A905480A94FEF7CEFF002801D0A9
:10224000FEF714FB0CB010BD00000140700100202F
:1022500010B58CB024216846FDF7FCFF002415481A
:1022600009944FF080410A9401600121C0E90114F2
:102270008A1EC0E903248461CDE90014052002917F
:10228000CDE90340CDE90541CDE90740694609485C
:10229000FFF7BCF808B1FEF7E9FA099409A9054867
:1022A0000A94FEF799FF002801D0FEF7DFFA0CB080
:1022B00010BD0000B001002010B58CB0242168468C
:1022C000FDF7C8FF00241648099414490A940160D8
:1022D0000121C0E901144FF6FF72C0E903248461B3
:1022E000CDE9001405200291CDE90340CDE9054177
:1022F000CDE9074069460A48FFF788F808B1FEF7BC
:10230000B5FA099409A906480A94FEF765FF002862
:1023100001D0FEF7ABFA0CB010BD00000004004085
:10232000F001002010B58CB024216846FDF792FF23
:1023300000241648099414490A9401600121C0E957
:1023400001144FF6FF72C0E903248461CDE9001443
:1023500005200291CDE90340CDE90541CDE90740D3
:1023600069460A48FFF752F808B1FEF77FFA099468
:1023700009A906480A94FEF72FFF002801D0FEF7AE
:1023800075FA0CB010BD00000008004030020020BB
:1023900010B586B000241748009401940294039469
:1023A0000494134905940160B321C0E9011440F27B
:1023B000E731C0E903148461FEF756FF08B1FEF768
:1023C00055FA4FF48050009069460A48FEF7B3FF73
:1023D00008B1FEF74BFA049404A906480594FEF7E9
:1023E000FBFE002801D0FEF741FA06B010BD000048
:1023F000000C00407002002010B592B000240F9431
:102400001C2168461094FDF725FF202107A8FDF741
:1024100021FF2D482B4901600921C0E9011440F238
:102420006441C0E9031444618461FFF77CFA08B198
:10243000FEF71CFA0F940FA923481094FEF7CCFE68
:1024400008B1FEF713FA602000907020CDE9010476
:10245000039404940594002269461B480694FFF7F0
:10246000FAF908B1FEF702FA042269461648FFF7A6
:10247000F2F908B1FEF7FAF9082269461248019408
:10248000FFF7E9F908B1FEF7F1F90C2269460E48A9
:10249000FFF7E1F908B1FEF7E9F907940894099408
:1024A0004FF400500A94CDE90B4007A906480E945A
:1024B000FEF768FE08B1FEF7D9F90348FFF764F9A3
:1024C00012B010BD00040140B002002010B588B069
:1024D0001C216846FDF7BEFE164815490024016020
:1024E0000921C0E9011440F26441C0E90314846188
:1024F000FFF719FA08B1FEF7B9F96020CDE9000439
:102500000294002269460B480494FFF7A4F908B12D
:10251000FEF7ACF9042269460648FFF79CF908B1BA
:10252000FEF7A4F90348FFF72FF908B010BD00002B
:1025300000400140F00200200C4810B50A4901603B
:102540004FF4E1314160002181600C22C160C0E99B
:1025500004128161C161FFF765FC002803D0BDE86A
:102560001040FEF783B910BD00500040B0030020BA
:102570000C4810B50A4901604FF4E1314160002177
:1025800081600C22C160C0E904128161C161FFF762
:1025900049FC002803D0BDE81040FEF767B910BD24
:1025A00000100140F0030020FEE7FEE710B50446EE
:1025B0002DED068B53EC102B90ED001B9FED329B05
:1025C0009FED33AB51EC110BFDF7F0FE94ED0C0BCE
:1025D00041EC180B53EC192B51EC100BFEF70AF8D9
:1025E00001D284ED0C9B94ED0C0B53EC1A2B51ECA7
:1025F000100BFDF7E7FF01D284ED0CAB94ED0C0B53
:1026000053EC182B51EC100BFDF72FFE41EC1A0B7D
:1026100084ED0CAB94ED0A0B94ED089B53EC102B5E
:1026200051EC190BFDF7C2FE84ED0A9B84ED088B7B
:1026300041EC100B94ED061B53EC102B51EC110BDD
:10264000FDF7BAFE94ED040B41EC190B53EC1A2B79
:1026500051EC100BFDF7B0FE94ED020B41EC1A0BA0
:1026600053EC182B51EC100BFDF7A6FE53EC1A2B74
:10267000FDF7FBFD53EC192BFDF7F7FDBDEC068BC9
:1026800041EC100B10BD0000000000000040AF4006
:10269000000000000040AFC03821FDF7DBBD7047EF
:1026A00000210F2826D2DFE800F025080A0D0F11BF
:1026B000131517191B1D1F212600114A1CE04FF08E
:1026C000804219E00F4A12E00F4A10E00F4A0EE074
:1026D0000F4A11E00F4A0AE00F4A08E00F4A0BE0E8
:1026E0000F4A04E00F4A02E00F4A00E00F4A106868
:1026F000116000B270470E4A506A516200B27047D2
:10270000000001402404004024080040240C004044
:102710000010004024140040240401400040014007
:10272000244401402448014024180040241C004057
:10273000002000407047FEF7A3B9000030B593B009
:1027400030216846FDF786FD14210CA8FDF782FDB7
:1027500020480025016841F080510160006800F0C8
:10276000805011901C48016841F4404101600068AC
:10277000022400F4404011900120039010200490A6
:10278000009406940820CDE90750B420CDE909044F
:1027900004200B906846FEF731FB08B172B6FEE7E5
:1027A000FEF708FA08B172B6FEE70CA90F2081E81F
:1027B00031004FF4A0500F904FF48050109005213D
:1027C0000CA8FEF72FFA002801D072B6FEE713B06E
:1027D00030BD0000403802400070004005480168EC
:1027E00041F47001016003494FF0006080390860D6
:1027F0007047000088ED00E00148FEF712BF0000BE
:1028000070020020F0B50268254C264D264E274F59
:10281000274B4FF0804CA04209D0604507D0A8421A
:1028200005D0B04203D0B84201D0984204D122F082
:10283000700E4A6842EA0E02A0421BD0604519D0D1
:10284000A84217D0B04215D0B84213D0984211D048
:10285000184DA8420ED0184DA8420BD0174DA842D3
:1028600008D0174DA84205D0164DA84202D0164DEB
:10287000A84203D122F44075CA682A434D6922F068
:1028800080022A4302608A68C2620A688262A042A9
:1028900001D0984201D10969016301214161F0BD74
:1028A000000001400004004000080040000C00400F
:1028B0000004014000400140004401400048014044
:1028C00000180040001C00400020004010B501F03E
:1028D0001F030121046A99408C430462016A9A40F3
:1028E0001143016210BD10B5846842EA032224F44A
:1028F0007F440A432243826010BD826822F0700246
:102900000A4342F00701816070470000F0B5026A97
:1029100022F001020262036A42688469124E24F0C6
:1029200073050C682C4323F002058B682B430D4D77
:10293000A84201D0B04205D123F00807CB683B4341
:1029400023F00403A84201D0B04205D14D6922F41E
:10295000407215438A692A43426084614968416331
:102960000362F0BD0000014000040140F0B5026ABE
:1029700022F010020262026A436884690D6824F43E
:10298000E64444EA05248D6822F0200242EA05125A
:102990000F4D104EA84201D0B04206D1CF6822F0B0
:1029A000800242EA071222F04002A84201D0B0425F
:1029B00007D14D6923F4406343EA85038D6943EAF7
:1029C000850343608461496881630262F0BD000051
:1029D0000000014000040140F0B5026A22F4807258
:1029E0000262026A4368C46922F4007224F073052B
:1029F0000C68124E2C438D6842EA05220E4DA84207
:102A000001D0B04206D1CF6822F4006242EA072228
:102A100022F48062A84201D0B04207D14D6923F46C
:102A2000405343EA05138D6943EA05134360C461CB
:102A30004968C1630262F0BD00000140000401402A
:102A400030B5026A22F480520262046A4268C369A5
:102A50000D6823F4E64343EA05238D6824F400540B
:102A600044EA0534084DA84202D0084DA84204D1DA
:102A70004D6922F4804242EA85124260C36149688E
:102A80000164046230BD0000000001400004014008
:102A900010B5036A046A24F001040462846924F016
:102AA000F00444EA021423F00A020A438461026239
:102AB00010BD10B5036A23F0100303628369046A32
:102AC00023F4704343EA023224F0A00343EA0111E5
:102AD0008261016210BD00000148FFF719B90000D2
:102AE000B003002010B5806B0021C185C184FFF7C1
:102AF0000EF910BD0168CA6822F49072CA600168BC
:102B00004A6922F001024A61202180F83A10704798
:102B100010B590F83A10222901D0022010BD81682A
:102B2000B1F5805F11D00169002901681FD04968A3
:102B300001F07F03816A4A1C82620B70C18D491EBD
:102B40000904090CC18518D02BE00269816A002AAA
:102B50000268526805D0D2B20A80816A491C81623B
:102B6000ECE7C2F308020A80816A891CF7E74A6829
:102B7000816A4B1C83620A70E0E70168CA6822F030
:102B80002002CA600168CA6822F48072CA600168C3
:102B90004A6922F001024A61202180F83A10FFF7C9
:102BA000E9F9002010BD00002DE9F041044600685D
:102BB0000169E26821F44051114301612169A06873
:102BC000E26908436169114308432168CA6849F210
:102BD0000C639A430243CA6020684169A26921F4E8
:102BE000407111434161E069192764253226B0F52F
:102BF000004F354A354920684FF0000806D088421A
:102C000001D0904236D1FEF7B7F835E0884201D0C6
:102C1000904202D1FEF7B0F801E0FEF79DF861683E
:102C20004A18A0FB070148EB0803FDF7DBFA014651
:102C3000B0FBF5F00201B1FBF5F06FF0180358435B
:102C400001EB800006EBC000B0FBF5F000F0F800EF
:102C500002EB4002B1FBF5F0584301EB800006EBBC
:102C6000C000B0FBF5F000F0070021681044886058
:102C7000BDE8F081FEF770F861688B0F8A00A0FB59
:102C80000701FDF7AFFA0146B0FBF5F06FF018024F
:102C9000504301EB800006EB0010B0FBF5F000F0B4
:102CA000F002B1FBF5F002EB0012B1FBF5F06FF0B2
:102CB0001803584301EB800006EB0010B0FBF5F061
:102CC00000F00F00D1E700000014014000100140A7
:102CD00090F83910212901D0022070478168B1F5A0
:102CE000805F016A0BD04A1C026202680978516059
:102CF000C18C491E0904090CC1840ED017E0098853
:102D00000268C1F30801516001690029016A02D01B
:102D1000491C0162ECE7891CFBE70168CA6822F0E4
:102D20008002CA600068C16841F04001C1600020B3
:102D300070472DE9F041984617460E460446069D19
:102D40001DE0681C1BD02DB1FDF794FEA0EB080020
:102D5000A84214D92068C16821F4D071C1602068EC
:102D6000416921F001014161202084F8390084F893
:102D70003A00002084F838000320BDE8F081206884
:102D8000006836EA000004D00020B842D9D0002004
:102D9000F3E70120F9E7FEE70FB4054B10B503A9EF
:102DA000044A029800F0EAF810BC5DF814FB000039
:102DB000AD3600083C0000200907090E002804DB9E
:102DC00000F1E02080F80014704700F00F0000F1DF
:102DD000E02080F8141D704702E008C8121F08C1E7
:102DE000002AFAD170477047002001E001C1121F8C
:102DF000002AFBD1704700002DE9FF5F82B000215F
:102E0000DDE90430020DDDF840B0034318D044F68C
:102E10001050A2F2FF3242431514119801281FD01E
:102E2000A5EB0B00401C5FEA000A4FF000064E4F76
:102E3000DFF83891B046504615D5CAF1000413E0CA
:102E4000119801244AA3012801D16FEA0B010298CD
:102E5000119AC0E90031C0E9024206B0BDE8F09F16
:102E6000CBF10000DFE704460021404A491842EB5D
:102E70000450CDE9001012E0E00707D032463B468F
:102E800040464946FDF798FA8046894632463B4619
:102E900010461946FDF790FA06460F466410002CBE
:102EA000EAD1DDE90401DDE90023BAF1000F06DA19
:102EB000FDF782FA42464B46FDF77EFA05E0FDF744
:102EC000EDFA42464B46FDF7E9FA04460E4600226B
:102ED000284BFDF78FFB03D84FF0FF30014607E08A
:102EE0000022254B20463146FDF7BFF9FDF791FC46
:102EF000102409E0002C0ADB0A220023FDF772F9F6
:102F0000039B30321A55641E50EA0102F2D1641C50
:102F1000039AC4F111031444119A012A03D0012227
:102F200008430DD10AE0084304D000204FF0110BF4
:102F3000119072E7A3EB0B056D1E0DE05B4504DD00
:102F40004FF0000205F1010504E003DA4FF0000242
:102F5000A5F10105002AECD002981199C0E90231CF
:102F6000C0E9004579E70000000014400000F03F90
:102F7000300000000000F0430000E03F2DE9FF4F6B
:102F800095B09B468946064600250FE2252877D155
:102F900000242746F84A0121059400E0044316F86E
:102FA000013F203B01FA03F01042F7D130782A2884
:102FB00011D06FF02F033078A0F13002092A16D813
:102FC000059A44F0020402EB820203EB4202104431
:102FD000761C0590EFE759F8042B0592002A03DAD6
:102FE000504244F40054059044F00204761C3078BA
:102FF0002E2816D116F8010F44F004042A280DD00B
:103000006FF02F023078A0F13003092B09D807EBBD
:10301000870302EB4303C718761CF3E759F8047BD8
:10302000761C30786C280FD006DC4C2817D0682826
:103030000DD06A2814D104E0742810D07A280FD15A
:103040000DE044F400140AE044F4801401E044F478
:1030500040147278824202D104F58014761C761CEA
:10306000307866280BD013DC582877D009DC00288C
:1030700075D04528F6D04628F4D047281AD19DE1CE
:1030800018E0632835D0642879D0652812D195E1FD
:10309000702873D008DC6728F1D069286FD06E28BB
:1030A0000DD06F2806D1B5E073282CD0752875D0C7
:1030B000782874D05A46179990476D1C75E1C4F36F
:1030C0000250022809D003280DD0D9F80010042896
:1030D0000DD00D6009F1040967E1D9F80010EA1775
:1030E000C1E90052F6E7D9F800100D80F2E70D7043
:1030F000F0E719F8041B8DF8001000208DF801008E
:10310000EA46012003E059F804AB4FF0FF306107B5
:103110004FF0000102D40DE008F101018846B942E8
:103120000FDA8045F8DB1AF808100029F4D108E01E
:1031300008F1010188468142FADB1AF808100029DB
:10314000F6D105985B46A0EB080721463846179A4A
:1031500000F094FA284400EB080507E04DE029E16F
:103160000DE01AF8010B5A4617999047B8F101087B
:10317000F7D25B4621463846179A13E142E00A220D
:103180000092C4F302524FF0000A022A08D059F804
:1031900004CB032A4FEAEC710AD00DE029E02AE0C3
:1031A00009F1070121F00702F2E802C1914609E0A6
:1031B0000FFA8CFC4FEAEC71042A03D14FFA8CFC15
:1031C0004FEAEC71002907DA0A460021DCF1000C15
:1031D00061EB02012D2202E0220504D52B228DF89D
:1031E0000420012203E0E20701D02022F7E7904605
:1031F00059E00A2102E010220DE010214FF0000AF0
:1032000000910BE010224FF0000A44F0040408275C
:10321000009203E008224FF0000A0092C4F3025229
:10322000022A05D059F804CB0021032A08D009E06E
:1032300009F1070121F00702F2E802C1914605E019
:103240001FFA8CFC042A01D10CF0FF0C4FF000088F
:10325000220728D5702806D0009B83F0100353EA7C
:103260000A0305D00EE040228DF80420012208E078
:103270005CEA010206D030228DF804208DF80500AA
:1032800002229046009B83F0080353EA0A030AD106
:103290005CEA010201D1620705D530228DF80420D5
:1032A0004FF001087F1E582804D034A003900EA8C8
:1032B00002900DE036A0F9E753466046009AFCF70D
:1032C00091FF84460398825C0298401E029002702F
:1032D0005CEA0100F0D1029806A9081A00F1200A60
:1032E000600702D524F4803400E00127574502DD51
:1032F000A7EB0A0000E0002000EB0A01009005980F
:103300004144401A0590E00306D45B462146179AD3
:10331000059800F0B3F90544002706E001A85A46D5
:10332000C05D179990476D1C7F1C4745F6DBE00395
:103330000CD55B462146179A059800F09FF9054485
:1033400004E030205A46179990476D1C0099481E9A
:1033500000900029F5DC08E0029802995A460078AE
:10336000491C0291179990476D1CBAF10001AAF10E
:10337000010AF1DC65E10000092801003031323337
:1033800034353637383961626364656600000000A1
:10339000303132333435363738394142434445468B
:1033A0000000000000F058F90544761C3078002831
:1033B0007FF4ECAD19B02846BDE8F08F620700D469
:1033C000062709F1070222F0070CFCE80223E14678
:1033D00003F000485FEA080C02D00FF2702C0DE0F9
:1033E0005FEA045C02D50FF2682C07E05FEAC47C58
:1033F00002D00FF2602C01E0AFF2700C4FF0FF38FA
:1034000023F00043CDF850C065280CD006DC4528D9
:1034100009D046281DD047283DD13DE0662818D068
:1034200067287ED138E00021112F01DB112000E058
:10343000781CCDE9000106A90EA8FFF7DDFCDDE947
:103440000F010E9A03910021009207F1010A0491E5
:103450004DE04FF000400097CDE9011006A90EA8FD
:10346000FFF7CAFCDDE90F0203920E9B11990022BF
:10347000DDF80CA00093049211B9791C00EB010A4D
:10348000B7EB0A0004D4C0F1FF3007F1010A049041
:10349000AAEB0700019044E0012F00DA0127002188
:1034A000112F01DD112000E03846CDE9000106A909
:1034B0000EA8FFF7A1FCDDE90F010E9A0391002190
:1034C00004910092BA4621070CD40399514500DAC1
:1034D0008A46BAF1010F05DD009AAAF10101515C9B
:1034E000302908D0B84202DA10F1040F06DA0121BF
:1034F000CDE9011015E0AAF10101E9E7002805DC9A
:10350000049901440491AAEB000102E0411C5145D9
:1035100000DD8A460499401A401C01904FF000409B
:103520000290200704D40198504501DBCDF80480B7
:1035300000208DF84F0002980DF14F07B0F1004FB9
:1035400025D02B200E9002984FF0020800280CDAAC
:10355000404202902D200E9007E00A210298FDF7CC
:103560007DF83031029007F8011DB8F10001A8F193
:103570000108F2DC02980028EFD1791E0E9808703D
:10358000307800F0200040F0450007F8020D12A846
:10359000C01B00F107081498007800B1012000EB6F
:1035A0000A01019801EBE07105984144401A401E60
:1035B0000590E00306D45B462146179A059800F073
:1035C0005DF805441498007818B15A461799904749
:1035D0006D1CE00324D55B462146179A059800F040
:1035E0004DF805441CE00498002807DBDDE90301E1
:1035F000884203DD0098405C179901E0179930205C
:103600005A469047049805F10105401C0490019822
:10361000401E019004D12E205A46179990476D1CE8
:10362000BAF10001AAF1010ADDDC05E017F8010B8F
:103630005A46179990476D1CB8F10001A8F101088E
:10364000F4DC5B462146179A0598ABE62D00000096
:103650002B000000200000002DE9F0410446002569
:103660001E461746880404D405E039462020B0479A
:103670006D1C641EF9D52846BDE8F0812DE9F041A6
:10368000044600251E469046C80301D5302700E0B9
:103690002027880404D505E041463846B0476D1C14
:1036A000641EF9D52846BDE8F081000038B504460F
:1036B0008DF800000223012269460248FEF75BFCF8
:1036C000204638BDF0030020FDF7E2F9FFF736F899
:1036D000FEF7B0FCFEF74CFFFEF784FDFEF758FE48
:1036E000FEF78AFEFEF7B4FDFEF7E6FDFEF71AFED2
:1036F000FEF7ECFEFEF70EFDFEF740FDFEF71CFFA9
:103700003C213C48FDF772FF3C213B48FDF76EFF32
:103710003C213A48FDF76AFF3C213948FDF766FF36
:103720003848FDF7F7FD00213748FEF739F9042145
:103730003548FEF735F908213348FEF731F90C21F9
:103740003148FEF72DF900213048FEF729F9042110
:103750002E48FEF725F900212D48FEF721F900211A
:103760002C48FEF71DF9284900200A6850630A68B2
:1037700090630A68D0630968086424490A68506342
:1037800009688863224909684863224909684863CF
:103790002148FEF781FF20483830FEF77DFF1E48A4
:1037A0007030FEF779FF1C48A830FEF775FF1A4805
:1037B0009FED203B9FED190B9FED1A1B9FED1B2BDF
:1037C0009FED1E4BA0EC023B80EC060B12483830FC
:1037D000A0EC024B80EC060B0F487030A0EC023BD3
:1037E00080EC060B0C48A830A0EC024B80EC060BDA
:1037F000FEE7000070010020B0010020F001002071
:103800003002002070020020B0020020F0020020F0
:10381000300300207003002090000020A4703D0AB7
:10382000D7A3D03FEC51B81E85EBA13F9CC420B07C
:103830007268913F00000000000044C000000000DA
:103840000000444010EE100A214910B5884202DB06
:103850009FED200A06E010EE100A1F49884201D9A8
:103860009FED1E0A10EE100AFCF798FE9FED1C1B40
:1038700053EC112BFCF712FE9FED1B1B53EC112B8D
:10388000FCF79AFDFCF7CEFE00EE100A1849194825
:10389000B5EEC00A0968F1EE10FA06DBBDEEC00A0B
:1038A00010EE102A4A6301220CE0B5EEC00AF1EED8
:1038B00010FA0CD2B1EE400ABDEEC00A10EE102A8A
:1038C0004A630022BDE810400121FDF7CDB810BDCC
:1038D0000000C8420000C8420000C8C20000C8C2C0
:1038E00000000000000059400000000000C08240BD
:1038F000B0020020000C024010EE100A1E4910B564
:10390000884202DB9FED1D0A06E010EE100A1C49FA
:10391000884201D39FED1B0A10EE100AFCF73EFE11
:103920009FED191B53EC112BFCF7B8FD9FED181BF5
:1039300053EC112BFCF740FDFCF774FE00EE100A6F
:1039400015491648B5EEC00A0968F1EE10FA06DB13
:10395000BDEEC00A10EE102ACA63012207E0B1EEE4
:10396000400ABDEEC00A10EE102ACA630022BDE86C
:1039700010400221FDF778B80000C8420000C8429C
:103980000000C8C20000C8C200000000000059408A
:103990000000000000C08240B0020020000C024085
:1039A00010EE100A214910B5884202DB9FED200A73
:1039B00006E010EE100A1F49884201D99FED1E0A49
:1039C00010EE100AFCF7EAFD9FED1C1B53EC112BC7
:1039D000FCF764FD9FED1B1B53EC112BFCF7ECFC7B
:1039E000FCF720FE00EE100A18491948B5EEC00A8F
:1039F0000968F1EE10FA06DBBDEEC00A10EE102ADF
:103A00004A6301220CE0B5EEC00AF1EE10FA0CD2C6
:103A1000B1EE400ABDEEC00A10EE102A4A63002241
:103A2000BDE810408021FDF71FB810BD0000C8425E
:103A30000000C8420000C8C20000C8C20000000068
:103A4000000059400000000000C08240F002002049
:103A50000010024010EE100A224910B5884202DB25
:103A60009FED210A06E010EE100A2049884201D994
:103A70009FED1F0A10EE100AFCF790FD9FED1D1B35
:103A800053EC112BFCF70AFD9FED1C1B53EC112B83
:103A9000FCF792FCFCF7C6FD00EE100A194A1A4822
:103AA000B5EEC00A1268F1EE10FA4FF4807106DB31
:103AB000BDEEC00A10EE103A536301220CE0B5EEE1
:103AC000C00AF1EE10FA0BD2B1EE400ABDEEC00A08
:103AD00010EE103A53630022BDE81040FCF7C4BF5B
:103AE00010BD00000000C8420000C8420000C8C26B
:103AF0000000C8C2000000000000594000000000A3
:103B000000C082403003002000100240000000008E
:103B1000000000000102030406070809000000007D
:103B200001020304443B00080000002040000000A4
:103B3000D82D0008843B000840000020F00700005A
:103B4000E82D000800000000000000000000000058
:103B50000000000000000000000000000000000065
:103B60000000000000000000000000000000000055
:103B70000100000010000000000000000024F4001C
:043B80000000000041
:04000005080001AD41
:00000001FF
