:020000040800F2
:10000000B8FF02205D020008355F00089F2B000842
:10001000335F000869070008F9720008000000005B
:10002000000000000000000000000000436A00081B
:100030008F090008000000002F660008216C0008EE
:1000400077020008770200087702000877020008AC
:10005000770200087702000877020008770200089C
:10006000770200087702000877020008770200088C
:10007000770200087702000877020008770200087C
:10008000770200087702000877020008770200086C
:10009000770200087702000877020008770200085C
:1000A000770200087702000877020008770200084C
:1000B000770200087702000877020008770200083C
:1000C000770200087702000877020008770200082C
:1000D000770200088D720008770200087702000896
:1000E000770200087702000877020008770200080C
:1000F00077020008770200087702000877020008FC
:1001000077020008770200087702000877020008EB
:1001100077020008770200087702000877020008DB
:1001200077020008A9080008770200087702000893
:1001300077020008770200087702000877020008BB
:1001400077020008770200087702000877020008AB
:10015000770200087702000877020008770200089B
:10016000770200087702000877020008770200088B
:10017000770200087702000821080008000000004C
:10018000770200087702000877020008770200086B
:10019000770200087702000877020008770200085B
:1001A00077020008770200087702000800F002F8E2
:1001B00000F044F80AA090E8000C82448344AAF1BD
:1001C0000107DA4501D100F039F8AFF2090EBAE8BB
:1001D0000F0013F0010F18BFFB1A43F0010318477B
:1001E000A0E00000C0E00000103A24BF78C878C149
:1001F000FAD8520724BF30C830C144BF04680C602D
:10020000704700000023002400250026103A28BF74
:1002100078C1FBD8520728BF30C148BF0B60704778
:10022000642900F05D80782900F0968000207047F6
:100230001FB508F0BDF91FBD10B510BD00F040FAA4
:100240001146FFF7F5FF07F005FA00F05EFA03B478
:10025000FFF7F2FF03BC07F008F9000009488047E8
:1002600009480047FEE7FEE7FEE7FEE7FEE7FEE798
:10027000FEE7FEE7FEE7FEE704480549054A064BB0
:1002800070470000256C0008AD010008B8F9022095
:10029000B8FF0220B8FB0220B8FB02207047000024
:1002A0000FB4044910B503AA029800F0F3F910BC8A
:1002B0005DF814FB380000200FB41CB5074B06AAEC
:1002C0007B4469460090059800F0CBF90020694610
:1002D00000F0DAF91CBC5DF814FB0000C503000057
:1002E0002DE9F0410646002410687529314616A50F
:1002F00010D0AFF30080002802DA404213A507E0D7
:1003000031688A0701D512A502E0490704D511A575
:10031000012401E0AFF3008000210A2206F1240746
:1003200009E0B0FBF2FCB0FBF2F302FB1C00303042
:1003300078541846491C0028F3D123462A463046F3
:10034000BDE8F04100F02EB9000000002D000000D3
:100350002B0000002000000070B504460D46214629
:100360001068AFF300802188090502D50F4A7A444E
:1003700002E00E4A7A440E32002104F1240305E023
:1003800000F00F060009965D5E54491C0028F7D165
:1003900020780023000704D5702D02D009B1022374
:1003A00011322046BDE8704000F0FCB8D2DE0000FB
:1003B0002DE9F05F894604464FF0000ADFF874B17A
:1003C000FB44C0F820A02046E1688847002874D08C
:1003D000252806D0D4E901219047206A401C2062DC
:1003E000F1E700265F462046E16888472028054659
:1003F00007DB312D05D2781910F8200C08B106431F
:10040000F1E7B00701D526F00406C4F81CA00027C8
:10041000C4F818A02A2D09D0284607F01FF838B3D1
:1004200004EB8708303DC8F8185019E059F8041B50
:10043000204604EB87029161E1688847012F054659
:1004400018D1E069002820DA26F020061DE0D8F84F
:10045000180000EB800005EB40003038C8F81800A9
:100460002046E1688847054606F0F8FF0028EED1EF
:10047000012F0AD02E2D08D12046E16888477F1C25
:100480000546022F46F02006C4DBA069002803DAE7
:10049000404246F00106A061F00701D026F01006A8
:1004A0006C2D0BD0682D09D04C2D39D06A2D35D04C
:1004B000742D35D07A2D33D016E038E0E1682F4620
:1004C00020468847B842054609D16C2F26D04FF404
:1004D0008060E168064320468847054604E06C2FAB
:1004E0001AD04FF4807006430DB3A5F141001928CE
:1004F00002D8203546F400664A4629462046266042
:100500004E46FFF78DFE80B101280BD0F61D26F078
:10051000070000F1080956E74020E4E78020D8E70B
:100520000020D6E706F104094DE7284652E7206A85
:10053000BDE8F09FA8DE000010B5203AC0F00B80A7
:10054000B1E81850203AA0E81850B1E81850A0E8D7
:100550001850BFF4F5AF5FEA027C24BFB1E8185031
:10056000A0E8185044BF18C918C0BDE810405FEAA1
:10057000827C24BF51F8043B40F8043B08BF70471D
:10058000D20728BF31F8023B48BF11F8012B28BF22
:1005900020F8023B48BF00F8012B704770477047B6
:1005A000704770472DE9F0470D469946924604463C
:1005B00000F124080168880604D5E06921F01001E3
:1005C000216000E00120A84201DD471B00E0002778
:1005D000A1697A1902EB0900081AA0612078C00607
:1005E00002D42046AFF30080002608E0D4E90121C0
:1005F0001AF806009047206A401C761C20624E457F
:10060000F4DB2078C0060AD52046AFF3008006E070
:10061000D4E9012130209047206A401C2062381E16
:10062000A7F10107F4DC07E0D4E9012118F805007F
:100630009047206A401C2062281EA5F10105F3DCCA
:100640002046AFF300802078000602D50220BDE8E6
:10065000F0870120FBE7000001694A1C026108786D
:10066000704700B58FB0CDE90131002105910549F2
:100670007944CDE9031011466846FFF799FE0FB0A3
:1006800000BD0000E5FFFFFF0A6802F8010B0A60E9
:1006900070470000074B70B50D467B44FFF7E1FF44
:1006A0000446284600F008F810B14FF0FF3070BD46
:1006B000204670BDD76E0000007B00F080007047C0
:1006C000754600F02BF8AE4605006946534620F00B
:1006D0000700854618B020B5FFF7CEFDBDE82040E5
:1006E0004FF000064FF000074FF000084FF0000BEE
:1006F00021F00701AC46ACE8C009ACE8C009ACE8A1
:10070000C009ACE8C0098D46704710B50446AFF388
:1007100000802046BDE81040FFF799BD00487047B3
:1007200058F902200E4810B5016886B041F0040166
:10073000016000680B4C00F004000590022000905E
:10074000012001900290032003906946204600F0AA
:1007500035FD01220221204600F023FE06B010BD27
:100760003038024000080240FEE700002DE9F8435F
:100770008046274816460F4608990268002542F42D
:10078000800202600068234C00F480000090A4F115
:1007900040008463A063204820604FF00070C4E9EB
:1007A00001054013E560C4E904100011C4E90630F6
:1007B00040022062042060620120C4E90A0520464C
:1007C000256300F06BFC204600F094FC134984F88C
:1007D0003450A7B13B4642462046009600F007FC45
:1007E0002068016841F010010160002211463920A3
:1007F00000F09AFFBDE8F843392000F089BF01B04E
:1008000033464246BDE8F043024800F0AFBC00006A
:10081000303802408C5000202864024028000550E7
:10082000014800F0A5BA00004C50002007480649D6
:10083000016000212022C0E90112C1600161416113
:10084000816100F007BB0000000005504C50002003
:1008500010B50021084604F095FE04F0C5FF0648D7
:100860000068016841F0010101600448016841F03D
:100870000101016010BD00008C50002000000550F7
:100880000748016821F0010101600168C907FCD136
:1008900004480068016821F0010101607047000010
:1008A000000005508C50002030B419481A4D1A4AE7
:1008B0000068184B184C603DB83A984202D9154967
:1008C000543903E0A04203D912495839096804E0B9
:1008D000A84201D9516800E0116811F4006F15D0E9
:1008E0004FF40061984202D90A484C3803E0A04214
:1008F00003D908485038016004E0A84201D9D1600A
:1009000000E091600548406830BC004730BC70474B
:100910008C50002058640240B8600240540000200F
:1009200001681823CAB2103AB2FBF3F2054B6FF319
:100930000901032A9B5C436500D9091D016508462E
:1009400070470000CA85000810B5046863608368BA
:10095000402B036803D099600068C26010BD9A60A4
:100960000068C16010BD30B50468256825F4802595
:100970002560046863608368402B036803D0996036
:100980000068C26030BD9A600068C16030BD7047C9
:1009900070B5B3F5804F05D06FF0704140F822106C
:1009A000002070BD50F82230084C2340D1E90045AA
:1009B00044EA05148D688E892D0245EA0645896949
:1009C0002C430C431C4340F82240E9E70000F0CFE1
:1009D000F0B50C6850F82450194A1540D1E90123AC
:1009E000D1E903671A433E4332434E6932438E696D
:1009F0003243CE6932430E6A32434E6A32438E6AC4
:100A00003243CE6A3243CE6B32430E6B32434E6B6F
:100A100032432A43082B01D142F0400240F82420FF
:100A20004A6BB2F5801F08D10A6832B14FF4807268
:100A30000A6104490268114301600020F0BD000012
:100A40008000E0FF00011000F0B500EB8202536867
:100A50008E8903F04044D1E9003543EA05138D68DF
:100A60002D0245EA06452B430E8A0D4D05EB065631
:100A700033430E7D6F0107EB066633438E693343C4
:100A8000234353600268D20207D54268098A22F4E0
:100A9000700205EB0151114341600020F0BD0000E0
:100AA0000000F0FF30B5D1E901231A43D1E9033446
:100AB00023431A434B690D681A438B691A43D1E9E2
:100AC0000734012D496A05686FF30E0505D01A43F6
:100AD00022430A432A43026008E0234329430B438D
:100AE000416803606FF30E010A434260002030BD8D
:100AF000426942EA4101416100207047F8B514465D
:100B00000546D1E9000210438A686FF01F03C968E7
:100B100003EB421242EA412108430090286100F0B1
:100B200045FC064609E0601C07D024B100F03EFCFD
:100B3000801BA04201D90320F8BDA8698006F2D429
:100B40000020F8BDF0B56FF00F05D1E9003405EBDA
:100B500004145B1E2E0123438C682F0306EB042430
:100B60004FEA054C23430D8A8E8ACC68097E4FF0EC
:100B70007F4E07EB05450CEB06560EEB0161012A93
:100B80000CD082683F1107EB043423432B433343DB
:100B900002F070420B43134383600FE0C2682B43A3
:100BA0000B4302F070428168134301F0704221034D
:100BB000A1F5805131431143C36081600020F0BD35
:100BC00070B500210C4D0A4625F81120491CFF295B
:100BD000FADD0022C2EB0213002100EBC306735CB6
:100BE000491C35F81340641C25F813407829F6DBBE
:100BF000521C502AEEDB70BD9000002030B40C4631
:100C000001461546500700D0012000EBD50010FB2F
:100C100005F0C2B208784B78812809D3402B07D35E
:100C2000FF2B05D0FF2803D07F2B0CD2403B0BE0DD
:100C30000023184603E05B1C04F8010BDBB293426F
:100C4000F9D330BC7047413B8138D9B2C0B2C0EB58
:100C5000401303EB801001EB400050430C490C2D76
:100C60000CD0102D0DD0182D0ED0202DE9D1D1F89B
:100C700021100144204630BC06F07EBBD1F809109B
:100C8000F7E7D1F81110F4E7D1F81910F1E70000F7
:100C90002CF90220704700002DE9F04706F074FCA3
:100CA0002E49D1F8800298B10020C1F880022C4969
:100CB0000878401C08702B480068C16841F00101A9
:100CC000C160FFF7DDFD0025DFF89C80274E16E0B0
:100CD0000120EAE7002447460CE0A1B2A8B204F0E4
:100CE000FFFA80B205F0A4FCC4EB041107EBC101CC
:100CF000641C48557088B4EB900FEEDB6D1C308897
:100D0000B5EB500FE6DB1848FFF75AFF05F024F962
:100D10000746002519E000244FF6FF7910E0C4EBE8
:100D2000041208EBC20104EB9000495DB94281B2A4
:100D3000A8B201D84A4600E0002202F053F8641C31
:100D40007088B4EB900FEADB6D1C3088B5EB500F68
:100D5000E1DBBDE8F047FFF77BBD000000804042CB
:100D6000540000204C50002090020020E84E00204B
:100D700070B50446006881684FF0040649074FF0DB
:100D8000000516D50169490713D5C16821F0040192
:100D9000C16020684661E06B40F00200E06384F8C7
:100DA000256084F82450A06B00F04FF92046FFF72F
:100DB00071FF20688168890717D50169890714D5F3
:100DC000C16821F00201C160216802204861E06B26
:100DD00040F00100E06384F8256084F82450A06BA3
:100DE00000F033F92046FFF755FF20688168C906F7
:100DF00009D50169C90606D51021416184F824503E
:100E0000204600F07DF82068816809070ED5016949
:100E100009070BD5C16821F00801C16021680820CD
:100E2000486184F82450204600F0E0F8206881688A
:100E3000C9070ED00169C9070BD0C16821F00101B3
:100E4000C16021680120486184F824502046FFF7E2
:100E500023FF70BD10B5040003D094F8250010B135
:100E600004E0012010BD204600F04CF8022084F878
:100E700025002068016840F6F872914301606168BE
:100E800060690143D4E9030210430143A0680143B0
:100E9000A0690143206A0143206802681143016090
:100EA0006068102805D1E17FE06961F31F60134994
:100EB00088612068C16841F01001C1602068C16884
:100EC00041F00801C1602068C16841F00101C160C2
:100ED0002068C16841F00401C1602068C16841F028
:100EE0000201C1602068016841F480410160002076
:100EF000E063012084F82500002010BD00000550AB
:100F000070470000334800B5016887B041F0010127
:100F10000160006800F0010005902E48001F016884
:100F200041F001010160016801F0010105910168D2
:100F300041F002010160016801F0020105910168C0
:100F400041F004010160016801F0040105910168AC
:100F500041F008010160016801F008010591016894
:100F600041F0800101600068694600F08000059052
:100F70004020009002200190012002900320039065
:100F80000D200490144800F019F94FF4607000909F
:100F90006946124800F012F94FF43C60009069462F
:100FA0000F4800F00BF90820009069460D4800F04A
:100FB00005F94FF48070009069460B4800F0FEF888
:100FC000002211464E2000F0AFFB4E2000F0A0FBA7
:100FD00007B000BD34380240000002400004024067
:100FE00000080240000C0240001C0240704770B52F
:100FF000044690F83400049D012808D0012084F8AC
:10100000340020680668360303D4122605E0022067
:1010100070BD0668360302D5222684F8356006685E
:1010200026F0010606602068066846F48026066001
:10103000206803612B462046FFF786FC2068016884
:1010400041F001010160002070BD2DE9F04104462E
:101050000068016821F00101016000F0A7F9054670
:1010600000264FF47A770FE000F0A0F9401BB84259
:101070000AD954F84C0F40F0200044F81809032016
:1010800026706070BDE8F08120680068C007EBD171
:1010900004F8346F012060700020F3E770B504009D
:1010A00025D094F83500022821D02068016821F06D
:1010B0000101016020680025056020684560206806
:1010C00085602068C560206805612168212048612D
:1010D0002046FFF725FC94F854203F219140816081
:1010E000E56484F8355084F83450002070BD012048
:1010F00070BD000070B504001AD00220636A84F845
:10110000350021680A6818480240D4E901052843DF
:10111000D4E903563543284365692843A569284324
:10112000E5692843256A28431043042B02D005E0D3
:10113000012070BDD4E90B231A43104308602268D4
:101140005069616A20F007000843042901D1A16AAF
:10115000084350612046FFF7E3FB0020E0640120D4
:1011600084F83500002070BD3F8010F070B5044653
:1011700090F83400012814D0012084F834000220B3
:1011800084F835002068056825F0010505602046D3
:10119000FFF7E9FB2068016841F0010101600020D0
:1011A00070BD022070BD31B500F000F9044600F0BA
:1011B000FDF80099001B8842F9D338BD2DE9F84F9E
:1011C000DFF8A091002209F1040A0AF1040B4FF0A4
:1011D0000F080BF1040E01260B6896403340B34212
:1011E00071D14C68022C01D0122C11D1D40800EB23
:1011F00084073D6A5407E40E08FA04FC25EA0C054E
:10120000D1F810C00CFA04FC4CEA050CC7F820C059
:1012100007685400032591F804C0A5400CF0030CA6
:10122000AF430CFA04FC4CEA070CC0F800C04F684E
:10123000012F05D0022F03D0112F01D0122F11D171
:101240008768D1F80CC0AF430CFA04FC4CEA070CD9
:10125000C0F808C04768B7430E79C6F30016964039
:101260003E434660C668AE438D68A5403543C560C1
:101270004C68E4006FD53C4C256845F480452560FA
:10128000246822F0030504F480440094374C2E199E
:10129000D6F808789407250F08FA05F4A743344CCC
:1012A000A04201D100242EE0324CA04201D1012401
:1012B00029E0314CA04201D1022424E02F4CA0426D
:1012C00002D103241FE046E02D4CA04201D10424AA
:1012D00019E02C4CA04201D1052414E02A4CA04274
:1012E00001D106240FE0294CA04201D107240AE0D5
:1012F000274CA04201D1082405E0264CA04201D190
:10130000092400E00A24AC403C43C6F80848D9F858
:1013100000404D464E689C43F60300D51C432C60AC
:10132000DAF8004055464E689C43B60300D51C438E
:101330002C60DBF800405D464E689C43F60200D509
:101340001C432C60DEF8004075464E689C43B60294
:1013500000D51C432C60521C102AFFF43CAFBDE8A2
:10136000F88F0000003C014044380240003001404A
:10137000000002400004024000080240000C02404D
:10138000001002400014024000180240001C0240FD
:1013900000200240002402400069084000D00120E3
:1013A00070470AB1816170470904FBE70148006892
:1013B000704700002C00002002480168491C0160B1
:1013C000704700002C0000200B4810B5016841F464
:1013D00000710160016841F480610160016841F4BD
:1013E00080710160052000F0BFF90F2000F006F8C1
:1013F00000F08AF9002010BD003C024010B5044600
:1014000000F060FC4FF47A71B0FBF1F001F054F998
:1014100000222146501E00F087F9002010BD2DE962
:10142000F041044690F8A00015460F4601281DD053
:10143000012684F8A060022084F8A10005EB850055
:1014400000EBC50004EB800034223830FFF774F85D
:101450002A463946204604F0BBFC2068466284F8E0
:10146000A160002084F8A000BDE8F0810220FBE725
:1014700070B5040004D094F8A100002510B106E076
:10148000012070BD84F8A050204600F06FF80220C3
:1014900084F8A1002068816921F070418161D4E95C
:1014A00001100143D4E9030210430143206882691B
:1014B00011438161206882682B490A408260A08ABA
:1014C000020420688368A66933431343836020685D
:1014D000C2680A40C260A08B02042068C368266A02
:1014E00033431343C360206802690A400261A08C41
:1014F000020420680369A66A33431343036120682A
:1015000042690A404261A08D010420684269236B50
:101510001A430A43426194F83500020294F83600F7
:1015200001042068C36A03F07F43C3622068C36A72
:1015300094F83460114333430B43C3622068416B1A
:1015400041F0040141632068416B41F002014163B5
:101550002068816941F001018161C4F8A450012033
:1015600084F8A100002070BD00F800F030B53648C6
:1015700087B00025016841F080610160006800F0DB
:101580008060059030481438016841F40001016022
:10159000016801F400010591016841F00201016058
:1015A000016801F002010591016841F0200101602C
:1015B000016801F020010591016841F040010160DE
:1015C000016801F040010591016841F0800101606E
:1015D000016801F080010591016841F480710160AA
:1015E0000068032400F48070059020200090012002
:1015F000CDE90204019069461448FFF7DFFD4FF47E
:10160000806000900220CDE901050E20CDE9034065
:1016100069460F48FFF7D2FD4FF40C600090694611
:101620000C48FFF7CBFD4FF47E40009069460A4816
:10163000FFF7C4FD40F2F760009069460748FFF7E6
:10164000BDFD07B030BD0000443802400004024038
:101650000014024000180240001C0240002002401A
:1016600070B5044690F8A0000E46012820D0012550
:1016700084F8A050022084F8A10003EB830000EB63
:10168000C30004EB800141F8386F886A3044C1E937
:101690000102C86A1044C8601A46204604F098FB4C
:1016A0002068456284F8A150002084F8A00070BD35
:1016B000022070BD2DE9F041044690F8A0000F46CD
:1016C00001281FD0012584F8A050022084F8A10031
:1016D00003EB830000EBC30004EB80010026E1E98B
:1016E0000E672046C1E90262C1E90A721A4604F097
:1016F0006FFB2068456284F8A15084F8A060002048
:10170000BDE8F0810220FBE708B50020009008BD8D
:1017100000F01F02012191404009800000F1E0200B
:10172000C0F8001170470000F0B40E4B1B68C3F303
:101730000223C3F10704042C00D904241D1D072D26
:1017400001D2002300E0DB1E012606FA04F56D1E1F
:101750000D409D409E40761E164045EA0601F0BCB5
:1017600004F0E9BB0CED00E0064A00F00701106848
:101770004FF6FF03184040EA012003490843106078
:10178000704700000CED00E00000FA052DE9F84379
:101790001D48016841F0805101600068012700F098
:1017A00080500090380490FAA0F0DFF86080B0FA22
:1017B00080F048F82070FFF7F9FD04464FF47A7581
:1017C000134E04E0FFF7F2FD001BA84213D8706827
:1017D000C003F7D54FF4003090FAA0F0B0FA80F0D3
:1017E00048F82070FFF7E2FD044607E0FFF7DEFD52
:1017F000001BA84202D90320BDE8F883706880036B
:10180000F4D50020F8E700004038024000000E4206
:10181000007000402DE9F84F04460068DFF8788238
:101820009E4DC10747F6C07A4FF0E0464FF0010BDE
:101830004FF0000901D180074BD59949C1F8689054
:10184000FFF7B4FD074604E0FFF7B0FDC01B6428B6
:101850007ED828680001F7D420789249C0070DD0BF
:101860009AFAAAF26068B2FA82F2904096FAA6F367
:10187000A268B3FA83F39A40104308602078800787
:1018800018D5086896FAA6F200F0E040B2FA82F2A3
:10189000D0406268237B920142EA036242EA007010
:1018A0000860D8F80010E26921F01F01521E1143B0
:1018B000C8F800107A49C1F868B0FFF777FD07460D
:1018C00004E0FFF773FDC01B642841D828680001BD
:1018D000F7D52068410701D4000776D57049C1F8D3
:1018E0007090FFF763FD074604E0FFF75FFDC01B44
:1018F00064282DD82868C0438000F6D520786A4F28
:1019000040074FF0706C29D5386896FAA6F100F0C0
:10191000E040B1FA81F1C8409AFAAAF22169B2FA1C
:1019200082F291409CFAACF36269B3FA83F39A4075
:10193000114396FAA6F2B2FA82F29040014339605E
:10194000D8F800106FF0FF0321F4F851226A00E08C
:1019500079E003EB02221143C8F800102078000759
:1019600023D538689CFAACF100F07060B1FA81F1CF
:10197000C8409AFAAAF22169B2FA82F291409CFA1E
:10198000ACF2B2FA82F29040014396FAA6F2A06954
:10199000B2FA82F2904001433960D8F80010626ACE
:1019A00021F440311143C8F800103D49C1F870B02E
:1019B000FFF7FCFC064604E0FFF7F8FC801B6428F8
:1019C00041D82868C0438000F6D42078800651D5DD
:1019D00032484F464030016841F080510160006854
:1019E000324E00F080500090306840F480703060DB
:1019F000FFF7DCFC054604E0FFF7D8FC401B642839
:101A000021D83068C005F7D5264E143E3068218DA8
:101A100000F4407001F4407188422BD030682449B2
:101A200020F44070C1F800B00F603060800710D51E
:101A3000FFF7BCFC054641F2883707E0FFF7B6FC2C
:101A4000401BB84202D90320BDE8F88F30688007F8
:101A5000F4D5A06A1149C0F301220831032A13D03A
:101A6000086820F4F81008603068218DC1F30B017C
:101A7000084330602078C00604D50E4994F82C0045
:101A8000C1F8E0010020DFE70A680B4B22F4F812EE
:101A9000184002430A60E7E78C38024000380240F1
:101AA00000004742843802408838024000700040FD
:101AB000400E474200104742FFFCFF0F2DE9F05F48
:101AC000DFF8F8A104460F46DAF80000DFF8F081ED
:101AD00000F00F02C8B27A49814641F2883608F117
:101AE0000808BA4261D202468AF80020DAF80000FB
:101AF00000F00F00B8427DD12078800707D5D8F8D4
:101B00000020A36822F0F0021A43C8F800202078D1
:101B1000C0072DD0606801281AD002281BD00328E6
:101B200019D009688907002964DAD8F800104746F7
:101B300021F003010143C8F80010FFF737FC054608
:101B4000606801280FD0022818D003281CD027E095
:101B500009688903E7E709688901E4E7FFF726FCDC
:101B6000401BB04258D83868C0F381000128F5D135
:101B700088E0FFF71BFC401BB0424DD83868C0F32B
:101B800081000228F5D17DE03868FFF70FFC401B8B
:101B9000B042F9D940E0FFF709FC401BB0423BD806
:101BA000386810F00C0FF6D16CE02078800707D56C
:101BB000D8F80020A36822F0F0021A43C8F80020E9
:101BC0002078C0074CD06068012828D0022829D08E
:101BD000032827D009688907002949DAD8F80020A6
:101BE00022F003020243C8F80020FFF7DFFB05469E
:101BF000606800E03CE001281DD0022829D00328BD
:101C000038D0B3464646306810F00C0F28D0FFF7A6
:101C1000CDFB411B5945F6D90320BDE8F09F09686B
:101C20008903D9E709688901D6E7FFF7BFFB411BA4
:101C3000594502D9F0E7B34646463068C0F3810003
:101C40000128F2D10CE0FFF7B1FB411B594502D945
:101C5000E2E7B34646463068C0F381000228F2D17D
:101C60008AF80090DAF8000000F00F00B84209D0BE
:101C70000120D2E744462068FFF798FB401BB042A2
:101C8000F9D9C9E72078400707D5D8F80010E268ED
:101C900021F4E0511143C8F800102078000708D55E
:101CA000D8F80010226921F4604141EAC201C8F865
:101CB00000100F20FFF7A2FB0020AEE7003C02401F
:101CC0000038024010B500F043F808490968F022D6
:101CD00092FAA2F201F0F001B2FA82F2D140044A83
:101CE000515CC8400349086010BD0000083802403C
:101CF000BA8500081800002010B5FFF7E3FF074978
:101D000009684FF4E05292FAA2F201F4E051B2FAFB
:101D100082F2D140024A515CC84010BD08380240EE
:101D2000BA85000810B5FFF7CDFF074909684FF4E1
:101D3000604292FAA2F201F46041B2FA82F2D1401A
:101D4000024A515CC84010BD08380240BA850008FC
:101D500030B51948006810F00C01184812D0184C22
:101D600004290ED008290DD1134A121F11681368D7
:101D700001F03F015D0247F6C07304D5B4FBF1F0FA
:101D800003E0204630BDB0FBF1F01168194093FA32
:101D9000A3F3B3FA83F3D940484311684FF44032B8
:101DA00092FAA2F201F44031B2FA82F2D140491C17
:101DB0004900B0FBF1F030BD083802400024F400C7
:101DC00040787D012DE9F84F04460078DFF8FCA249
:101DD000BF4DC0074FF0000648D0DAF8001050465B
:101DE000C1F38101012908D00068C0F381000228F5
:101DF0000AD1281D0068400206D52868800335D521
:101E00006068002873D031E0DFF8C49209F102095C
:101E100089F80060FFF7CAFA074641F2883804E003
:101E2000FFF7C4FAC11B41457AD828688003F7D46C
:101E3000207989F80000606860B1FFF7B7FA0746BB
:101E400004E0FFF7B3FAC11B4145EDD828688003D1
:101E5000F7D50BE0FFF7AAFA074604E0FFF7A6FA6A
:101E6000C11B4145E0D828688003F7D42078DFF80B
:101E70006492800744D5DAF80010504611F00C0F38
:101E80004FF0F80809D00068C0F3810002280BD198
:101E90008E48001F0068400206D42868800714D5C9
:101EA000E068012823D110E0E068D0B10120C9F832
:101EB0000000FFF77BFA074604E0FFF777FAC01B44
:101EC0006428B1D828688007F7D5286898FAA8F25E
:101ED0002169B2FA82F220F0F800914008432860AC
:101EE0000EE0C9F80060FFF761FA074605E0EAE096
:101EF000FFF75CFAC01B642812D828688007F7D463
:101F00002078000725D5DFF8C4817348616908F19E
:101F10006C0881B101210160FFF748FA074605E02E
:101F20007EE0FFF743FAC01B642879D8D8F8000098
:101F30008007F6D50DE00660FFF738FA074604E0A3
:101F4000FFF734FAC01B64286AD8D8F8000080076D
:101F5000F6D42078400753D55C483830016841F00A
:101F6000805101600068DFF8748100F080500090BB
:101F7000D8F8001041F48071C8F80010FFF716FA85
:101F8000074604E0FFF712FAC01B642848D8D8F8C7
:101F90000000C005F6D5DFF834B10BF1680B8BF803
:101FA0000060FFF703FA074641F2883804E0FFF7C4
:101FB000FDF9C11B41457ED8DBF800008007F6D44F
:101FC000207A8BF80000A06868B1FFF7EFF90746A8
:101FD00004E0FFF7EBF9C11B41456CD8DBF80000CA
:101FE0008007F6D50CE0FFF7E1F9074604E0FFF7BC
:101FF000DDF9C11B41455ED8DBF800008007F6D44F
:10200000A069E8B3DAF80010C1F3810102295AD0BF
:10201000022806D0C9F86060FFF7C8F904464DE011
:1020200049E04F46C9F86060FFF7C0F9064604E092
:10203000FFF7BCF9801B64283DD828688001F7D4DD
:10204000D4E90701084347F6C07191FAA1F1626A29
:10205000B1FA81F18A40A16A4FF0FF3303EB5101DD
:102060004FF4403393FAA3F3B3FA83F399400A434E
:1020700010434FF0706292FAA2F2B2FA82F200E0DC
:102080001FE0E16A914008431049091F08600120E0
:102090003866FFF78BF9044604E0FFF787F9001B69
:1020A000642808D828688001F7D50AE0FFF77EF990
:1020B000001B642802D90320BDE8F88F286880013E
:1020C000F4D40020F8E70120F6E7000008380240C9
:1020D0000038024000004742800E47420070004036
:1020E00070B50D46040003D094F82C0010B107E041
:1020F000012070BD002084F82D00204600F012F869
:10210000022084F82C00211D2068FEF7CBFCD4E9C6
:1021100000022946FEF716FD012084F82C0000205D
:1021200070BD0000304800B5016887B041F0010182
:102130000160006800F0010005902B480838016834
:1021400041F004010160016801F00401059101689A
:1021500041F008010160016801F008010591016882
:1021600041F010010160016801F010010591016862
:1021700041F020010160016801F020010591016832
:1021800041F0400101600068694600F040000590A0
:102190000D20009002200190012002900320039066
:1021A0000C2004901148FFF709F84CF203700090DE
:1021B00069460F48FFF702F84FF6837000906946B2
:1021C0000C48FEF7FBFF4FF63F00009069460A48B7
:1021D000FEF7F4FF48F23710009069460748FEF713
:1021E000EDFF07B000BD0000383802400008024093
:1021F000000C02400010024000140240001802408F
:1022000010B5044690F82C00022809D0022084F86A
:102210002C002068FEF76CFC012084F82C000020C4
:1022200010BD70B5044690F82C000D4602280CD065
:10223000022084F82C002068FEF760FC2868022841
:1022400004D0012084F82C00002070BD0520F9E79F
:1022500070B5040004D094F85100002510B106E0D8
:10226000012070BD84F85050204600F033F8022061
:1022700084F851002068016821F040010160D4E930
:1022800001010843D4E9031211430843616908437B
:10229000218B01F400710843E1690843216A084376
:1022A000A16A084321680860A069042101EA10407E
:1022B000616A0843216848602168E06A0861206813
:1022C000C16921F40061C1616565012084F8510094
:1022D000002070BD124800B5016887B041F02001B0
:1022E0000160006800F0200005900D48143001687E
:1022F00041F4801101600068012100F48010059014
:102300004FF4607000900220CDE901010390052098
:10231000049069460348FEF751FF07B000BD000076
:1023200030380240001402402DE9F843044690F88A
:102330005100DDF82080012801D022287ED169B12A
:1023400062B15BB194F85000012877D0012784F87E
:10235000507094F85100012803D005E00120BDE839
:10236000F883322084F8510000266665A263A387B3
:10237000E3872163A386E386A664E664A06A4FF43C
:102380000055A84209D12068016821F4005101607C
:102390002068016841F40051016020680168490625
:1023A00003D4016841F040010160E0684FF482719C
:1023B000B0F5006F606807D0002867D088426ED102
:1023C000E08E012862D06AE020B188420CD1E08E14
:1023D000012809D1206B21680088C860206B801C0F
:1023E0002063E08E401EE086E08E80B9A06AA8429D
:1023F00044D12068016841F4805101603EE02068CA
:10240000C068A16B0880A06B801CA0639EE043465F
:1024100000220221204604F0C5FA002874D1206B66
:1024200021680088C860206B801C2063E08E401EFD
:102430000004000CE08609D1A06A00E0C7E0A842D1
:1024400004D12068016841F48051016043460022B4
:102450000121204604F0A6FA00286FD12068C06848
:10246000A16B0880A06B801CA063E08F401EE087FA
:10247000E08E0028CBD1606800286AD14346002254
:102480000121204604F08EFAF0BBB8E7206B411C16
:10249000216321680078C860E08E401EE086E08EEF
:1024A00098B9A06AA84204D12068016841F480511B
:1024B0000160434600220121204604F073FA18BB54
:1024C0002068C068A16B087040E0434600220221EA
:1024D000204604F067FAB8B9206B411C21632168DB
:1024E0000078C860E08E401E0004000CE08607D132
:1024F000A06AA84204D12068016841F480510160BB
:1025000000224346012100E018E0204604F04AFA88
:10251000A0B92068C168A06B421CA2630170E08F63
:10252000401EE087E08E0028CFD1606888B943461E
:1025300000220121204604F035FA08B103200EE7FD
:102540002068C168A06B421CA2630170E08F401E2E
:10255000E087A06AA84210D143460022012120460C
:1025600004F020FA18B1606D40F002000FE020681E
:10257000C068ADF80000BDF800004346012280218C
:10258000204604F00FFA20B1606D40F02000606535
:10259000D4E784F8517020688168A26AC1F3001101
:1025A000AA4210D179B1616D41F002016165016803
:1025B00021F4005101602068016841F4005101607C
:1025C00084F85060CAE684F850600020C7E6022014
:1025D000C5E670B515460E46040003D094F84900D0
:1025E00010B107E0012070BD002084F848002046AB
:1025F00000F01AF804F108012068FEF7E9F9314605
:10260000A2682068FEF720FAD4E901022946236B6C
:10261000FEF7BEF9A168206850F8212042F00102BF
:1026200040F82120002070BD1A4800B5016887B02D
:1026300041F001010160006800F0010005901548BB
:102640000838016841F008010160016801F00801E3
:102650000591016841F0100101600068694600F0D1
:10266000100005904EF2B3700090022001900120FE
:102670000290032003900C2004900748FEF79EFD73
:102680004FF68070009069460448FEF797FD07B04A
:1026900000BD000038380240000C0240001002402B
:1026A0004FF0E0210428086903D020F004000861FD
:1026B000704740F00400FAE710B5401EB0F1807F8B
:1026C00001D3012010BD4FF0E02460610F2160179D
:1026D00003F031FC0020A06107202061002010BD24
:1026E0002DE9F041044690F838000D4601283CD011
:1026F000012684F83860022084F83900A2B3042A45
:1027000045D02068082A54D0D5E90027E968036A33
:1027100023F480530362D0F81CC0036A2CF4407C7D
:102720004CEA07274FF6FF7C27F470470CEA01318B
:1027300039434FF4204723F4204307EA02321A4377
:10274000C16102622068C16921F44061C1612068F1
:10275000C169AA6841EA0221C16184F83960002098
:1027600084F83800BDE8F08101E00220FAE7D5E9FD
:102770000012EB68206804F009FB2068816921F0F1
:102780000C01816120688169AA6811430FE0D5E9D5
:102790000012EB68206804F03BFB2068816921F49B
:1027A0004061816120688169AA6841EA02218161F2
:1027B000D3E7D5E9002C2F7B016A21F480710162F7
:1027C000C169036A21F0030141EA0C0121F0F00C18
:1027D00039074FF420674CEA116123F4206307EABC
:1027E00002221A43C16102622068C16921F00C0112
:1027F000C1612068C169AA681143ADE710B5040042
:1028000003D094F8390010B107E0012010BD00207A
:1028100084F83800204600F00DF8022084F83900D2
:10282000211D206804F046FA012084F839000020B8
:1028300010BD0000124800B5026887B0002142F0C8
:1028400001020260006800F0010005900C48103899
:10285000026842F001020260006800F00100059089
:10286000202000900220CDE90101032003900120E7
:10287000049069460348FEF7A1FC07B000BD0000C4
:10288000403802400000024010B5044600680122B2
:1028900004F070FA2068016841F001010160002035
:1028A00010BD90F838300022012B0AD0012380F8A7
:1028B000383041B1042909D008290AD00C290DD19A
:1028C0000AE00220704701684A6B07E001688A6BE2
:1028D00004E00168CA6B01E001680A6C002180F81D
:1028E000381010467047704738B5016804460868CC
:1028F000CA68C0F3000002F4807238B132B10868CF
:1029000048680090E06B40F00100E06308684A69A5
:10291000C0F3400002F0010238B132B108684868E3
:102920000090E06B40F00400E06308684A69C0F37F
:10293000800002F0010238B132B1086848680090A6
:10294000E06B40F00200E06308684A69C0F3C00031
:1029500002F0010238B132B1086848680090E06BBB
:1029600040F00800E0630868C968C0F3401001F057
:10297000200118B111B1204604F0FEFA2068016868
:10298000C068C1F3C01100F0800019B110B1204639
:1029900004F000FC21680868CA68C0F3801002F0E7
:1029A0004002012568B162B1CA68204622F04002A7
:1029B000CA6094F8391032290CD080F8395000F0F0
:1029C000EDF8E06B002804D084F839502046FFF77A
:1029D0008AFF38BD222180F83910F0E770B5040075
:1029E00004D094F83900002510B106E0012070BD34
:1029F00084F83850204600F021F8022084F839008D
:102A00002068C16821F40051C160204604F008FB31
:102A10002068016921F4904101612068416921F039
:102A20002A0141612068C16841F40051C160E56339
:102A3000012084F83900002070BD000030B5044644
:102A40000068204987B0884239D11F48016841F0A9
:102A500001010160006800F0010005901A4814307F
:102A6000016841F0100101600068012100F01000D0
:102A700005904FF4007000900220CDE90101039011
:102A80000720124D049069462846FEF797FB28154B
:102A9000009069462846FEF791FB2068C16821F046
:102AA0004001C1602068C16841F02001C16025205B
:102AB000FEF72EFE032211462520FEF735FE07B055
:102AC00030BD0000001001403038024000000240DC
:102AD0002DE9F047044690F8390099460D46012843
:102AE00001D0122857D125B31AB394F83800012821
:102AF00051D0012684F838600027E76394F8390044
:102B0000122819D0222084F83900A285E2854FF4DA
:102B10008058E08D4B46401EE085A0684FF00002D3
:102B200040454FF02001204616D104F066FBB0B9B5
:102B300004E00120BDE8F0873220E4E720690028A6
:102B40002068406803D0C1B225F8011B12E0C0F331
:102B5000080125F8021B0DE004F04FFB08B103202B
:102B6000E8E7206900282068406801D000F07F0075
:102B700005F8010BE08D0028CBD194F839003228FC
:102B800005D084F8396084F838700020D2E712202C
:102B900084F83900F7E70220CCE770477047FEE77A
:102BA00070B5144886B00025016841F0010101604C
:102BB000016801F001010591016841F080010160A7
:102BC0000068032400F08000059002200126CDE972
:102BD0000204CDE9006569460748FEF7EFFA0C20CC
:102BE00003948DE8610069460448FEF7E7FA06B0F1
:102BF00070BD00003038024000000240001C02405E
:102C00002DE9F0410126254C254F264D012818D0ED
:102C1000207878B108212846FEF7BEFB98B1042140
:102C20002846FEF7B9FB70B101213846FEF7B4FB28
:102C3000012808D008212846FEF7AEFB01281FD046
:102C40002AE02670E6E70A2004F01AFC0020207033
:102C500008212846FEF7A0FB58B104212846FEF7BC
:102C60009BFB48B101213846FEF796FB012805D0B1
:102C700012E00120BDE8F0810220FBE70420F9E723
:102C800004212846FEF788FB012805D1012138469A
:102C9000FEF782FB00B926700020EBE73C00002025
:102CA00000000240001C024070B50E490E4A064664
:102CB00008881268002422B13046BDE8704002F056
:102CC000CBBD4D8800214543084602F05BFC02F075
:102CD0008BFDB1B2054801E00180641CAC42FBD31E
:102CE00070BD0000E84E0020D44F002000000860B6
:102CF0002DE9F05F394C3A4DA071296839B102F0E5
:102D00002BFEE88A2080288B6080BDE8F09F334945
:102D10002C232A2589884FF0F00949F2413A2B26C5
:102D200045F2105B4FF4305E4FF448774FF4A078D3
:102D300045F2103C4FF4F07258B1A4F80080A4F8AA
:102D40000290514501D0614529D123816581A68139
:102D500039E0A4F80090A4F80280514501D0614503
:102D600008D123816581A681614531D1A4F8008015
:102D700062802DE0594508D1A4F808E04FF42850AE
:102D800060814FF42C50A08106E0A1F5C850633853
:102D90001ED123816681A5812280678018E0594574
:102DA00008D1A4F808E04FF4285060814FF42C506B
:102DB000A08106E0A1F5C850633804D12381658164
:102DC000A68127806280614502D12280A4F802801A
:102DD000BDE8F05F002002F0F9BA0000E84E0020E4
:102DE000D44F00202DE9F04104463A480D460068D2
:102DF00020B12046BDE8F04102F0C2BD364E270AA0
:102E00003146B0884989A0F513434FEA1528413B64
:102E10000CD0A0F5A643103B08D0A0F5AA43103B68
:102E200011D0A0F5C853633B27D04BE0084602F011
:102E3000CFFC384602F0C0FCE0B202F0BDFCB08925
:102E400002F0C6FC38E0084602F0C2FC384602F048
:102E5000B3FC7089401C80B202F0BAFCE0B202F010
:102E6000ABFCB08902F0B4FC404602F0A5FCB0898E
:102E7000401C80B202F0ACFC21E0B07918B9308877
:102E8000001B401E84B2084602F0A2FC270A384606
:102E900002F092FCE0B202F08FFC384602F08CFCAB
:102EA000E0B202F089FCB08902F092FC404602F0E8
:102EB00083FCE8B202F080FC404602F07DFCE8B200
:102EC00002F07AFC054930890880881C0280BDE840
:102ED000F0810000D44F0020E84E0020FEFF076084
:102EE0002DE9F8431F46144B804608981B6833B100
:102EF00000903B46404602F061FDBDE8F883A2EB3E
:102F00000802521C96B20C4685B2DFF830900FE0F2
:102F10002146404602F036FB02F066FC002049469E
:102F200002E00D80401C80B2B042FAD3641CA4B20F
:102F3000BC42EDD9E1E70000D44F0020000008605A
:102F40002DE9F04F95B002F0CBFEFE4D4FF0010A97
:102F5000A5F15009A88049F2413B45F2103645F2EF
:102F6000105441F6631818B102F082FD02F08BB9DB
:102F7000F5480027016841F002010160006810A9CE
:102F800000F0020000902020CDE9100A0320CDE9D6
:102F900012A0EE48FEF712F94FF020414846C9F85A
:102FA0000010EB49C0E901171021C9F80C70C0E905
:102FB0000471C9F818700902C9F81C70C0E90971D8
:102FC0008900C0E90B71C9F834708901C9E90E7133
:102FD00046210B910F20CDE90907CDE902070490A6
:102FE000D8480F9702AA09A908975038FFF7F1FAB5
:102FF000322004F045FAD32002F0EAFB02F066F931
:10300000A88002F063F9A88002F060F94FF6FF7221
:1030100002EA0020A88002F059F9A9885F46084317
:10302000A880B84248D0D42002F0D2FB02F04EF97A
:10303000A88002F04BF9A88002F048F902EA0020CB
:10304000A88002F043F9A9880843A880B04233D091
:103050004FF45A4002F0BCFB02F038F9A8804FF45C
:103060005B4002F0B5FB02F031F902EA0020A880D3
:103070004FF45C4002F0ACFB02F028F9A988084349
:10308000A880B0F5004F7DD0A04215D0A12002F05D
:103090009FFB02F01BF9A88002F018F902EA002059
:1030A000A88002F013F9A9880843A0F5AE41A880D2
:1030B000613901D1A5F80480A988A6A0FDF7F0F830
:1030C000A888B8427ED1CF2002F082FB002002F017
:1030D00073FBC12002F070FB302002F06DFBED208D
:1030E00002F076FB642002F067FB032002F064FB31
:1030F000122002F061FB812002F05EFBE82002F06A
:1031000067FB852002F058FB102002F055FB7A2067
:1031100002F052FBCB2002F05BFB392002F04CFBAB
:103120002C2002F049FB002002F046FB342002F084
:1031300043FB022002F040FBF72002F049FB202075
:1031400002F03AFBEA2002F043FB002002F034FBDD
:10315000002002F031FBC02002F03AFB1B2002F0FD
:103160002BFBC12002F034FB012002F025FBC5201F
:1031700002F02EFB302002F01FFB302002F01CFB7F
:10318000C72000E0B7E002F023FBB72002F014FBF9
:10319000362002F01DFB482002F00EFB3A2002F020
:1031A00017FB552002F008FBB12002F011FB0020B4
:1031B00002F002FB1A2002F0FFFAB62002F008FB30
:1031C0000A2000E099E002F0F7FAA22002F0F4FAF7
:1031D000F22002F0FDFA002002F0EEFA262002F0C2
:1031E000F7FA012002F0E8FAE02002F0F1FA0F20ED
:1031F00002F0E2FA2A2002F0DFFA282002F0DCFADC
:10320000082002F0D9FA0E2002F0D6FA082002F0C7
:10321000D3FA542002F0D0FAA92002F0CDFA4320CC
:1032200002F0CAFA0A2002F0C7FA0F2002F0C4FA2C
:10323000002002F0C1FA002002F0BEFA002002F0E5
:10324000BBFA002002F0B8FAE12002F0C1FA002037
:1032500002F0B2FA152002F0AFFA172002F0ACFA31
:10326000072002F0A9FA112002F0A6FA062002F0C7
:10327000A3FA2B2002F0A0FA562002F09DFA3C207F
:1032800002F09AFA052002F097FA102002F094FA60
:103290000F2002F091FA3F2002F08EFA3F2002F058
:1032A0008BFA0F2002F088FA2B2002F091FA00200E
:1032B00002F082FA002002F07FFA012002F07CFA8C
:1032C0003F2002F079FA2A2002F082FA002002F070
:1032D00073FA002002F070FA002002F06DFAEF207D
:1032E00002F06AFA112002F073FA782004F0C8F8AC
:1032F000292001F00BBFAC80DEE6B0427ED1ED208C
:1033000002F066FA012002F057FAFE2002F054FAA9
:10331000EE2002F05DFADE2002F04EFA212002F0EB
:103320004BFAF12002F054FA012002F045FADF20B6
:1033300002F04EFA102002F03FFAC42002F048FAE0
:103340008F200FE0E84E0020303802400004024099
:10335000040100A0204C43442049443A25780D0A3A
:103360000000000002F028FAC62002F031FA002026
:1033700002F022FAE22002F01FFAE22002F01CFA28
:10338000E22002F019FABF2002F022FAAA2002F08D
:1033900013FAB02002F01CFA0D2002F00DFA002002
:1033A00002F00AFA0D2002F007FA002002F004FAF7
:1033B000112002F001FA002002F0FEF9192002F0BB
:1033C000FBF9002002F0F8F9212002F0F5F90020C5
:1033D00002F0F2F92D2002F0EFF9002002F0ECF9F2
:1033E0003D2002F0E9F9002002F0E6F95D2002F04C
:1033F000E3F9002002F0E0F95D2000E0FEE302F0D6
:10340000DBF9002002F0D8F9B12002F0E1F98020C8
:1034100002F0D2F9002002F0CFF98B2002F0CCF9B3
:10342000002002F0C9F9962002F0C6F9002002F04F
:10343000C3F9B22002F0CCF9002002F0BDF900205F
:1034400002F0BAF9022002F0B7F9002002F0B4F954
:10345000032002F0B1F9002002F0AEF9B32002F02F
:10346000B7F9002002F0A8F9002002F0A5F9002029
:1034700002F0A2F9002002F09FF9002002F09CF96E
:10348000002002F099F9002002F096F9002002F0E5
:1034900093F9002002F090F9002002F08DF900204D
:1034A00002F08AF9002002F087F9002002F084F986
:1034B000002002F081F9002002F07EF9002002F0E5
:1034C0007BF9002002F078F9002002F075F9002065
:1034D00002F072F9002002F06FF9002002F06CF99E
:1034E000002002F069F9002002F066F9002002F0E5
:1034F00063F9B42002F06CF98B2002F05DF9002032
:1035000002F05AF9962002F057F9002002F054F91F
:10351000A12002F051F9002002F04EF9B52002F08E
:1035200057F9022002F048F9002002F045F9032083
:1035300002F042F9002002F03FF9042002F03CF9C9
:10354000002002F039F9B62002F042F9002002F022
:1035500033F9002002F030F9B72002F039F90020E9
:1035600002F02AF9002002F027F93F2002F024F9A6
:10357000002002F021F95E2002F01EF9002002F086
:103580001BF9642002F018F9002002F015F98C20D4
:1035900002F012F9002002F00FF9AC2002F00CF951
:1035A000002002F009F9DC2002F006F9002002F008
:1035B00003F9702002F000F9002002F0FDF89020DD
:1035C00002F0FAF8002002F0F7F8EB2002F0F4F82D
:1035D000002002F0F1F8DC2002F0EEF8002002F00A
:1035E000EBF8B82002F0F4F8002002F0E5F8002033
:1035F00002F0E2F8002002F0DFF8002002F0DCF830
:10360000002002F0D9F8002002F0D6F8002002F0E5
:10361000D3F8002002F0D0F8BA2002F0D9F8242024
:1036200002F0CAF8002002F0C7F8002002F0C4F847
:10363000002002F0C1F8C12002F0CAF8202002F0F8
:10364000BBF8002002F0B8F8542002F0B5F80020D2
:1036500002F0B2F8FF2002F0AFF8002002F0ACF860
:10366000C22002F0B5F80A2002F0A6F8002002F00D
:10367000A3F8042002F0A0F8002002F09DF8C32077
:1036800002F0A6F83C2002F097F8002002F094F82F
:103690003A2002F091F8002002F08EF8392002F072
:1036A0008BF8002002F088F8372002F085F800201F
:1036B00002F082F83C2002F07FF8002002F07CF853
:1036C000362002F079F8002002F076F8322002F07D
:1036D00073F8002002F070F82F2002F06DF800203F
:1036E00002F06AF82C2002F067F8002002F064F87B
:1036F000292002F061F8002002F05EF8262002F096
:103700005BF8002002F058F8242002F055F8002061
:1037100002F052F8242002F04FF8002002F04CF89A
:10372000232002F049F8002002F046F83C2002F085
:1037300043F8002002F040F8362002F03DF8002067
:1037400002F03AF8322002F037F8002002F034F8A4
:103750002F2002F031F8002002F02EF82C2002F089
:103760002BF8002002F028F8292002F025F800208C
:1037700002F022F8262002F01FF8002002F01CF8C8
:10378000242002F019F8002002F016F8242002F09C
:1037900013F8002002F010F8232002F00DF80020AA
:1037A00002F00AF8C42002F013F8622002F004F8D4
:1037B000002002F001F8052001F0FEFF002001F0DA
:1037C000FBFF842001F0F8FF002001F0F5FFF0205E
:1037D00001F0F2FF002001F0EFFF182001F0ECFFF4
:1037E000002001F0E9FFA42001F0E6FF002001F035
:1037F000E3FF182001F0E0FF002001F0DDFF502082
:1038000001F0DAFF002001F0D7FF0C2001F0D4FF17
:10381000002001F0D1FF172001F0CEFF002001F0C1
:10382000CBFF952001F0C8FF002001F0C5FFF32079
:1038300001F0C2FF002001F0BFFFE62001F0BCFF55
:10384000002001F0B9FFC52001F0C2FF322001F0D5
:10385000B3FF002001F0B0FF442001F0ADFF0020D5
:1038600001F0AAFF652001F0A7FF002001F0A4FFEE
:10387000762001F0A1FF002001F09EFF882001F0DA
:103880009BFF002001F098FFC62001F0A1FF20203F
:1038900001F092FF002001F08FFF172001F08CFF54
:1038A000002001F089FF012001F086FF002001F0D7
:1038B00083FFC72001F08CFF002001F07DFF002076
:1038C00001F07AFF002001F077FF002001F074FF83
:1038D000C82001F07DFF002001F06EFF002001F004
:1038E0006BFF002001F068FF002001F065FFC92098
:1038F00001F06EFF002001F05FFF002001F05CFF8F
:10390000002001F059FF002001F056FF002001F0D7
:1039100053FF002001F050FF002001F04DFF002078
:1039200001F04AFF002001F047FF002001F044FFB2
:10393000002001F041FF002001F03EFF002001F0D7
:103940003BFF002001F038FF002001F035FF002090
:1039500001F032FFE02001F03BFF162001F02CFFC8
:10396000002001F029FF1C2001F026FF002001F0BB
:1039700023FF212001F020FF002001F01DFF362051
:1039800001F01AFF002001F017FF462001F014FF9C
:10399000002001F011FF522001F00EFF002001F085
:1039A0000BFF642001F008FF002001F005FF7A20E2
:1039B00001F002FF002001F0FFFE8B2001F0FCFE71
:1039C000002001F0F9FE992001F0F6FE002001F040
:1039D000F3FEA82001F0F0FE002001F0EDFEB9207A
:1039E00001F0EAFE002001F0E7FEC42001F0E4FE51
:1039F000002001F0E1FECA2001F0DEFE002001F00F
:103A0000DBFED22001F0D8FE002001F0D5FED92047
:103A100001F0D2FE002001F0CFFEE02001F0CCFE4C
:103A2000002001F0C9FEF32001F0C6FE002001F0E5
:103A3000C3FEE12001F0CCFE162001F0BDFE002007
:103A400001F0BAFE1C2001F0B7FE002001F0B4FE28
:103A5000222001F0B1FE002001F0AEFE362001F080
:103A6000ABFE002001F0A8FE452001F0A5FE0020DD
:103A700001F0A2FE522001F09FFE002001F09CFE0A
:103A8000642001F099FE002001F096FE7A2001F0FA
:103A900093FE002001F090FE8B2001F08DFE0020AF
:103AA00001F08AFE992001F087FE002001F084FEDB
:103AB000A82001F081FE002001F07EFEB92001F077
:103AC0007BFE002001F078FEC42001F075FE00208E
:103AD00001F072FECA2001F06FFE002001F06CFEC2
:103AE000D22001F069FE002001F066FED82001F02E
:103AF00063FE002001F060FEE02001F05DFE00208A
:103B000001F05AFEF32001F057FE002001F054FEB0
:103B1000E22001F05DFE052001F04EFE002001F0E4
:103B20004BFE0B2001F048FE002001F045FE1B205B
:103B300001F042FE002001F03FFE342001F03CFE87
:103B4000002001F039FE442001F036FE002001F093
:103B500033FE4F2001F030FE002001F02DFE6120E9
:103B600001F02AFE002001F027FE792001F024FE5A
:103B7000002001F021FE882001F01EFE002001F04F
:103B80001BFE972001F018FE002001F015FEA62074
:103B900001F012FE002001F00FFEB72001F00CFE34
:103BA000002001F009FEC22001F006FE002001F015
:103BB00003FEC72001F000FE002001F0FDFDD12032
:103BC00001F0FAFD002001F0F7FDD62001F0F4FD30
:103BD000002001F0F1FDDD2001F0EEFD002001F0FC
:103BE000EBFDF32001F0E8FD002001F0E5FDE3200E
:103BF00001F0EEFD052001F0DFFD00E00AE300200A
:103C000001F0DAFD0A2001F0D7FD002001F0D4FD1B
:103C10001C2001F0D1FD002001F0CEFD332001F089
:103C2000CBFD002001F0C8FD442001F0C5FD0020BF
:103C300001F0C2FD502001F0BFFD002001F0BCFDED
:103C4000622001F0B9FD002001F0B6FD782001F0FE
:103C5000B3FD002001F0B0FD882001F0ADFD002093
:103C600001F0AAFD972001F0A7FD002001F0A4FDBE
:103C7000A62001F0A1FD002001F09EFDB72001F07B
:103C80009BFD002001F098FDC22001F095FD002071
:103C900001F092FDC72001F08FFD002001F08CFDA6
:103CA000D12001F089FD002001F086FDD52001F032
:103CB00083FD002001F080FDDD2001F07DFD00206E
:103CC00001F07AFDF32001F077FD002001F074FD92
:103CD000E42001F07DFD012001F06EFD002001F0E7
:103CE0006BFD012001F068FD002001F065FD022060
:103CF00001F062FD002001F05FFD2A2001F05CFD73
:103D0000002001F059FD3C2001F056FD002001F09B
:103D100053FD4B2001F050FD002001F04DFD5D20D2
:103D200001F04AFD002001F047FD742001F044FD40
:103D3000002001F041FD842001F03EFD002001F053
:103D40003BFD932001F038FD002001F035FDA2205D
:103D500001F032FD002001F02FFDB32001F02CFD19
:103D6000002001F029FDBE2001F026FD002001F019
:103D700023FDC42001F020FD002001F01DFDCD2019
:103D800001F01AFD002001F017FDD32001F014FD11
:103D9000002001F011FDDD2001F00EFD002001F0FA
:103DA0000BFDF32001F008FD002001F005FDE520EA
:103DB00001F00EFD002001F0FFFC002001F0FCFCF2
:103DC000002001F0F9FC002001F0F6FC022001F0D7
:103DD000F3FC002001F0F0FC292001F0EDFC0020B4
:103DE00001F0EAFC3C2001F0E7FC002001F0E4FCDB
:103DF0004B2001F0E1FC002001F0DEFC5D2001F031
:103E0000DBFC002001F0D8FC742001F0D5FC002080
:103E100001F0D2FC842001F0CFFC002001F0CCFCAA
:103E2000932001F0C9FC002001F0C6FCA22001F0A3
:103E3000C3FC002001F0C0FCB32001F0BDFC002059
:103E400001F0BAFCBE2001F0B7FC002001F0B4FC88
:103E5000C42001F0B1FC002001F0AEFCCD2001F047
:103E6000ABFC002001F0A8FCD32001F0A5FC002051
:103E700001F0A2FCDC2001F09FFC002001F09CFC82
:103E8000F32001F099FC002001F096FCE62001F0FF
:103E90009FFC112001F090FC002001F08DFC3420EB
:103EA00001F08AFC002001F087FC562001F084FC20
:103EB000002001F081FC762001F07EFC002001F062
:103EC0007BFC772001F078FC002001F075FC662077
:103ED00001F072FC002001F06FFC882001F06CFC06
:103EE000002001F069FC992001F066FC002001F03F
:103EF00063FCBB2001F060FC002001F05DFC992018
:103F000001F05AFC002001F057FC662001F054FC3F
:103F1000002001F051FC552001F04EFC002001F082
:103F20004BFC552001F048FC002001F045FC4520E9
:103F300001F042FC002001F03FFC432001F03CFC7A
:103F4000002001F039FC442001F036FC002001F093
:103F500033FCE72001F03CFC322001F02DFC002076
:103F600001F02AFC552001F027FC002001F024FC80
:103F7000762001F021FC002001F01EFC662001F0FB
:103F80001BFC002001F018FC672001F015FC00204C
:103F900001F012FC672001F00FFC002001F00CFC86
:103FA000872001F009FC002001F006FC992001F0B7
:103FB00003FC002001F000FCBB2001F0FDFB002011
:103FC00001F0FAFB992001F0F7FB002001F0F4FB6F
:103FD000772001F0F1FB002001F0EEFB442001F01E
:103FE000EBFB002001F0E8FB562001F0E5FB002090
:103FF00001F0E2FB232001F0DFFB002001F0DCFBFD
:10400000332001F0D9FB002001F0D6FB452001F060
:10401000D3FB002001F0D0FBE82001F0D9FB002009
:1040200001F0CAFB002001F0C7FB992001F0C4FB9E
:10403000002001F0C1FB872001F0BEFB002001F051
:10404000BBFB882001F0B8FB002001F0B5FB772016
:1040500001F0B2FB002001F0AFFB662001F0ACFBE9
:10406000002001F0A9FB882001F0A6FB002001F050
:10407000A3FBAA2001F0A0FB002001F09DFBBB20C8
:1040800001F09AFB002001F097FB992001F094FBCE
:10409000002001F091FB662001F08EFB002001F072
:1040A0008BFB552001F088FB002001F085FB55209B
:1040B00001F082FB002001F07FFB442001F07CFB3B
:1040C000002001F079FB442001F076FB002001F094
:1040D00073FB552001F070FB002001F06DFBE9201F
:1040E00001F076FBAA2001F067FB002001F064FBE1
:1040F000002001F061FB002001F05EFB002001F0D8
:1041000067FBAA2001F058FBCF2001F061FB0020E3
:1041100001F052FB002001F04FFB002001F04CFBAE
:10412000002001F049FB002001F046FB002001F0D7
:1041300043FB002001F040FB002001F03DFB00208C
:1041400001F03AFB002001F037FB002001F034FBC6
:10415000002001F031FB002001F02EFB002001F0D7
:104160002BFB002001F028FB002001F025FB0020A4
:1041700001F022FBF02001F02BFB002001F01CFBE2
:10418000502001F019FB002001F016FB002001F087
:1041900013FB002001F010FBF32001F019FB0020BD
:1041A00001F00AFBF92001F013FB062001F004FBEB
:1041B000102001F001FB292001F0FEFA002001F09F
:1041C000FBFA3A2001F004FB552001F0F5FA11202A
:1041D00001F0FEFA642003F053F9292001F0F8FA07
:1041E000352001F0F5FA002001F0E6FA512001F047
:1041F000EFFAFF2001F0E0FA532001F0E9FA2C2059
:1042000001F0DAFA552001F0E3FA822001F0D4FA45
:104210002C20FDE3A0427DD14FF470435521184678
:1042200001F0ECFA4FF20107AA21384601F0E6FA54
:104230005221781C01F0E2FA0821B81C01F0DEFAE4
:104240000121F81C01F0DAFA0D214FF4304001F0A1
:10425000D5FA0D214BF2010001F0D0FA0D214BF2FD
:10426000020001F0CBFA34214FF4364001F0C6FAD7
:1042700034214BF2016001F0C1FA34214BF20260AB
:1042800001F0BCFA0D214FF4314001F0B7FA0D21D5
:104290004BF2011001F0B2FA0D214BF2021001F0C5
:1042A000ADFA34214FF4374001F0A8FA34214BF233
:1042B000017001F0A3FA34214BF2027001F09EFA72
:1042C00000214FF4324001F099FA00214BF2012015
:1042D00001F094FA00214BF2022001F08FFA242120
:1042E0004FF4384001F08AFA24214BF6010001F026
:1042F00085FA24214BF6020001F080FA01214FF4E7
:104300003F4001F07BFA0F214FF4334001F076FA81
:104310000F2100E0FEE34BF2013001F06FFA0F21B4
:104320004BF2023001F06AFA34214FF4394001F0C7
:1043300065FA34214BF6011001F060FA34214BF696
:10434000021001F05BFA08214FF4354001F056FAF3
:1043500008214BF2015001F051FA08214BF20250B2
:1043600001F04CFA03214FF4424001F047FA2421B6
:104370004FF43A4001F042FA24214BF6012001F0BB
:104380003DFA24214BF6022001F038FA00214FF4C7
:104390003C4001F033FA78214BF6014001F02EFA4F
:1043A00000214BF6024001F029FA00214FF43D4074
:1043B00001F024FA78214BF6015001F01FFA002198
:1043C0004BF6025001F01AFA00214FF43E4001F082
:1043D00015FA64214BF6016001F010FA00214FF448
:1043E000514001F00BFA33214DF2011001F006FAB1
:1043F00000214DF2021001F001FA34214DF20310B8
:1044000001F0FCF900214DF2041001F0F7F93A2116
:104410004DF2051001F0F2F900214DF2061001F005
:10442000EDF94A214DF2071001F0E8F900214DF2B3
:10443000081001F0E3F95C214DF2091001F0DEF9FA
:1044400000214DF20A1001F0D9F981214DF20B1033
:1044500001F0D4F900214DF20C1001F0CFF9A621A2
:104460004DF20D1001F0CAF900214DF20E1001F0CD
:10447000C5F9E5214DF20F1001F0C0F901214DF20F
:10448000101001F0BBF913214DF2111001F0B6F933
:1044900001214DF2121001F0B1F954214DF2131027
:1044A00001F0ACF901214DF2141001F0A7F98221BD
:1044B0004DF2151001F0A2F901214DF2161001F094
:1044C0009DF9CA214DF2171001F098F902214DF221
:1044D000181001F093F900214DF2191001F08EF936
:1044E00002214DF21A1001F089F901214DF21B1041
:1044F00001F084F902214DF21C1001F07FF9342102
:104500004DF21D1001F07AF902214DF21E1001F05A
:1045100075F967214DF21F1001F070F902214DF27B
:10452000201001F06BF984214DF2211001F066F9A1
:1045300002214DF2221001F061F9A4214DF2231065
:1045400001F05CF902214DF2241001F057F9B72176
:104550004DF2251001F052F902214DF2261001F022
:104560004DF9CF214DF2271001F048F902214DF20B
:10457000281001F043F9DE214DF2291001F03EF937
:1045800002214DF22A1001F039F9F2214DF22B10DF
:1045900001F034F902214DF22C1001F02FF9FE2127
:1045A0004DF22D1001F02AF903214DF22E1001F0E9
:1045B00025F910214DF22F1001F020F903214DF2C1
:1045C000301001F01BF933214DF2311001F016F9D2
:1045D00003214DF2321001F011F96D214DF233102B
:1045E00001F00CF900214FF4524001F007F933219A
:1045F0004DF2012001F002F900214DF2022001F0FC
:10460000FDF834214DF2032001F0F8F800214DF2BD
:10461000042001F0F3F83A214DF2052001F0EEF804
:1046200000214DF2062001F0E9F84A214DF2072061
:1046300001F0E4F800214DF2082001F0DFF85C21E0
:104640004DF2092001F0DAF800214DF20A2001F0C4
:10465000D5F881214DF20B2001F0D0F800214DF268
:104660000C2001F0CBF8A6214DF20D2001F0C6F888
:1046700000214DF20E2001F0C1F8E5214DF20F208E
:1046800001F0BCF801214DF2102001F0B7F8132120
:104690004DF2112001F0B2F801214DF2122001F08B
:1046A000ADF854214DF2132001F0A8F801214DF28C
:1046B000142001F0A3F882214DF2152001F09EF89C
:1046C00001214DF2162001F099F8CA214DF2172070
:1046D00001F094F802214DF2182001F08FF800212A
:1046E0004DF2192001F08AF802214DF21A2001F052
:1046F00085F801214DF21B2001F080F802214DF2D6
:104700001C2001F07BF834214DF21D2001F076F8D9
:1047100002214DF21E2001F071F867214DF21F2099
:1047200001F06CF802214DF2202001F067F884219D
:104730004DF2212001F062F802214DF2222001F019
:104740005DF8A4214DF2232001F058F802214DF22A
:10475000242001F053F8B7214DF2252001F04EF846
:1047600002214DF2262001F049F8CF214DF22720F9
:1047700001F044F802214DF2282001F03FF8DE213B
:104780004DF2292001F03AF802214DF22A2001F0E1
:1047900035F8F2214DF22B2001F030F802214DF2D4
:1047A0002C2001F02BF8FE214DF22D2001F026F8EF
:1047B00003214DF22E2001F021F810214DF22F207F
:1047C00001F01CF803214DF2302001F017F83321DD
:1047D0004DF2312001F012F803214DF2322001F0A8
:1047E0000DF86D214DF2332001F008F800214FF44F
:1047F000534001F003F833214DF2013000F0FEFF89
:1048000000214DF2023000F0F9FF34214DF2033067
:1048100000F0F4FF00214DF2043000F0EFFF3A21E8
:104820004DF2053000F0EAFF00214DF2063000F0B5
:10483000E5FF4A214DF2073000F0E0FF00214DF284
:10484000083000F0DBFF5C214DF2093000F0D6FFAC
:1048500000214DF20A3000F0D1FF81214DF20B30E2
:1048600000F0CCFF00214DF20C3000F0C7FFA62174
:104870004DF20D3000F0C2FF00214DF20E3000F07D
:10488000BDFFE5214DF20F3000F0B8FF01214DF2E0
:10489000103000F0B3FF13214DF2113000F0AEFFE5
:1048A00001214DF2123000F0A9FF54214DF21330D6
:1048B00000F0A4FF01214DF2143000F09FFF82218F
:1048C0004DF2153000F09AFF01214DF2163000F044
:1048D00095FFCA214DF2173000F090FF02214DF2F2
:1048E000183000F08BFF00214DF2193000F086FFE8
:1048F00002214DF21A3000F081FF01214DF21B30F0
:1049000000F07CFF02214DF21C3000F077FF3421D3
:104910004DF21D3000F072FF02214DF21E3000F00A
:104920006DFF67214DF21F3000F068FF02214DF24C
:10493000203000F063FF84214DF2213000F05EFF53
:1049400002214DF2223000F059FFA4214DF2233014
:1049500000F054FF02214DF2243000F04FFFB72148
:104960004DF2253000F04AFF02214DF2263000F0D2
:1049700045FFCF214DF2273000F040FF02214DF2DC
:10498000283000F03BFFDE214DF2293000F036FFE9
:1049900002214DF22A3000F031FFF2214DF22B308E
:1049A00000F02CFF02214DF22C3000F027FFFE21F9
:1049B0004DF22D3000F022FF03214DF22E3000F099
:1049C0001DFF10214DF22F3000F018FF03214DF292
:1049D000303000F013FF33214DF2313000F00EFF84
:1049E00003214DF2323000F009FF6D214DF23330DA
:1049F00000F004FF00214FF4544000F0FFFE33218B
:104A00004DF2014000F0FAFE00214DF2024000E0BC
:104A10007CE300F0F3FE34214DF2034000F0EEFEA3
:104A200000214DF2044000F0E9FE3A214DF205402C
:104A300000F0E4FE00214DF2064000F0DFFE4A21C6
:104A40004DF2074000F0DAFE00214DF2084000F080
:104A5000D5FE5C214DF2094000F0D0FE00214DF260
:104A60000A4000F0CBFE81214DF20B4000F0C6FE63
:104A700000214DF20C4000F0C1FEA6214DF20D4088
:104A800000F0BCFE00214DF20E4000F0B7FEE52123
:104A90004DF20F4000F0B2FE01214DF2104000F047
:104AA000ADFE13214DF2114000F0A8FE01214DF2A0
:104AB000124000F0A3FE54214DF2134000F09EFE80
:104AC00001214DF2144000F099FE82214DF2154073
:104AD00000F094FE01214DF2164000F08FFECA2135
:104AE0004DF2174000F08AFE02214DF2184000F00E
:104AF00085FE00214DF2194000F080FE02214DF2AA
:104B00001A4000F07BFE01214DF21B4000F076FEC2
:104B1000022100E0FDE24DF21C4000F06FFE342166
:104B20004DF21D4000F06AFE02214DF21E4000F0E1
:104B300065FE67214DF21F4000F060FE02214DF23C
:104B4000204000F05BFE84214DF2214000F056FE33
:104B500002214DF2224000F051FEA4214DF22340EB
:104B600000F04CFE02214DF2244000F047FEB72138
:104B70004DF2254000F042FE02214DF2264000F0A9
:104B80003DFECF214DF2274000F038FE02214DF2CC
:104B9000284000F033FEDE214DF2294000F02EFEC9
:104BA00002214DF22A4000F029FEF2214DF22B4065
:104BB00000F024FE02214DF22C4000F01FFEFE21E9
:104BC0004DF22D4000F01AFE03214DF22E4000F070
:104BD00015FE10214DF22F4000F010FE03214DF282
:104BE000304000F00BFE33214DF2314000F006FE64
:104BF00003214DF2324000F001FE6D214DF23340B1
:104C000000F0FCFD00214FF4554000F0F7FD33218A
:104C10004DF2015000F0F2FD00214DF2025000F083
:104C2000EDFD34214DF2035000F0E8FD00214DF27E
:104C3000045000F0E3FD3A214DF2055000F0DEFD96
:104C400000214DF2065000F0D9FD4A214DF20750E7
:104C500000F0D4FD00214DF2085000F0CFFD5C21A2
:104C60004DF2095000F0CAFD00214DF20A5000F04B
:104C7000C5FD81214DF20B5000F0C0FD00214DF229
:104C80000C5000F0BBFDA6214DF20D5000F0B6FD1A
:104C900000214DF20E5000F0B1FDE5214DF20F5014
:104CA00000F0ACFD01214DF2105000F0A7FD1321E2
:104CB0004DF2115000F0A2FD01214DF2125000F012
:104CC0009DFD54214DF2135000F098FD01214DF24D
:104CD000145000F093FD82214DF2155000F08EFD2E
:104CE00001214DF2165000F089FDCA214DF21750F6
:104CF00000F084FD02214DF2185000F07FFD0021EC
:104D00004DF2195000F07AFD02214DF21A5000F0D8
:104D100075FD01214DF21B5000F070FD02214DF296
:104D20001C5000F06BFD34214DF21D5000F066FD6B
:104D300002214DF21E5000F061FD67214DF21F501F
:104D400000F05CFD02214DF2205000F057FD84215F
:104D50004DF2215000F052FD02214DF2225000F0A0
:104D60004DFDA4214DF2235000F048FD02214DF2EB
:104D7000245000F043FDB7214DF2255000F03EFDD8
:104D800002214DF2265000F039FDCF214DF227507F
:104D900000F034FD02214DF2285000F02FFDDE21FD
:104DA0004DF2295000F02AFD02214DF22A5000F068
:104DB00025FDF2214DF22B5000F020FD02214DF295
:104DC0002C5000F01BFDFE214DF22D5000F016FD81
:104DD00003214DF22E5000F011FD10214DF22F5005
:104DE00000F00CFD03214DF2305000F007FD33219F
:104DF0004DF2315000F002FD03214DF2325000F02F
:104E0000FDFC6D214DF2335000F0F8FC00214FF411
:104E1000564000F0F3FC33214DF2016000F0EEFC4F
:104E200000214DF2026000F0E9FC34214DF20360F4
:104E300000F0E4FC00214DF2046000F0DFFC3A21B8
:104E40004DF2056000F0DAFC00214DF2066000F042
:104E5000D5FC4A214DF2076000F0D0FC00214DF254
:104E6000086000F0CBFC5C214DF2096000F0C6FC4C
:104E700000214DF20A6000F0C1FC81214DF20B606F
:104E800000F0BCFC00214DF20C6000F0B7FCA62144
:104E90004DF20D6000F0B2FC00214DF20E6000F00A
:104EA000ADFCE5214DF20F6000F0A8FC01214DF2B0
:104EB000106000F0A3FC13214DF2116000F09EFC85
:104EC00001214DF2126000F099FC54214DF2136063
:104ED00000F094FC01214DF2146000F08FFC82215F
:104EE0004DF2156000F08AFC01214DF2166000F0D1
:104EF00085FCCA214DF2176000F080FC02214DF2C2
:104F0000186000F07BFC00214DF2196000F076FC87
:104F100002214DF21A6000F071FC01214DF21B607C
:104F200000F06CFC02214DF21C6000F067FC3421A3
:104F30004DF21D6000F062FC02214DF21E6000F097
:104F40005DFC67214DF21F6000F058FC02214DF21C
:104F5000206000F053FC84214DF2216000F04EFCF3
:104F600002214DF2226000F049FCA4214DF22360A1
:104F700000F044FC02214DF2246000F03FFCB72118
:104F80004DF2256000F03AFC02214DF2266000F05F
:104F900035FCCF214DF2276000F030FC02214DF2AC
:104FA000286000F02BFCDE214DF2296000F026FC89
:104FB00002214DF22A6000F021FCF2214DF22B601B
:104FC00000F01CFC02214DF22C6000F017FCFE21C9
:104FD0004DF22D6000F012FC03214DF22E6000F026
:104FE0000DFC10214DF22F6000F008FC03214DF262
:104FF000306000F003FC33214DF2316000F0FEFB25
:1050000003214DF2326000F0F9FB6D214DF2336067
:1050100000F0F4FB5521184600F0F0FBAA213846B9
:1050200000F0ECFB5221781C00F0E8FB0821B81CD2
:1050300000F0E4FB0021F81C00F0E0FBCC214FF471
:10504000314000F0DBFB00214BF2011000F0D6FBF9
:1050500005214FF4364000F0D1FB70214FF437406A
:1050600000F0CCFB70214BF2017000F0C7FB012176
:105070004FF4384000F0C2FB03214BF6010000F072
:10508000BDFB03214BF6020000F0B8FB03214BF6F9
:10509000030000F0B3FB02214FF43C4000F0AEFBF4
:1050A00000214BF6014000F0A9FB00214BF6024025
:1050B00000F0A4FBD0214FF4494000F09FFB0221F7
:1050C0004CF6011000F09AFB50214CF6021000F053
:1050D00095FB50214CF6031000F090FB50214CF64C
:1050E000041000F08BFB00214FF4545000F086FBBD
:1050F00055214FF4685000F081FB4FF4885000F0C8
:1051000067FB782002F0CAF94FF4245000F060FBEE
:10511000B9E04045FCD1E22000F05AFB1D2000F030
:105120004BFB022000F048FB042000F045FB64200C
:1051300002F0B4F9E02000F04BFB012000F03CFB52
:105140000A2002F09DF9E02000F042FB032000F06D
:1051500033FB0C2002F094F9012000F039FB0A2007
:1051600002F08EF9E62000F033FB2F2000F024FB44
:10517000FF2000F021FBFF2000F01EFBB02000F01C
:1051800027FB202000F018FB002000F015FB032077
:1051900000F012FB40F21F3000F00EFB012000F087
:1051A0000BFB40F2DF1000F007FB002000F004FBD7
:1051B000B42000F00DFB042000F0FEFA40F21F4086
:1051C00000F0FAFA002000F0F7FA2E2000F0F4FACE
:1051D000002000F0F1FA002000F0EEFA002000F0CC
:1051E000EBFA002000F0E8FAB62000F0F1FA022015
:1051F00000F0E2FA4FF4037000F0DEFA002000F055
:10520000DBFA172000F0D8FA152000F0D5FA0020BC
:1052100000F0D2FA002000F0CFFAF02000F0D8FA27
:10522000032000F0C9FA292000F0D2FAD02000F0C3
:10523000CFFA002000F0C0FABE2000F0C9FA052025
:1052400000F0BAFAFE2000F0B7FA012000F0B4FA3C
:10525000002000F0B1FA002000F0AEFA002000F0CB
:10526000ABFAB82000F0B4FA032000F0A5FA012050
:1052700000F0A2FABA2000F0ABFA012000F09CFA8C
:10528000642000F07BF8A888584505D0B04203D0D0
:10529000A04201D0404509D1042002900490D9E9F0
:1052A000010202A9D9F83030FBF772FB0020FDF7AC
:1052B0001FFD0549C1F894A24FF6FF70FDF7F4FCFD
:1052C00015B0BDE8F08F000000804042034808B5EB
:1052D0000088ADF80000BDF8000008BD00000860BF
:1052E00010B5244C2288824202D962888A4201D8B1
:1052F000002010BD204A12681AB1BDE8104000F02D
:105300004BBD00F03FF9A08841F66312A0F51341B0
:10531000413905D0A0F5A641103901D0904201D104
:105320002E2005E0A0F5AA41103903D14FF43850E2
:1053300000F04EFAFFF7CAFFA1889142D9D00220AF
:10534000401EC0B2FCD2FFF7C1FF04460221491E35
:10535000C9B2FCD2FFF7BAFFE1B24FF6FF7202EA20
:10536000012124EA6212890A42EA411141EAD0206D
:1053700010BD0000E84E0020D44F002010B50246BA
:10538000BE2000F025FA052000F016FA104602F0C3
:10539000A1FE9FED0C1B53EC112B02F0EBFE02F073
:1053A00055FE80B200F008FA012000F005FAFF2057
:1053B00000F002FA002000F0FFF9BDE810400020E4
:1053C00000F0FAB96666666666660440F0B56C4D34
:1053D00000232946AA79898841F66314012A01D05D
:1053E0001AB11BE0A14202D118E0A14216D108284F
:1053F00014D2DFE800F00406080A0C0E1012062092
:105400000CE007200AE0042008E0052006E0012067
:1054100004E0002002E0032000E00220A1F5134791
:1054200045F2103245F21056413F05D0914203D06B
:10543000B14201D0A14277D1082812D2DFE800F0B2
:10544000110406080A0C0E1080230AE0402308E02D
:10545000C02306E0202304E0602302E0A02300E054
:10546000E023B14202D14FF4585000E0362091427F
:1054700005D0B14203D0A14201D043F00803194640
:1054800000F0BCF9AA88A2420AD098062888698848
:1054900002D5884202D303E0884201D9298068807E
:1054A0006889B24241D100F093F9002000F084F9FC
:1054B0006889401C80B200F08BF9002000F07CF974
:1054C0006889801C80B200F083F92888401EC0F3F0
:1054D0000F2000F071F96889C01C80B200F078F9E3
:1054E0002878401EC0B200F067F9A88900F070F972
:1054F000002000F061F9A889401C80B200F068F932
:10550000002000F059F9A889801C80B200F060F9F1
:105510006888401EC0F30F2000F04EF9A889C01C17
:1055200080B200F055F922E028E000F051F90020A7
:1055300000F042F9002000F03FF92888401EC0F337
:105540000F2000F039F92878401EC0B200F034F97D
:10555000A88900F03DF9002000F02EF9002000F0AD
:105560002BF96888401EC0F30F2000F025F9A878B9
:10557000BDE8F040401EC0B200F01EB9F0BD000012
:10558000E84E0020F0B53F4D0C460246060AA988B9
:105590002846270A4089A1F51343413B28D0A1F5AD
:1055A000A643103B24D0A1F5C853633B2FD0A1F5EF
:1055B000AA43103B64D100F00BF9304600F0FCF830
:1055C0006889401C80B200F003F9D0B200F0F4F812
:1055D000A88900F0FDF8384600F0EEF8A889401CD4
:1055E00080B200F0F5F8E0B2BDE8F04000F0E4B8B9
:1055F00000F0EEF8304600F0DFF8D0B200F0DCF852
:10560000A88900F0E5F8384600F0D6F8EBE7A9796C
:1056100029B300F0DDF8304600F0CEF8D0B200F04B
:10562000CBF82888401EC0F30F2000F0C5F828787A
:10563000401EC0B200F0C0F8A88900F0C9F8384692
:1056400000F0BAF8E0B200F0B7F86888401EC0F386
:105650000F2000F0B1F8A878401EC0B2C4E7298836
:10566000891A491E8AB200F0B3F8002000F0A4F8AD
:10567000002000F0A1F8100A00F09EF8D0B2D9E79F
:10568000F0BD0000E84E00202DE9F84F82461F468D
:105690000E468B46580700D0012000EBD700790852
:1056A00010FB01F0203AC0B202F0FF090025009083
:1056B00047E00C2F10D0102F12D0182F14D0202F0D
:1056C00042D1224901EBC9104FF00008445D200689
:1056D00010D51F48026811E009EB49001D4906E09A
:1056E0001D4901EB0910EFE71C4909EBC90001EB6B
:1056F0008000E9E70A9828B91548426831465046C3
:10570000FDF770FB6006040E1548761CB6B24088A3
:10571000B04219D9A6EB0B00B84209D10AF1010039
:105720001FFA80FA0E485E46018851450CD906E002
:1057300008F1010000F0FF08B8F1080FC7D36D1C95
:10574000EDB200988542B4D3BDE8F88F929D000871
:1057500040000020D2850008468A000836900008E4
:10576000E84E00202DE9F84F044600F0FF0810191C
:105770000D46DDE90A761FFA80FA58191FFA80F9FA
:105780004FF0000B11E0544502D3E819444685B2AE
:105790004D450FD23B4629462046CDF800B0FFF7D5
:1057A00073FF04EB570084B2761C3278A2F120001C
:1057B0005E28E8D9BDE8F88F01B5BDF80000ADF866
:1057C0000000BDF800000149088008BD0000086025
:1057D00001B5BDF80000ADF80000BDF800000149BA
:1057E000088008BDFEFF0760024803490089088061
:1057F00070470000E84E0020FEFF0760024A10805C
:10580000901C018070470000FEFF0760104810B533
:10581000016886B041F0020101600068012100F0DA
:10582000020005900320CDE90210CDE90001094CEA
:1058300069462046FBF7C2FC012211462046FBF7D1
:10584000B0FD012202212046FBF7ABFD06B010BDE2
:10585000303802400004024008B500900548018B32
:10586000C08A491E8BB2401E82B20021084600F059
:10587000A5F808BDD44F002000B58DB008230992CB
:105880000490009306916846FBF7C4FF002800D0FF
:1058900001200DB000BD00002DE9F8432A4EDDF8CF
:1058A00020900024757D0DB1054606E077680D4611
:1058B000B91A1A463B1A491E5B1E306896F814C086
:1058C000DFF88880521B871A58F82CC0F66900FB55
:1058D000015006FB00C51E487F1EBFB2D0F800C0B5
:1058E00000264CF4000CC0F800C0006800F4000072
:1058F00000901848D0F800C02CF0010CC0F800C08F
:1059000006604FF0020CC0F81CC006610764C0F8C6
:105910000C90C563591A4FF4803303EB0242491CC3
:1059200011434164016841F0010101605A0102E044
:10593000641C944202D241688907F9D5816841F01C
:1059400002018160BDE8F883D44F002048000020A8
:105950003038024000B0024010B5084B1C46587564
:10596000A1888AB2218889B220B1012801D1D982C7
:105970001A8310BDDA82198310BD0000D44F0020B5
:10598000F0B50C4F94B23D46DFF82CC02B68EA69A5
:105990002D7D7E7D5CF8255026B103FB010042433E
:1059A000AC52F0BD7E68301A401E03FB001050431D
:1059B0002C52F0BDD44F0020480000202DE9F843C0
:1059C000274EDDF820900024757D0DB1054606E0D8
:1059D00077680D46B91A1A463B1A491E5B1E306895
:1059E00096F814C0DFF87C80521B871A58F82CC038
:1059F000F66900FB015006FB00C51B487F1EBFB2C5
:105A0000066846F400060660006800F40000009096
:105A10001648066826F0010606604FF44036066018
:105A2000022646630764C563591AF30303EB024277
:105A3000491C11434164C0F83890016841F00101EC
:105A400001605A0102E0641C944202D24168890755
:105A5000F9D5816841F002018160BDE8F88300005A
:105A6000D44F0020480000203038024000B00240EF
:105A70002DE9FF5F00F034F90126734CA0F5864153
:105A80004FF4F0734FF0280947F28405423913D0E0
:105A900032044FF448714FF4C67AA8421ED1C4E9CB
:105AA0000013268166812E20A0811720E081D2205C
:105AB0002082162060824BE04FF48870C4E90030E9
:105AC000268166810820A4F80C90E08105212182BE
:105AD0008203608204214FF4907047E003258C27F5
