:020000040800F2
:1000000050040020C10100087F0D0008990C000871
:100010007D0D0008CD0200086D0F000800000000F3
:10002000000000000000000000000000830D000838
:10003000CF02000800000000810D0008850D0008B7
:10004000DB010008DB010008DB010008DB01000820
:10005000DB010008DB010008DB010008DB01000810
:10006000DB010008DB010008DB010008DB01000800
:10007000DB010008DB010008DB010008DB010008F0
:10008000DB010008DB010008DB010008DB010008E0
:10009000DB010008DB010008DB010008DB010008D0
:1000A000DB010008DB010008DB010008DB010008C0
:1000B000DB010008DB010008DB010008DB010008B0
:1000C000DB010008DB010008DB010008DB010008A0
:1000D000DB010008DB010008DB010008DB01000890
:1000E000DB010008DB010008DB010008DB01000880
:1000F000DB010008DB010008DB010008DB01000870
:10010000DB010008DB010008DB010008DB0100085F
:10011000DB010008DB010008DB010008DB0100084F
:10012000DB010008DB010008DB010008DB0100083F
:10013000DB010008DB010008DB010008DB0100082F
:10014000DB010008DB010008DB010008DB0100081F
:10015000DB010008DB010008DB010008DB0100080F
:10016000DB010008DB010008DB010008DB010008FF
:10017000DB010008DB010008DB01000800000000D3
:10018000DB010008DB010008DB010008DB010008DF
:10019000DB010008DB010008DB010008DB010008CF
:1001A000DB010008DB010008DB010008DFF80CD0F0
:1001B00000F07AF800480047ED14000850040020D1
:1001C0000648804706480047FEE7FEE7FEE7FEE7F1
:1001D000FEE7FEE7FEE7FEE7FEE7FEE7290E000882
:1001E000AD0100082DE9F05F0546002092469B46D0
:1001F00088460646814640241BE02846414647463D
:10020000224600F041F853465A46C01A914110D395
:1002100011461846224600F028F82D1A67EB01080F
:100220004F4622460120002100F01FF817EB00097D
:100230004E41201EA4F10104DFDC484631462A4627
:100240004346BDE8F09FD2B201E000F8012B491E01
:10025000FBD270470022F6E710B513460A46044663
:100260001946FFF7F0FF204610BD202A04DB203A94
:1002700000FA02F1002070479140C2F1200320FAF9
:1002800003F3194390407047202A04DB203A21FAF7
:1002900002F00021704721FA02F3D040C2F120029F
:1002A0009140084319467047064C074D06E0E06848
:1002B00040F0010394E8070098471034AC42F6D3AD
:1002C000FFF778FFDC1B0008FC1B0008FEE7704707
:1002D00072B6FEE770B5044600F0FEF80546601CF5
:1002E00002D004480078044400F0F6F8401BA04215
:1002F000FAD370BD000000202DE9F84F00224FF026
:10030000010803254FF00F0E0B6808FA02F4234092
:10031000A3426ED14E68012E05D0022E03D0112EBD
:1003200001D0122E12D186684FEA420C05FA0CF762
:10033000BE43CF6807FA0CF7374387604668A64389
:100340000C79C4F30014944034434460C6685700E9
:1003500005FA07FC8C6826EA0C06BC403443C460EE
:100360004C68022C01D0122C13D1D40800EB840469
:10037000A346D4F8209054074FEAD46A0EFA0AF63E
:1003800029EA06090E6906FA0AF646EA0906CBF8D2
:10039000206004680E7924EA0C0406F00306BE40CF
:1003A000264306604C68E4006FD53B4C266846F453
:1003B00080462660246822F0030604F480440094FA
:1003C000364C3444A446D4F808489607360F0EFA43
:1003D00006F7BC43324FB84201D100272EE0314F1F
:1003E000B84201D1012729E02F4FB84202D102279C
:1003F00024E04AE02D4FB84201D103271EE02C4FE4
:10040000B84201D1042719E02A4FB84201D105278B
:1004100014E0294FB84201D106270FE0274FB84218
:1004200001D107270AE0264FB84201D1082705E08D
:10043000244FB84201D1092700E00A27B7402743DB
:10044000CCF80878204E34684F689C43FF0300D5F1
:100450001C4334601C4E361D34684F689C43BF03F8
:1004600000D51C433460184E083634684F689C43EE
:10047000FF0200D51C433460134E0C3634684F68BD
:100480009C43BF0200D51C433460521C102AFFF469
:100490003BAFBDE8F88F0000443802400030014017
:1004A000000002400004024000080240000C02402C
:1004B000001002400014024000180240001C0240DC
:1004C0000020024000240240003C01400AB181614A
:1004D00070470904FBE7000001488068704700008E
:1004E0000000002002488168027811448160704752
:1004F000000000200B4810B5016841F40071016054
:10050000016841F480610160016841F4807101601B
:10051000032000F061F8002000F006F800F024F855
:10052000002010BD003C024070B50D4D04464FF454
:100530007A712878B1FBF0F00A490968B1FBF0F054
:1005400000F02EFB48B9102C07D200222146501E85
:1005500000F022F800206C6070BD012070BD00002A
:10056000000000200C0000200A4808B5016841F492
:1005700080410160006800F4804000900548001F41
:10058000016841F080510160006800F080500090E7
:1005900008BD000044380240F0B40E4B1B680C4606
:1005A000C3F30223C3F10705042D00D90425191D47
:1005B000072901D2002300E0DB1E012606FA05F11F
:1005C000491E214099409E40761E16403143F0BCA2
:1005D00000F0CDBC0CED00E0064900F00702086811
:1005E0004FF6FF03184040EA0220034A1043086018
:1005F000704700000CED00E00000FA052DE9F8431B
:100600001748016841F0805101600068154F00F003
:100610008050012600903E64FFF75EFF05464FF4D0
:100620007A78114C05E000BFFFF756FF401B4045AC
:100630000DD86068C003F7D57E64FFF74DFF05460F
:10064000464607E0FFF748FF401BB04202D90320AF
:10065000BDE8F88360688003F4D50020F8E7000067
:100660004038024000000E42007000402DE9F04783
:100670000E46050065D0DFF81481D8F80000F7B207
:1006800000F00F00B04207D288F80070D8F80000E0
:1006900000F00F00B04254D128683D4C810712D5BC
:1006A000400703D5206840F4E05020602878000718
:1006B00003D5206840F4604020602068A96820F0DD
:1006C000F000084320602878C0072DD030496868C2
:1006D0000839012812D0022813D0032811D0096844
:1006E000890700292DDA216821F0030101432160E7
:1006F000FFF7F2FE814641F2883A0EE0096889036D
:10070000EFE709688901ECE7FFF7E6FEA0EB0901D6
:10071000514502D90320BDE8F0872068696800F0E0
:100720000C00B0EB810FEFD1D8F80010404601F07B
:100730000F01B14207D90770006800F00F00B04206
:1007400001D00120E7E72878400705D52068E9684F
:1007500020F4E050084320602878000706D5206880
:10076000296920F4604040EAC100206000F038F8B8
:100770002168084AC1F30311515CC840064908606A
:1007800006480068FFF7D0FE0020C4E7003C0240A6
:1007900008380240C41B00080C00002004000020A0
:1007A0000448054900680968044AC1F38221515C84
:1007B000C84070470C00002008380240D41B0008D5
:1007C0000448054900680968044AC1F34231515C94
:1007D000C84070470C00002008380240D41B0008B5
:1007E000154810B5006810F00C02144813D01449D5
:1007F000042A0FD0082A0ED10F4C241F2268236828
:1008000002F03F025B0207D52068C0F38810A0FB0E
:10081000010106E0084610BD2168C1F38811A1FB63
:1008200000010023FFF7DEFC2168C1F30141491CF0
:100830004900B0FBF1F010BD083802400024F4007C
:1008400040787D012DE9F84F04006ED02078DFF864
:100850003C93C007A9F104054AD009F104000168DE
:10086000C1F38101012908D00068C0F3810002288A
:100870000AD1D9F80000400206D52868800337D590
:1008800060680028E1D033E06068B0F5803F10D0A8
:10089000B0F5A02F286810D020F480302860286898
:1008A00020F4802028606068A8B1FFF715FE064696
:1008B0000DE0286840F48030F4E740F480202860A0
:1008C000F7E700BFFFF708FE801B642873D828688D
:1008D0008003F7D50CE0FFF7FFFD064605E000BFFB
:1008E000FFF7FAFD801B6428F0D828688003F7D44E
:1008F0002078DFF89C8280074FF0000A3ED5A3489D
:10090000001D016811F00C0F08D00068C0F38100D1
:1009100002280BD1D9F80000400207D428688007CC
:1009200016D5E068012800D112E02BE1E068B8B1EB
:100930000120C8F80000FFF7CFFD064605E000BF24
:10094000FFF7CAFD801B0228C0D828688007F7D5AA
:100950002868216920F0F80040EAC10028600DE015
:10096000C8F800A0FFF7B8FD064604E0FFF7B4FDA5
:10097000801B02281FD828688007F7D4207800073A
:1009800022D5824E83486169703671B101210160C0
:10099000FFF7A2FD074604E0FFF79EFDC01B0228FB
:1009A00009D830688007F7D50EE0C0F800A0FFF73F
:1009B00093FD074605E082E0FFF78EFDC01B02288D
:1009C0007DD830688007F7D42078400768D5DFF8F5
:1009D000BCB100270BF13C0BDBF80000C0000BD4CE
:1009E000DBF8001041F08051CBF80010DBF800007C
:1009F000012700F080500090674E3068C00510D489
:100A0000306840F480703060FFF766FD009005E0CC
:100A1000FFF762FD0099401A022850D83068C005DF
:100A2000F6D55A4EA0686C3601280FD005283068DC
:100A300010D020F001003060306820F004003060F9
:100A4000A068B8B1FFF748FD00900FE0306840F0B3
:100A50000100F4E740F004003060F7E7FFF73CFDE9
:100A60000099411A41F28830814266D83068800787
:100A7000F4D50EE0FFF730FD009007E0FFF72CFD06
:100A80000099411A41F28830814256D83068800777
:100A9000F4D42FB1DBF8001021F08051CBF8001016
:100AA000A069C8B33949091D0968C1F38101022948
:100AB0004AD00228504607D0C8F8600000E03CE069
:100AC000FFF70AFD04463BE04746C8F86000FFF721
:100AD00003FD064605E000BFFFF7FEFC801B022871
:100AE0002BD828688001F7D4D4E907010843A16A0C
:100AF0002A4A490802EB0141626A41EA821108432D
:100B000094F82C1040EA0161C9F800100120386601
:100B1000FFF7E2FC044606E036E000BFFFF7DCFC2E
:100B2000001B022809D828688001F7D52CE000BFF7
:100B3000FFF7D2FC001B022802D90320BDE8F88F82
:100B400028688001F4D41FE00128F7D0D9F800000C
:100B5000E26900F48001914214D1226A00F03F0161
:100B600091420FD147F6C071626A0140914209D1AA
:100B7000A26A00F44031914204D1E16A00F0706051
:100B8000884201D00120D9E70020D7E7043802408D
:100B900000004742800E4742007000400000FFFF07
:100BA00010B5401EB0F1807F01D3012010BD4FF081
:100BB000E02460610F21601700F0D9F90020A061E6
:100BC00007202061002010BD70B5040004D094F807
:100BD0003900002510B106E0012070BD84F83850BE
:100BE000204600F023F8242084F839002068C168EA
:100BF00021F40051C160204600F024F92068016909
:100C000021F4904101612068416921F02A0141618C
:100C10002068C16841F40051C160E563202084F878
:100C2000390084F83A00002070BD000010B586B08D
:100C3000044614216846FFF70DFB144920688842DA
:100C400021D113480021026842F0100202600068BE
:100C500000F0100005900E481438026842F00102BE
:100C60000260006800F0010005904FF4C060009041
:100C70000220CDE90101032003900720049069467A
:100C80000448FFF739FB06B010BD0000001001401A
:100C90004438024000000240FEE700002DE9F04128
:100CA00086B014216846FFF7D5FA2348002401686E
:100CB00041F080010160016801F080010591016847
:100CC00041F010010160016801F010010591016817
:100CD00041F008010160016801F008010591016817
:100CE00041F0010101600068144F00F001004FF471
:100CF00060450590002229463846FFF7E7FBDFF8FC
:100D000040806E11002231464046FFF7DFFB009520
:100D10000125CDE90154694638460394FFF7ECFA02
:100D20000096CDE90154694640460394FFF7E4FA82
:100D300006B0BDE8F08100003038024000100240EB
:100D4000000C02400C4810B50A4901604FF4E13133
:100D50004160002181600C22C160C0E90412816100
:100D6000C161FFF731FF002803D0BDE81040FFF755
:100D7000AFBA10BD0010014010000020FEE7FEE7F2
:100D800070477047FFF7AEBB30B593B0302168466F
:100D9000FFF760FA14210CA8FFF75CFA2048002541
:100DA000016841F080510160006800F080501190AE
:100DB0001C48016841F4404101600068022400F4CD
:100DC000404011900120039010200490009406945C
:100DD0000820CDE90750B420CDE9090404200B9088
:100DE0006846FFF72FFD08B172B6FEE7FFF706FC75
:100DF00008B172B6FEE70CA90F2081E831004FF46C
:100E0000A0500F904FF48050109005210CA8FFF7D0
:100E10002DFC002801D072B6FEE713B030BD0000F3
:100E200040380240007000400548016841F47001FC
:100E3000016003494FF0006080390860704700008E
:100E400088ED00E02DE9F041044600680169E268A0
:100E500021F44051114301612169A068E26908430E
:100E60006169114308432168CA6849F20C639A43D7
:100E70000243CA6020684169A26921F440711143AC
:100E80004161E069192764253226B0F5004F354AE3
:100E9000354920684FF0000806D0884201D09042C2
:100EA00036D1FFF78DFC35E0884201D0904202D167
:100EB000FFF786FC01E0FFF773FC61684A18A0FBAE
:100EC000070148EB0803FFF78DF90146B0FBF5F089
:100ED0000201B1FBF5F06FF01803584301EB8000FD
:100EE00006EBC000B0FBF5F000F0F80002EB4002AA
:100EF000B1FBF5F0584301EB800006EBC000B0FBFE
:100F0000F5F000F00700216810448860BDE8F0812A
:100F1000FFF746FC61688B0F8A00A0FB0701FFF713
:100F200061F90146B0FBF5F06FF01802504301EB98
:100F3000800006EB0010B0FBF5F000F0F002B1FB12
:100F4000F5F002EB0012B1FBF5F06FF01803584317
:100F500001EB800006EB0010B0FBF5F000F00F0095
:100F6000D1E700000014014000100140FEE709072E
:100F7000090E002804DB00F1E02080F8001470471F
:100F800000F00F0000F1E02080F8141D704702E02F
:100F900008C8121F08C1002AFAD170477047002004
:100FA00001E001C1121F002AFBD1704770B506464F
:100FB00000218623EF22084600F02AF900240025AC
:100FC000304600F051FA6D1CADB2872DF8D3641C89
:100FD000A4B2F02CF3D370BD2DE9FF5F91464FEA28
:100FE000D20801EB0902521E93B20E9C421E04FB72
:100FF000092292B200F00CF9002024E003984FF689
:10100000FF7B0AFB08050E9E18E0002710E008246D
:101010002878611EC84010F0010F01D00F9800E041
:10102000584600F021FA641E002CF1DC6D1C7F1C78
:101030004745ECDBA5EB080218FB0925761EF6B246
:10104000E3D20AF1010082464845D7DBBDE8FF9FA5
:1010500070B56D4C012251032046FFF737FA01228B
:1010600091032046FFF732FA684DA415002221466D
:101070002846FFF72BFAC820FFF72CF9012221465A
:101080002846FFF723FA6420FFF724F9362000F002
:10109000ABF9A02000F068F93A2000F0A5F905208E
:1010A00000F062F9B22000F09FF90C2000F05CF92A
:1010B0000C2000F059F9002000F056F9332000F020
:1010C00053F9332000F050F9B72000F08DF93520A6
:1010D00000F04AF9BB2000F087F9372000F044F90E
:1010E000C02000F081F92C2000F03EF9C22000F071
:1010F0007BF9012000F038F9C32000F075F91220C7
:1011000000F032F9C42000F06FF9202000F02CF933
:10111000C62000F069F90F2000F026F9D02000F079
:1011200063F9A42000F020F9A12000F01DF9E020CF
:1011300000F05AF9D02000F017F9042000F014F95B
:101140000D2000F011F9112000F00EF9132000F02D
:101150000BF92B2000F008F93F2000F005F954208E
:1011600000F002F94C2000F0FFF8182000F0FCF825
:101170000D2000F0F9F80B2000F0F6F81F2000F029
:10118000F3F8232000F0F0F8E12000F02DF9D02052
:1011900000F0EAF8042000F0E7F80C2000F0E4F892
:1011A000112000F0E1F8132000F0DEF82C2000F010
:1011B000DBF83F2000F0D8F8442000F0D5F85120AB
:1011C00000F0D2F82F2000F0CFF81F2000F0CCF86C
:1011D0001F2000F0C9F8202000F0C6F8232000F0FE
:1011E000C3F8212000F000F9112000F0FDF878206C
:1011F000FFF770F8292000F0F7F8BDE870404FF6CF
:10120000FF70FFF7D3BE000000100240000C024048
:101210002DE9F04107461C4615460E462A2000F0EF
:10122000E3F82837B8B200F01FF92835A8B200F06B
:101230001BF92B2000F0D8F83436B0B200F014F9C6
:101240003434A0B200F010F9BDE8F0412C2000F0D9
:10125000CBB800002DE9F74F1648009F00248946BF
:1012600000EB021817F1070709EB040083B281B203
:10127000BAB20098FFF7CCFF08EB0400A0F580504D
:10128000002590F8006E4FF4784A4FF6FF7BF00788
:1012900001D0504600E0584600F0E6F86D1C760894
:1012A000EDB2082DF3D3641CE4B2102CDCD3BDE8FE
:1012B000FE8F0000541500082DE9F04107464FF657
:1012C000FF701646002400EA011507E007EBC40092
:1012D000294680B2FFF7BEFF641CA4B2325D002A2B
:1012E000F4D1BDE8F0812DE9FC41054642F21070D1
:1012F000B2FBF0F08DF800004FF47A70B2FBF0F022
:101300000A23B0FBF3F403FB14008DF80100642002
:10131000B2FBF0F0B0FBF3F403FB14008DF8020015
:10132000B2FBF3F0B0FBF3F403FB14008DF8030001
:10133000B2FBF3F003FB10208DF804004FF6FF70B2
:1013400000246F4600EA0116385D31463030C2B2E3
:1013500005EBC40080B2FFF77DFF641CE4B2052CEE
:10136000F2D3BDE8FC8100002DE9F047DFF8708082
:1013700005464FF4804A082400225146464640461E
:10138000FFF7A4F80122D1033046FFF79FF8154F6D
:10139000E601002231463846FFF798F84FF400790D
:1013A00014E0280601D5012200E000224946384613
:1013B000FFF78CF8012231463846FFF787F8002204
:1013C00031463846FFF782F86806050E641EE4B21F
:1013D000E7D251464046BDE8F0470122FFF776B814
:1013E00000100240000C02402DE9F047DFF8708049
:1013F00005464FF4804A082400225146464640469E
:10140000FFF764F8002221033046FFF75FF8154F1D
:10141000E601002231463846FFF758F84FF40079CC
:1014200014E0280601D5012200E000224946384692
:10143000FFF74CF8012231463846FFF747F8002203
:1014400031463846FFF742F86806050E641EE4B2DE
:10145000E7D251464046BDE8F0470122FFF736B8D3
:1014600000100240000C02402DE9F05FDFF87480AC
:1014700005464FF4804B102400225946464640460C
:10148000FFF724F80122D1033046FFF71FF8164F6B
:10149000A601002231463846FFF718F84FF4007ACB
:1014A0004FF6FF7914E0280401D5012200E0002264
:1014B00051463846FFF70AF8012231463846FFF711
:1014C00005F8002231463846FFF700F809EA4505DD
:1014D000641EE4B2E7D259464046BDE8F05F0122FF
:1014E000FEF7F4BF00100240000C02401CB5FFF7ED
:1014F00001F8FFF749FCFFF7D1FBFFF723FCFFF7EB
:10150000A7FD4FF6FF7640F29A274FF47844042562
:101510004FF47A783046FFF749FD00210AA20846C9
:10152000FFF7CAFE3A4601210020FFF7DCFECDE9B5
:101530000054074B102220210020FFF74DFD4046AC
:10154000FEF7C8FEE6E700006272696D6F6E00008C
:10155000441B000800000000000000000000000024
:101560000000000000000008080808080808000043
:1015700008080000004824241200000000000000B9
:10158000000000000000004848487E2424247E24F7
:10159000242400000000103C5252121C30505052C3
:1015A000523C1010000000222515150D2A585454E5
:1015B000522200000000000C1212120A762529198E
:1015C000916E00000006040402000000000000000C
:1015D000000000000040201010080808080808104B
:1015E000102040000002040808101010101010080D
:1015F000080402000000000008086B1C1C6B0808AF
:10160000000000000000000000101010FE1010107C
:1016100000000000000000000000000000000000CA
:101620000604040200000000000000007E0000002C
:1016300000000000000000000000000000000000AA
:1016400006060000000040202020101008080804B2
:101650000402020000000018244242424242424278
:1016600024180000000000101C10101010101010A2
:10167000107C00000000003C424242402010080460
:10168000427E00000000003C4242402018204042C0
:10169000423C000000000020303028242422FE209C
:1016A00020F800000000007E0202021E224040429C
:1016B000221C0000000000182402023A4642424266
:1016C000443800000000007E422020101008080866
:1016D000080800000000003C424242241824424214
:1016E000423C00000000001C22424242625C40403A
:1016F000241800000000000000001818000000007E
:1017000018180000000000000000000800000000A1
:101710000008080800000040201008040204081017
:10172000204000000000000000007E00007E00005D
:1017300000000000000000020408102040201008F3
:10174000040200000000003C42424620101010003D
:10175000181800000000001C225A55555555553ADE
:10176000423C00000000000808181414243C2242E7
:1017700042E700000000001F2222221E22424242B5
:10178000221F00000000007C4242010101010142D1
:10179000221C00000000001F2242424242424242FC
:1017A000221F00000000003F4212121E12120242CD
:1017B000423F00000000003F4212121E12120202BD
:1017C000020700000000003C2222010101712122D9
:1017D000221C0000000000E7424242427E42424298
:1017E00042E700000000003E080808080808080852
:1017F000083E00000000007C1010101010101010A7
:101800001010110F0000007722120A0E0A12122285
:101810002277000000000007020202020202020218
:10182000427F00000000007736363636362A2A2AF4
:101830002A6B0000000000E346464A4A52525262B8
:10184000624700000000001C2241414141414141EA
:10185000221C00000000003F424242423E020202BF
:10186000020700000000001C224141414141414D5E
:10187000321C60000000003F4242423E121222220F
:1018800042C700000000007C42420204182040428F
:10189000423E00000000007F4908080808080808C8
:1018A000081C0000000000E742424242424242421D
:1018B000423C0000000000E7424222242414141895
:1018C000080800000000006B2A2A2A2A2A3614146D
:1018D00014140000000000E74224241818182424DF
:1018E00042E70000000000772222141408080808CC
:1018F000081C00000000007E212010100804044293
:10190000423F00000078080808080808080808088E
:1019100008087800000002040404080808101020D9
:1019200020204040001E1010101010101010101039
:1019300010101E000018240000000000000000002D
:101940000000000000000000000000007E00000019
:101950000000000000060800000000000000000079
:1019600000000000000000000000001C22302C22BB
:10197000326C0000000000000302021A26424242BC
:10198000261A000000000000000000384402020295
:1019900044380000000000006040407C4242424267
:1019A00062DC0000000000000000003C42427E02B9
:1019B000423C0000000000003048083E08080808CB
:1019C000083E0000000000000000007C22221C02F3
:1019D0003C42423C000000000302023A46424242BE
:1019E00042E700000000000C0C00000E0808080888
:1019F000083E000000000030300000382020202089
:101A00002020221E0000000003020272120A0E12A1
:101A100022770000000000080E08080808080808DF
:101A2000083E0000000000000000007F92929292A9
:101A300092B70000000000000000003B4642424216
:101A400042E70000000000000000003C4242424229
:101A5000423C0000000000000000001B2642424201
:101A6000261A0207000000000000005864424242AB
:101A7000645840E000000000000000774C040404BB
:101A8000041F0000000000000000007C42023C40F7
:101A9000423E0000000000000008083E0808080858
:101AA0004830000000000000000000634242424253
:101AB00062DC000000000000000000772222141405
:101AC0000808000000000000000000DB91525A2AC4
:101AD00024240000000000000000006E24181818E4
:101AE0002476000000000000000000E742242418D3
:101AF00018080806000000000000007E22100808F8
:101B0000447E000000C02020202020201020202023
:101B10002020C00010101010101010101010101005
:101B20001010101000030404040404040804040446
:101B300004040300045A200000000000000000001C
:101B400000000000000023FC1040108001440668E3
:101B5000F0B01128166810A41124162010A02840F7
:101B600047FE00000000FFC0004000440048005055
:101B70000060005000480044002000200012000ACD
:101B80000006000208101D10F09010901010FD10BB
:101B9000109038903410501E53F090101010101008
:101BA0001010101010201020102013FEFC20102008
:101BB000102015FC18843088D04810501020105088
:101BC0005188260600000000000000000102030406
:101BD000060708090000000001020304FC1B0008BE
:101BE00000000020100000008E0F00080C1C0008F0
:101BF00010000020400400009E0F000801000000BB
:0C1C000010000000000000000024F400B0
:04000005080001AD41
:00000001FF
