:020000040800F2
:1000000098040020C10100082F1100084D100008BD
:100010002D1100081D030008B314000800000000A3
:100020000000000000000000000000003311000884
:100030001F030008000000003111000835110008FE
:10004000DB010008DB010008DB010008DB01000820
:10005000DB010008DB010008DB010008DB01000810
:10006000DB010008DB010008DB010008DB01000800
:10007000DB010008DB010008DB010008DB010008F0
:10008000DB010008DB010008DB010008DB010008E0
:10009000DB010008DB010008DB010008DB010008D0
:1000A000DB010008DB010008DB010008DB010008C0
:1000B000DB010008DB010008DB010008DB010008B0
:1000C000DB010008DB010008DB010008DB010008A0
:1000D000DB010008DB010008DB010008DB01000890
:1000E000DB010008DB010008DB010008DB01000880
:1000F000DB010008DB010008DB010008DB01000870
:10010000DB010008DB010008DB010008DB0100085F
:10011000DB010008F5110008DB010008DB01000825
:10012000DB010008DB010008DB010008DB0100083F
:10013000DB010008DB010008DB010008DB0100082F
:10014000DB010008DB010008DB010008DB0100081F
:10015000DB010008DB010008DB010008DB0100080F
:10016000DB010008DB010008DB010008DB010008FF
:10017000DB010008DB010008DB01000800000000D3
:10018000DB010008DB010008DB010008DB010008DF
:10019000DB010008DB010008DB010008DB010008CF
:1001A000DB010008DB010008DB010008DFF80CD0F0
:1001B00000F0A2F8004800478516000898040020C7
:1001C0000648804706480047FEE7FEE7FEE7FEE7F1
:1001D000FEE7FEE7FEE7FEE7FEE7FEE7D9110008CF
:1001E000AD0100082DE9F05F0546002092469B46D0
:1001F00088460646814640241BE02846414647463D
:10020000224600F069F853465A46C01A914110D36D
:1002100011461846224600F050F82D1A67EB0108E7
:100220004F4622460120002100F047F817EB000955
:100230004E41201EA4F10104DFDC484631462A4627
:100240004346BDE8F09F40EA01039B0703D009E065
:1002500008C9121F08C0042AFAD203E011F8013BB2
:1002600000F8013B521EF9D27047D2B201E000F80B
:10027000012B491EFBD270470022F6E710B513464A
:100280000A4604461946FFF7F0FF204610BD30B578
:100290000B46014600202022012409E021FA02F544
:1002A0009D4205D303FA02F5491B04FA02F52844DE
:1002B000151EA2F10102F1DC30BD202A04DB203A38
:1002C00000FA02F1002070479140C2F1200320FAA9
:1002D00003F3194390407047202A04DB203A21FAA7
:1002E00002F00021704721FA02F3D040C2F120024F
:1002F0009140084319467047064C074D06E0E068F8
:1003000040F0010394E8070098471034AC42F6D35C
:10031000FFF750FF6417000884170008FEE77047D6
:1003200072B6FEE790F83510022903D080214165AE
:1003300001207047052180F835100068016821F020
:10034000010101600020704770B5044600F0FEF81E
:100350000546601C02D004480078044400F0F6F81A
:10036000401BA042FAD370BD040000202DE9F84FD5
:1003700000224FF0010803254FF00F0E0B6808FA1A
:1003800002F42340A3426ED14E68012E05D0022E06
:1003900003D0112E01D0122E12D186684FEA420CE2
:1003A00005FA0CF7BE43CF6807FA0CF737438760AE
:1003B0004668A6430C79C4F3001494403443446067
:1003C000C668570005FA07FC8C6826EA0C06BC4094
:1003D0003443C4604C68022C01D0122C13D1D408D1
:1003E00000EB8404A346D4F8209054074FEAD46A63
:1003F0000EFA0AF629EA06090E6906FA0AF646EA2C
:100400000906CBF8206004680E7924EA0C0406F093
:100410000306BE40264306604C68E4006FD53B4CA3
:10042000266846F480462660246822F0030604F419
:1004300080440094364C3444A446D4F808489607C7
:10044000360F0EFA06F7BC43324FB84201D10027EF
:100450002EE0314FB84201D1012729E02F4FB84299
:1004600002D1022724E04AE02D4FB84201D10327F0
:100470001EE02C4FB84201D1042719E02A4FB842A0
:1004800001D1052714E0294FB84201D106270FE01A
:10049000274FB84201D107270AE0264FB84201D1C1
:1004A000082705E0244FB84201D1092700E00A27B8
:1004B000B7402743CCF80878204E34684F689C43F7
:1004C000FF0300D51C4334601C4E361D34684F6852
:1004D0009C43BF0300D51C433460184E0836346873
:1004E0004F689C43FF0200D51C433460134E0C360A
:1004F00034684F689C43BF0200D51C433460521CD3
:10050000102AFFF43BAFBDE8F88F000044380240EA
:100510000030014000000240000402400008024098
:10052000000C02400010024000140240001802407B
:10053000001C02400020024000240240003C014018
:100540000069084000D00120704700000148806821
:1005500070470000040000200248816802781144BE
:1005600081607047040000200B4810B5016841F419
:1005700000710160016841F480610160016841F42B
:1005800080710160032000F06FF8002000F006F891
:1005900000F024F8002010BD003C024070B50D4D65
:1005A00004464FF47A712878B1FBF0F00A490968E3
:1005B000B1FBF0F000F03CFB48B9102C07D2002250
:1005C0002146501E00F030F800206C6070BD012004
:1005D00070BD000004000020100000200A4808B58B
:1005E000016841F480410160006800F4804000909F
:1005F0000548001F016841F080510160006800F06B
:100600008050009008BD000044380240002809DBFB
:1006100000F01F02012191404009800000F1E0201C
:10062000C0F8001170470000F0B40E4B1B680C4678
:10063000C3F30223C3F10705042D00D90425191DB6
:10064000072901D2002300E0DB1E012606FA05F18E
:10065000491E214099409E40761E16403143F0BC11
:1006600000F038BF0CED00E0064900F00702086812
:100670004FF6FF03184040EA0220034A1043086087
:10068000704700000CED00E00000FA052DE9F8438A
:100690001748016841F0805101600068154F00F073
:1006A0008050012600903E64FFF750FF05464FF44E
:1006B0007A78114C05E000BFFFF748FF401B40452A
:1006C0000DD86068C003F7D57E64FFF73FFF05468D
:1006D000464607E0FFF73AFF401BB04202D903202D
:1006E000BDE8F88360688003F4D50020F8E70000D7
:1006F0004038024000000E42007000402DE9F047F3
:100700000E46050065D0DFF81481D8F80000F7B276
:1007100000F00F00B04207D288F80070D8F800004F
:1007200000F00F00B04254D128683D4C810712D52B
:10073000400703D5206840F4E05020602878000787
:1007400003D5206840F4604020602068A96820F04C
:10075000F000084320602878C0072DD03049686831
:100760000839012812D0022813D0032811D00968B3
:10077000890700292DDA216821F003010143216056
:10078000FFF7E4FE814641F2883A0EE009688903EA
:10079000EFE709688901ECE7FFF7D8FEA0EB090154
:1007A000514502D90320BDE8F0872068696800F050
:1007B0000C00B0EB810FEFD1D8F80010404601F0EB
:1007C0000F01B14207D90770006800F00F00B04276
:1007D00001D00120E7E72878400705D52068E968BF
:1007E00020F4E050084320602878000706D52068F0
:1007F000296920F4604040EAC100206000F038F828
:100800002168084AC1F30311515CC84006490860D9
:1008100006480068FFF7C2FE0020C4E7003C024023
:10082000083802404C170008100000200800002083
:100830000448054900680968044AC1F38221515CF3
:10084000C840704710000020083802405C170008BC
:100850000448054900680968044AC1F34231515C03
:10086000C840704710000020083802405C1700089C
:10087000154810B5006810F00C02144813D0144944
:10088000042A0FD0082A0ED10F4C241F2268236897
:1008900002F03F025B0207D52068C0F38810A0FB7E
:1008A000010106E0084610BD2168C1F38811A1FBD3
:1008B00000010023FFF796FC2168C1F30141491CA8
:1008C0004900B0FBF1F010BD083802400024F400EC
:1008D00040787D012DE9F84F04006ED02078DFF8D4
:1008E0003C93C007A9F104054AD009F1040001684E
:1008F000C1F38101012908D00068C0F381000228FA
:100900000AD1D9F80000400206D52868800337D5FF
:1009100060680028E1D033E06068B0F5803F10D017
:10092000B0F5A02F286810D020F480302860286807
:1009300020F4802028606068A8B1FFF707FE064613
:100940000DE0286840F48030F4E740F4802028600F
:10095000F7E700BFFFF7FAFD801B642873D828680B
:100960008003F7D50CE0FFF7F1FD064605E000BF78
:10097000FFF7ECFD801B6428F0D828688003F7D4CB
:100980002078DFF89C8280074FF0000A3ED5A3480C
:10099000001D016811F00C0F08D00068C0F3810041
:1009A00002280BD1D9F80000400207D4286880073C
:1009B00016D5E068012800D112E02BE1E068B8B15B
:1009C0000120C8F80000FFF7C1FD064605E000BFA2
:1009D000FFF7BCFD801B0228C0D828688007F7D528
:1009E0002868216920F0F80040EAC10028600DE085
:1009F000C8F800A0FFF7AAFD064604E0FFF7A6FD31
:100A0000801B02281FD828688007F7D420780007A9
:100A100022D5824E83486169703671B1012101602F
:100A2000FFF794FD074604E0FFF790FDC01B022886
:100A300009D830688007F7D50EE0C0F800A0FFF7AE
:100A400085FD074605E082E0FFF780FDC01B022818
:100A50007DD830688007F7D42078400768D5DFF864
:100A6000BCB100270BF13C0BDBF80000C0000BD43D
:100A7000DBF8001041F08051CBF80010DBF80000EB
:100A8000012700F080500090674E3068C00510D4F8
:100A9000306840F480703060FFF758FD009005E04A
:100AA000FFF754FD0099401A022850D83068C0055D
:100AB000F6D55A4EA0686C3601280FD0052830684C
:100AC00010D020F001003060306820F00400306069
:100AD000A068B8B1FFF73AFD00900FE0306840F031
:100AE0000100F4E740F004003060F7E7FFF72EFD67
:100AF0000099411A41F28830814266D830688007F7
:100B0000F4D50EE0FFF722FD009007E0FFF71EFD91
:100B10000099411A41F28830814256D830688007E6
:100B2000F4D42FB1DBF8001021F08051CBF8001085
:100B3000A069C8B33949091D0968C1F381010229B7
:100B40004AD00228504607D0C8F8600000E03CE0D8
:100B5000FFF7FCFC04463BE04746C8F86000FFF79F
:100B6000F5FC064605E000BFFFF7F0FC801B0228FD
:100B70002BD828688001F7D4D4E907010843A16A7B
:100B80002A4A490802EB0141626A41EA821108439C
:100B900094F82C1040EA0161C9F800100120386671
:100BA000FFF7D4FC044606E036E000BFFFF7CEFCBA
:100BB000001B022809D828688001F7D52CE000BF67
:100BC000FFF7C4FC001B022802D90320BDE8F88F00
:100BD00028688001F4D41FE00128F7D0D9F800007C
:100BE000E26900F48001914214D1226A00F03F01D1
:100BF00091420FD147F6C071626A0140914209D11A
:100C0000A26A00F44031914204D1E16A00F07060C0
:100C1000884201D00120D9E70020D7E704380240FC
:100C200000004742800E4742007000400000FFFF76
:100C300010B5401EB0F1807F01D3012010BD4FF0F0
:100C4000E02460610F21601700F044FC0020A061E7
:100C500007202061002010BD016882B00A68D243DD
:100C6000120702D40A68496800910122014902B0C2
:100C700000F034B90000002070B502680446106826
:100C8000D168536910F00F0F52D003F0010501F441
:100C900090762E435FD0C20705D0CA0503D5E26B1C
:100CA00042F00102E263420705D5DA0703D0E26BA6
:100CB00042F00202E263820705D5DA0703D0E26B55
:100CC00042F00402E263020707D501F020022A4342
:100CD00003D0E26B42F00802E263E26B002A33D0F9
:100CE000800604D5880602D5204600F09FFA2068C9
:100CF0004069E16BC0F38010090700D428B3204697
:100D000000F086FA2068416949061AD5416921F048
:100D100040014161606BA0B11B490165606BFFF749
:100D200001FB002810D0606B016DBDE870400847E2
:100D3000830610D58B060ED52046BDE8704000F026
:100D400075BA2046FFF788FF70BD2046FFF784FF85
:100D50000020E06370BD030606D50B0604D52046CF
:100D6000BDE8704000F042BB4006F3D54806F1D51F
:100D7000D168204621F04001D160202184F839104B
:100D800000F063F970BD00000112000870B50400A6
:100D900004D094F83900002510B106E0012070BDA0
:100DA00084F83850204600F023F8242084F83900D5
:100DB0002068C16821F40051C160204600F082FA29
:100DC0002068016921F4904101612068416921F0A6
:100DD0002A0141612068C16841F40051C160E563A6
:100DE000202084F8390084F83A00002070BD00000B
:100DF000F0B587B0044614216846FFF73DFA314B41
:100E000021680022304802240325994237D12E4917
:100E100010310A6842F480120A60096801F48011F6
:100E20000591016841F004010160016801F00401CD
:100E30000591016841F0080101600068012600F099
:100E40000800059098148DE851000827CDE9035754
:100E500069461E48FFF78AFA04208DE85100CDE963
:100E6000035769461A48FFF781FA002211463520D8
:100E7000FFF7DAFB3520FFF7C9FB07B0F0BD154BD4
:100E80009942FAD1104914310B6843F010030B60FA
:100E9000096801F010010591016841F0010101604C
:100EA0000068029200F0010005904FF4C060CDE9A7
:100EB00000040720CDE9035069460748FFF756FABA
:100EC000DBE70000005000403038024000080240DC
:100ED000000C0240001001400000024090F83A303F
:100EE000202B22D1F9B1F2B190F83830012B1CD06F
:100EF00081628285C2850021C163222280F83A2066
:100F000080F838100168CA6842F48072CA600168CB
:100F10004A6942F001024A610068C16841F020015B
:100F2000C160002070470120704702207047000018
:100F30002DE9F041124D13A0297800F0BBFA697831
:100F400010A000F0B7FAA9780EA000F0B3FA0025BF
:100F500020260D4FDFF8348007E0641C24B2C82C33
:100F600003DD87F83A6088F8385005490322491EA6
:100F70000648FFF7B3FF0028EFD1BDE8F08100007D
:100F80000100002025640A005800002018000020FD
:100F90002DE9F843044690F839001F4616460D46E1
:100FA000202850D1B5B1AEB194F8380001284AD00C
:100FB000012084F838004FF00008C4F83C8021205C
:100FC00084F83900FFF7C2FAA6848146E68484F8E3
:100FD000388026E00120BDE8F883E08C401EE084E4
:100FE000A0684B46B0F5805F4FF000024FF08001E3
:100FF0002046009703D000F02AFAE8B90DE000F08F
:1010000026FAC8B928882168C0F30800486020691A
:1010100008B16D1C05E0AD1C03E0216815F8010B5B
:101020004860E08C0028D8D14B4600224021204661
:10103000009700F00CFA08B10320CCE7202084F8D8
:1010400039000020C7E70220C5E77047FEE700002F
:1010500000B587B014216846FFF70EF91548002146
:10106000026842F080020260026802F0800205928B
:10107000026842F001020260026802F00102059279
:10108000026842F004020260026802F00402059263
:10109000026842F0080202600068029100F0080055
:1010A00005900820CDE9000169460348FFF75EF985
:1010B00007B000BD30380240000C02400C4810B5AB
:1010C0000A4901604FF4E1314160002181600C2246
:1010D000C160C0E904128161C161FFF757FE0028B9
:1010E00003D0BDE81040FFF71BB910BD0050004011
:1010F000180000200C4810B50A4901604FF4E13196
:101100004160002181600C22C160C0E9041281614C
:10111000C161FFF73BFE002803D0BDE81040FFF798
:10112000FFB810BD0010014058000020FEE7FEE7A8
:1011300070477047FFF710BA30B593B0302168465A
:10114000FFF79AF814210CA8FFF796F8204800251D
:10115000016841F080510160006800F080501190FA
:101160001C48016841F4404101600068022400F419
:1011700040401190012003901020049000940694A8
:101180000820CDE90750B420CDE9090404200B90D4
:101190006846FFF79FFB08B172B6FEE7FFF776FAE5
:1011A00008B172B6FEE70CA90F2081E831004FF4B8
:1011B000A0500F904FF48050109005210CA8FFF71D
:1011C0009DFA002801D072B6FEE713B030BD0000D2
:1011D00040380240007000400548016841F4700149
:1011E000016003494FF000608039086070470000DB
:1011F00088ED00E00148FFF73FBD00001800002027
:1012000010B5806B0021C185C184FFF725FD10BD9D
:101210000168CA6822F49072CA6001684A6922F0C3
:1012200001024A61202180F83A10704710B590F809
:101230003A10222901D0022010BD8168B1F5805FEB
:1012400011D00169002901681FD0496801F07F03AE
:10125000816A4A1C82620B70C18D491E0904090C07
:10126000C18518D02BE00269816A002A02685268A1
:1012700005D0D2B20A80816A491C8162ECE7C2F3D0
:1012800008020A80816A891CF7E74A68816A4B1C58
:1012900083620A70E0E70168CA6822F02002CA602F
:1012A0000168CA6822F48072CA6001684A6922F043
:1012B00001024A61202180F83A10FFF739FE002030
:1012C00010BD00002DE9F041044600680169E268A4
:1012D00021F44051114301612169A068E26908438A
:1012E0006169114308432168CA6849F20C639A4353
:1012F0000243CA6020684169A26921F44071114328
:101300004161E069192764253226B0F5004F354A5E
:10131000354920684FF0000806D0884201D090423D
:1013200036D1FFF795FA35E0884201D0904202D1DC
:10133000FFF78EFA01E0FFF77BFA61684A18A0FB1D
:10134000070148EB0803FEF74DFF0146B0FBF5F03F
:101350000201B1FBF5F06FF01803584301EB800078
:1013600006EBC000B0FBF5F000F0F80002EB400225
:10137000B1FBF5F0584301EB800006EBC000B0FB79
:10138000F5F000F00700216810448860BDE8F081A6
:10139000FFF74EFA61688B0F8A00A0FB0701FEF78A
:1013A00021FF0146B0FBF5F06FF01802504301EB4E
:1013B000800006EB0010B0FBF5F000F0F002B1FB8E
:1013C000F5F002EB0012B1FBF5F06FF01803584393
:1013D00001EB800006EB0010B0FBF5F000F00F0011
:1013E000D1E70000001401400010014090F83910CE
:1013F000212901D0022070478168B1F5805F016A20
:101400000BD04A1C0262026809785160C18C491EE7
:101410000904090CC1840ED017E009880268C1F3E1
:101420000801516001690029016A02D0491C01626A
:10143000ECE7891CFBE70168CA6822F08002CA60F9
:101440000068C16841F04001C160002070472DE98B
:10145000F041984617460E460446069D1DE0681C5E
:101460001BD02DB1FFF772F8A0EB0800A84214D9E9
:101470002068C16821F4D071C1602068416921F001
:1014800001014161202084F8390084F83A000020ED
:1014900084F838000320BDE8F0812068006836EA4F
:1014A000000004D00020B842D9D00020F3E701208A
:1014B000F9E7FEE70FB4054B10B503A9044A0298FB
:1014C00000F028F810BC5DF814FB00006916000855
:1014D000140000200907090E002804DB00F1E020B9
:1014E00080F80014704700F00F0000F1E02080F851
:1014F000141D704702E008C8121F08C1002AFAD163
:1015000070477047002001E001C1121F002AFBD183
:10151000704700002DE9FF4F89B09B460446002527
:1015200006E025280BD05A460B999047641C6D1C89
:1015300020780028F5D10DB02846BDE8F08F0027AF
:10154000B8460122474900E0074314F8013F203B19
:1015500002FA03F00842F7D120782E2819D114F8A6
:10156000010F47F004072A280ED06FF02F022078D1
:10157000A0F1300109290CD808EB880102EB4101E8
:1015800000EB0108641CF2E70A98641C50F8048B15
:101590000A9020780028CED0642808D0692806D088
:1015A00075281ED05A460B9990476D1C58E00A9931
:1015B0004FF00A0901C90A91002802DA40422D21A0
:1015C00002E0390504D52B218DF82010012103E01C
:1015D000F90704D02021F7E78A4608AE0DE0002184
:1015E000FAE70A994FF00A0901C90A91F7E7494653
:1015F000FEF74DFE303106F8011D0028F7D1ADEBA6
:10160000060000F12009780701D44FF00108C84511
:1016100002DDA8EB090000E000208046002706E07C
:1016200008A85A46C05D0B9990476D1C7F1C574512
:10163000F6DB04E030205A460B9990476D1CB8F158
:101640000001A8F10108F5DC05E016F8010B5A4687
:101650000B9990476D1CB9F10001A9F10109F4DC67
:10166000641C65E70928010008B54FF6FF738DF883
:101670000000012269460248FFF78AFC002008BDED
:10168000580000208EB0342220A16846FEF7DBFD12
:10169000FEF76AFFFFF750FDFFF7DAFCFFF70EFDDC
:1016A000FFF728FD032226492648FFF717FC2548A7
:1016B0000068416941F001014161234D6E464FF4DC
:1016C000FA7708212846FEF73BFF10B915A0FFF76F
:1016D000F1FE08212846FEF733FF90B900240DE003
:1016E00008212846FEF72CFF0028F9D13119642380
:1016F00001221448FFF74CFC641CE4B2305D002862
:10170000EED13846FEF720FEDBE70000D6F0B7C981
:10171000BFC6BCBCCEDECFDFD7AAB4AEBFDAB2E262
:10172000CAD43D3DD6F0B7C9BFC6BCBCCEDECFDF04
:10173000D7AAB4AEBFDAB2E2CAD40D0A00000000E4
:101740000100002018000020000C024000000000F2
:101750000000000001020304060708090000000061
:101760000102030484170008000000201800000094
:10177000F41400089C1700081800002080040000E2
:101780000415000800000000010000001000000027
:0C179000000000000024F4000000000035
:04000005080001AD41
:00000001FF
