:020000040800F2
:10000000C0040020C1010008171A0008CF1300081F
:10001000151A000853090008691C000800000000B8
:100020000000000000000000000000001B1A000893
:100030005509000800000000191A00081D1A0008E0
:10004000DB010008DB010008DB010008DB01000820
:10005000DB010008DB010008DB010008DB01000810
:10006000DB010008DB010008DB010008DB01000800
:10007000DB010008DB010008DB010008DB010008F0
:10008000DB010008DB010008DB010008DB010008E0
:10009000DB010008DB010008DB010008DB010008D0
:1000A000DB010008DB010008DB010008DB010008C0
:1000B000DB010008DB010008DB010008DB010008B0
:1000C000DB010008DB010008DB010008DB010008A0
:1000D000DB010008DB010008DB010008DB01000890
:1000E000DB010008DB010008DB010008DB01000880
:1000F000DB010008DB010008DB010008DB01000870
:10010000DB010008DB010008DB010008DB0100085F
:10011000DB010008DB010008DB010008DB0100084F
:10012000DB010008DB010008DB010008DB0100083F
:10013000DB010008DB010008DB010008DB0100082F
:10014000DB010008DB010008DB010008DB0100081F
:10015000DB010008DB010008DB010008DB0100080F
:10016000DB010008DB010008DB010008DB010008FF
:10017000DB010008DB010008DB010008DB010008EF
:10018000DB010008DB010008DB010008DB010008DF
:10019000DB010008DB010008DB010008DB010008CF
:1001A000DB010008DB010008DB010008DFF80CD0F0
:1001B00000F06CFB00480047F93E0008C004002036
:1001C0000648804706480047FEE7FEE7FEE7FEE7F1
:1001D000FEE7FEE7FEE7FEE7FEE7FEE7C11A0008DE
:1001E000AD0100082DE9F05F0546002092469B46D0
:1001F00088460646814640241BE02846414647463D
:10020000224600F05DFA53465A46C01A914110D377
:1002100011461846224600F044FA2D1A67EB0108F1
:100220004F4622460120002100F03BFA17EB00095F
:100230004E41201EA4F10104DFDC484631462A4627
:100240004346BDE8F09F2DE9F0410024061B2546FA
:1002500071F1000605DA01240027D0EB070067EBF7
:100260000101161E73F1000605DA0027D2EB070222
:10027000012567EB0303FFF7B5FF86460E461746D9
:100280009C46AC4204D00025D0EB050E65EB010680
:1002900024B10020D2EB000760EB030C704631461E
:1002A0003A466346BDE8F081D2B201E000F8012B86
:1002B000491EFBD270470022F6E710B513460A46E6
:1002C00004461946FFF7F0FF204610BD30B504463E
:1002D0000020034600E05B1C934203D2E05CCD5C4F
:1002E000401BF8D030BD2DE9FE4F804681EA030067
:1002F000C00F0C46009021F0004123F00045B8EB00
:100300000200A94105D24046214690461C460B46B4
:10031000024623F00040104347D0270DC7F30A00E0
:10032000C3F30A510290401A019040286BDAC3F3DC
:10033000130040F4801B0098924620B10023D2EBBA
:10034000030A63EB0B0B01985946C0F1400250467B
:1003500000F0A7F906460D4650465946019A00F0AE
:10036000BFF910EB08006141002487EA115284EACA
:10037000E7731A4340D0009A62B3019A012A4FEA08
:10038000075215DC001B61EB02014FF0004202EA4C
:100390000752CDE90042001C41F5801132462B4640
:1003A00000F0F6F903B0BDE8F08F40462146F9E7CA
:1003B000001B61EB0201001C41F5801300185B413A
:1003C0002018A2F5001747EB030140EAD570B619D3
:1003D0006D4111E06D084FEA360645EAC0754FEAF7
:1003E0000752001B61EB0201001C41F58011490816
:1003F0004FEA30000019514132462B4603B0BDE8A8
:10040000F04F00F0B6B90098012240000023D0EB75
:10041000020263EBE073009821464FEAE074B8EB08
:10042000000061EB0401E9E783F000435BE781F042
:10043000004158E72DE9FE4F81EA030404F000442F
:1004400021F0004100944FF0000B23F0004350EAEC
:1004500001045ED052EA03045BD0C3F30A54C1F333
:100460000A552C44A4F2F3340194A0FB0254C1F3C6
:10047000130141F48011C3F3130343F4801301FB10
:10048000024400FB034E840A970A44EA815447EA77
:100490008357A4FB076802958D0A05FB07854FEA81
:1004A000932C04FB0C542705029D4FEA065847EA9B
:1004B0001637B5EB08056EEB070C870E920E47EA70
:1004C000811742EA8312A7FB0201B6EB0B0164EB32
:1004D00000042B0D43EA0C335E1844EB1C50DA4643
:1004E0005146E7FB0201C5F313044FEA0B3343EA1D
:1004F00014534FEA0432019C43EA0603A4F10C04AE
:100500000294009CCDE900B400F042F903B0BDE8CC
:10051000F08F00200146F9E72DE9F04D81EA030450
:1005200004F0004B21F0004514464FF0000A23F080
:10053000004150EA050220D054EA01021DD0C5F363
:100540000A570246C5F31303C1F31300C1F30A5659
:1005500040F4801543F48013A7EB0608101BD64621
:1005600008F2FD3873EB050002D308F1010801E041
:1005700092185B41B8F1000F03DA00200146BDE894
:10058000F08D00204FF48011064684460EE0171BC4
:1005900073EB050705D3121B63EB050306434CEA17
:1005A000010C49084FEA300092185B4150EA0107FC
:1005B000EDD152EA030012D082EA040083EA050179
:1005C000084305D0101BAB4106D20122002306E0F0
:1005D00000224FF0004302E06FF0010253101AEBCB
:1005E00006004CEB085110EB0A0041EB0B01BDE893
:1005F000F04D00F0BEB80EB5C10F80EAE0700844BF
:10060000CA07002140F233438DE80E000A460B462C
:1006100000F0BEF803B000BD00F0004230F0004032
:100620000AD0C10D01F56071C0F3160042EA015114
:10063000C20840071143704700200146704701F08F
:10064000004330B421F0004150EA010206D00A0D07
:10065000A2F56072C1F31301002A02DC30BC002055
:100660007047440F44EAC104C100E01830BC00EBFD
:10067000C25000F047B830B50B460146002020229A
:10068000012409E021FA02F59D4205D303FA02F59F
:10069000491B04FA02F52844151EA2F10102F1DCFF
:1006A00030BD202A04DB203A00FA02F10020704716
:1006B0009140C2F1200320FA03F3194390407047A0
:1006C000202A04DB203A21FA02F00021704721FAA7
:1006D00002F3D040C2F1200291400843194670470E
:1006E000202A06DBCB17203A41FA02F043EAE073F6
:1006F00006E041FA02F3D040C2F1200291400843E3
:10070000194670470029A8BF7047401C490008BF20
:1007100020F00100704710B4B0FA80FC00FA0CF031
:1007200050EA010404BF10BC704749B1CCF1200469
:1007300021FA04F411FA0CF118BF012121430843F6
:10074000A3EB0C01CB1D4FEA00614FEA102042BF22
:10075000002010BC704700EBC35010440029A4BF18
:1007600010BC7047401C490008BF20F0010010BCBD
:10077000704710B5141E73F1000408DA401C41F1F3
:10078000000192185B411A4301D120F0010010BD15
:100790002DE9F04D92469B4611B1B1FA81F202E08B
:1007A000B0FA80F220329046FFF77BFF04460F46F6
:1007B00040EA0A0041EA0B0153465A46084313D067
:1007C000114653EA010019D0C8F140025046FFF724
:1007D00077FF05460E46504659464246FFF761FFF1
:1007E000084305D0012004E020463946BDE8F08DDD
:1007F0000020054346EAE0762C4337430A98630518
:10080000E40AA0EB08000022FD0A44EA47540A303B
:1008100002D500200146E9E7010510196941DDE92B
:10082000084500196941BDE8F04DA2E7C1F30A523D
:10083000C1F3130140F2FF3341F480119A4202DA0E
:1008400000200146704740F233439A42A2F23342FD
:1008500002DC5242FFF734BFFFF723BF30B5041E5E
:1008600071F1000404DB4FF00044404264EB0101ED
:10087000141E73F1000405DB1C464FF00043524286
:1008800063EB0403994208BF904230BD064C074D0C
:1008900006E0E06840F0010394E807009847103450
:1008A000AC42F6D3FFF786FC285D0008485D0008DF
:1008B0002DE9F04D00231A461B1A8A4103DB002064
:1008C0000146BDE8F08DC1F30A52C1F3130141F4B2
:1008D00080154FF0000BD10702D100186D41521E58
:1008E0000027044640F2FF11384601EB620A3E46FB
:1008F0008046024600204FF48011FFF7E1FEC21946
:100900007141BB1846EB0100B4EB030C75EB000C16
:1009100004D3E41A65EB000517460E46241908F1C6
:1009200001006D4180463428E3DDF91946EB0600ED
:10093000091BA84103D24FF0FF32134601E0002209
:1009400013461BEB070046EB0A51BDE8F04DFFF7DD
:1009500010BFFEE7704772B6FEE700002DE9F84FC2
:1009600000224FF0010803254FF00F0E0B6808FA24
:1009700002F42340A3426ED14E68012E05D0022E10
:1009800003D0112E01D0122E12D186684FEA420CEC
:1009900005FA0CF7BE43CF6807FA0CF737438760B8
:1009A0004668A6430C79C4F3001494403443446071
:1009B000C668570005FA07FC8C6826EA0C06BC409E
:1009C0003443C4604C68022C01D0122C13D1D408DB
:1009D00000EB8404A346D4F8209054074FEAD46A6D
:1009E0000EFA0AF629EA06090E6906FA0AF646EA36
:1009F0000906CBF8206004680E7924EA0C0406F09E
:100A00000306BE40264306604C68E4006FD53B4CAD
:100A1000266846F480462660246822F0030604F423
:100A200080440094364C3444A446D4F808489607D1
:100A3000360F0EFA06F7BC43324FB84201D10027F9
:100A40002EE0314FB84201D1012729E02F4FB842A3
:100A500002D1022724E04AE02D4FB84201D10327FA
:100A60001EE02C4FB84201D1042719E02A4FB842AA
:100A700001D1052714E0294FB84201D106270FE024
:100A8000274FB84201D107270AE0264FB84201D1CB
:100A9000082705E0244FB84201D1092700E00A27C2
:100AA000B7402743CCF80878204E34684F689C4301
:100AB000FF0300D51C4334601C4E361D34684F685C
:100AC0009C43BF0300D51C433460184E083634687D
:100AD0004F689C43FF0200D51C433460134E0C3614
:100AE00034684F689C43BF0200D51C433460521CDD
:100AF000102AFFF43BAFBDE8F88F000044380240F5
:100B000000300140000002400004024000080240A2
:100B1000000C024000100240001402400018024085
:100B2000001C02400020024000240240003C014022
:100B30000AB1816170470904FBE700000148806841
:100B40007047000058000020024881680278114474
:100B500081607047580000200B4810B5016841F4CF
:100B600000710160016841F480610160016841F435
:100B700080710160032000F061F8002000F006F8A9
:100B800000F024F8002010BD003C024070B50D4D6F
:100B900004464FF47A712878B1FBF0F00A490968ED
:100BA000B1FBF0F000F03AFB48B9102C07D200225C
:100BB0002146501E00F022F800206C6070BD01201C
:100BC00070BD000058000020640000200A4808B5ED
:100BD000016841F480410160006800F480400090A9
:100BE0000548001F016841F080510160006800F075
:100BF0008050009008BD000044380240F0B40E4B15
:100C00001B680C46C3F30223C3F10705042D00D96A
:100C10000425191D072901D2002300E0DB1E01264F
:100C200006FA05F1491E214099409E40761E164065
:100C30003143F0BC01F042B80CED00E0064900F091
:100C4000070208684FF6FF03184040EA0220034AF3
:100C500010430860704700000CED00E00000FA054A
:100C60002DE9F8431748016841F0805101600068A0
:100C7000154F00F08050012600903E64FFF75EFFA4
:100C800005464FF47A78114C05E000BFFFF756FF98
:100C9000401B40450DD86068C003F7D57E64FFF760
:100CA0004DFF0546464607E0FFF748FF401BB042B0
:100CB00002D90320BDE8F88360688003F4D50020E2
:100CC000F8E700004038024000000E42007000408B
:100CD0002DE9F0470E46050065D0DFF81481D8F8FD
:100CE0000000F7B200F00F00B04207D288F80070A1
:100CF000D8F8000000F00F00B04254D128683D4CF5
:100D0000810712D5400703D5206840F4E0502060E9
:100D10002878000703D5206840F4604020602068F0
:100D2000A96820F0F000084320602878C0072DD083
:100D3000304968680839012812D0022813D00328E6
:100D400011D00968890700292DDA216821F00301F3
:100D500001432160FFF7F2FE814641F2883A0EE03E
:100D600009688903EFE709688901ECE7FFF7E6FE08
:100D7000A0EB0901514502D90320BDE8F0872068A6
:100D8000696800F00C00B0EB810FEFD1D8F80010CB
:100D9000404601F00F01B14207D90770006800F02A
:100DA0000F00B04201D00120E7E72878400705D5C1
:100DB0002068E96820F4E0500843206028780007A4
:100DC00006D52068296920F4604040EAC10020600F
:100DD00000F038F82168084AC1F30311515CC8409B
:100DE0000649086006480068FFF7D0FE0020C4E707
:100DF000003C024008380240CE5B0008640000203E
:100E00005C0000200448054900680968044AC1F3F1
:100E10008221515CC84070476400002008380240BD
:100E2000DE5B00080448054900680968044AC1F30C
:100E30004231515CC84070476400002008380240CD
:100E4000DE5B0008154810B5006810F00C0214486D
:100E500013D01449042A0FD0082A0ED10F4C241F96
:100E60002268236802F03F025B0207D52068C0F3C6
:100E70008810A0FB010106E0084610BD2168C1F3FF
:100E80008811A1FB00010023FFF7ACF92168C1F331
:100E90000141491C4900B0FBF1F010BD0838024087
:100EA0000024F40040787D012DE9F84F04006ED055
:100EB0002078DFF83C93C007A9F104054AD009F176
:100EC00004000168C1F38101012908D00068C0F362
:100ED000810002280AD1D9F80000400206D528680E
:100EE000800337D560680028E1D033E06068B0F552
:100EF000803F10D0B0F5A02F286810D020F48030AB
:100F00002860286820F4802028606068A8B1FFF776
:100F100015FE06460DE0286840F48030F4E740F402
:100F200080202860F7E700BFFFF708FE801B6428D9
:100F300073D828688003F7D50CE0FFF7FFFD06465D
:100F400005E000BFFFF7FAFD801B6428F0D8286891
:100F50008003F7D42078DFF89C8280074FF0000AE6
:100F60003ED5A348001D016811F00C0F08D00068A1
:100F7000C0F3810002280BD1D9F80000400207D449
:100F80002868800716D5E068012800D112E02BE11F
:100F9000E068B8B10120C8F80000FFF7CFFD0646B1
:100FA00005E000BFFFF7CAFD801B0228C0D82868F3
:100FB0008007F7D52868216920F0F80040EAC100D1
:100FC00028600DE0C8F800A0FFF7B8FD064604E071
:100FD000FFF7B4FD801B02281FD828688007F7D4CC
:100FE0002078000722D5824E83486169703671B13E
:100FF00001210160FFF7A2FD074604E0FFF79EFD17
:10100000C01B022809D830688007F7D50EE0C0F869
:1010100000A0FFF793FD074605E082E0FFF78EFD95
:10102000C01B02287DD830688007F7D4207840079D
:1010300068D5DFF8BCB100270BF13C0BDBF80000F2
:10104000C0000BD4DBF8001041F08051CBF8001049
:10105000DBF80000012700F080500090674E3068F8
:10106000C00510D4306840F480703060FFF766FD32
:10107000009005E0FFF762FD0099401A022850D861
:101080003068C005F6D55A4EA0686C3601280FD0DE
:101090000528306810D020F001003060306820F062
:1010A00004003060A068B8B1FFF748FD00900FE081
:1010B000306840F00100F4E740F004003060F7E7EA
:1010C000FFF73CFD0099411A41F28830814266D811
:1010D00030688007F4D50EE0FFF730FD009007E0A0
:1010E000FFF72CFD0099411A41F28830814256D811
:1010F00030688007F4D42FB1DBF8001021F0805164
:10110000CBF80010A069C8B33949091D0968C1F3BB
:10111000810102294AD00228504607D0C8F8600051
:1011200000E03CE0FFF70AFD04463BE04746C8F814
:101130006000FFF703FD064605E000BFFFF7FEFC79
:10114000801B02282BD828688001F7D4D4E9070136
:101150000843A16A2A4A490802EB0141626A41EA4E
:101160008211084394F82C1040EA0161C9F800107C
:1011700001203866FFF7E2FC044606E036E000BFD7
:10118000FFF7DCFC001B022809D828688001F7D58E
:101190002CE000BFFFF7D2FC001B022802D903207D
:1011A000BDE8F88F28688001F4D41FE00128F7D04B
:1011B000D9F80000E26900F48001914214D1226A5A
:1011C00000F03F0191420FD147F6C071626A0140C1
:1011D000914209D1A26A00F44031914204D1E16AFE
:1011E00000F07060884201D00120D9E70020D7E7E5
:1011F0000438024000004742800E47420070004021
:101200000000FFFF4FF0E0210428086903D020F020
:1012100004000861704740F00400FAE710B5401E72
:10122000B0F1807F01D3012010BD4FF0E024606158
:101230000F21601700F042FD0020A061072020610F
:10124000002010BD70B5040004D094F839000025CA
:1012500010B106E0012070BD84F83850204600F03F
:1012600023F8242084F839002068C16821F4005153
:10127000C160204600F032FC2068016921F49041F1
:1012800001612068416921F02A0141612068C1683B
:1012900041F40051C160E563202084F8390084F8EE
:1012A0003A00002070BD000010B586B0044614213D
:1012B0006846FFF700F814492068884221D1134896
:1012C0000021026842F010020260006800F0100085
:1012D00005900E481438026842F00102026000686E
:1012E00000F0010005904FF4C06000900220CDE9AD
:1012F0000101032003900720049069460448FFF78A
:101300002DFB06B010BD0000001001404438024023
:10131000000002402DE9F843044690F839001F46CA
:1013200016460D46202850D1B5B1AEB194F838001C
:1013300001284AD0012084F838004FF00008C4F892
:101340003C80212084F83900FFF7F8FBA684814611
:10135000E68484F8388026E00120BDE8F883E08C3C
:10136000401EE084A0684B46B0F5805F4FF000025D
:101370004FF080012046009703D000F043FCE8B90D
:101380000DE000F03FFCC8B928882168C0F30800D0
:101390004860206908B16D1C05E0AD1C03E02168C0
:1013A00015F8010B4860E08C0028D8D14B4600228C
:1013B00040212046009700F025FC08B10320CCE72F
:1013C000202084F839000020C7E70220C5E7FEE7A7
:1013D00070B50E4C0025C4F894520D48016821F4F4
:1013E00040210160016841F4802101600948C0F892
:1013F000A452022004F5257401F00EFE01202060A5
:10140000022001F009FE256070BD0000000042428C
:10141000001402400080424203490120C1F89402B6
:101420000249C1F8A40270470000424200804242D3
:1014300070B50E4C0025C4F894520D48016821F493
:1014400040210160016841F48021016009480126C2
:10145000C0F8A462022004F5257401F0DDFD2660C9
:10146000022001F0D9FD256070BD0000000042425D
:1014700000140240008042422DE9F047824617489E
:101480000024016821F44021016001680160144ECC
:10149000DFF85090254627464FF00108C6F89472B1
:1014A000022001F0B9FDC6F894826006040ED9F856
:1014B000240208B1641CE4B2012001F0ADFD6D1CF2
:1014C000EDB2082DEAD3BAF1000F04D0FFF780FF88
:1014D0002046BDE8F087FFF7ABFFF9E700140240B4
:1014E00000004242008042422DE9F047064615487E
:1014F000016821F440210160016841F4802101600C
:10150000114D0027C5F89472DFF840803C464FF03B
:101510000109F109C8F8A4127006060E022001F0B4
:101520007BFDC5F89492022001F076FDC5F8947217
:10153000022001F071FD641CE4B2082CE9D3BDE87F
:10154000F087000000140240000042420080424246
:1015500070B50F48016821F440210160016841F431
:10156000802101600B4C0120C4F8A4020A4DC5F88B
:101570009402042004F5297405F5257501F04CFD4D
:1015800000262660042001F047FD2E6070BD00009B
:1015900000140240008042420000424270B50F48F1
:1015A000016821F440210160016841F4802101605B
:1015B0000B4C0020C4F894020A4DC5F8A402042084
:1015C00004F5257405F5297501F026FD012020603C
:1015D0002860BDE87040042001F01EBD00140240E8
:1015E00000004242008042422DE9F04112480024AE
:1015F000016821F440210160016801600F4D01265E
:10160000C5F8A462304601F007FD0D4FC7F894629B
:10161000012001F001FD08E0641CE4B2FA2C04D9B9
:10162000FFF7BCFF0120BDE8F081D5F824020028B7
:10163000F2D1C7F89402F6E700140240008042425B
:10164000000042427CB514460D4606466B46062213
:101650003B21682000F0BAF800280BD1BDF800103B
:1016600049BA3180BDF8021049BA2980BDF804108A
:1016700049BA21807CBD7CB514460D4606466B46B2
:1016800006224321682000F0A1F800280BD1BDF804
:10169000001049BA3180BDF8021049BA2980BDF85E
:1016A000041049BA21807CBD08B56B460222412155
:1016B000682000F08BF8BDF8000040BA00B2FEF7D9
:1016C0009AFF9FED0D1B53EC112BFEF725FF9FEDAD
:1016D0000C1B53EC112BFEF706FEFEF7B0FF00EEDD
:1016E000100ADFED090A20EE200ABDEEC00A10EE56
:1016F000100A00B208BD0000000000000040754064
:10170000A4703D0AD74342400000C84210B5FFF71D
:1017100083FE80216B2000F0C8F8642001F06EFC8D
:1017200000216B2000F0C1F8032000F08AF80020AF
:1017300000F082F8322000F0A1F80021382000F0FB
:10174000B4F800216A2000F0B0F80021232000F056
:10175000ACF88021372000F0A8F8752000F018F8C8
:101760000446014609A000F081FA682C01D001204E
:1017700010BD01216B2000F098F800216C2000F0D2
:1017800094F8322000F07AF8002010BD25640A0099
:1017900010B50446FFF7DCFED020FFF7A5FEFFF7EB
:1017A00023FF2046FFF7A0FEFFF71EFFFFF7D0FE46
:1017B000D120FFF799FEFFF717FF0020FFF75CFE2F
:1017C0000446FFF7EBFE204610BD00002DE9F04176
:1017D0001D4614460F460646FFF7BAFE7006000E79
:1017E000FFF782FEFFF700FF20B1FFF7D7FE0120D1
:1017F000BDE8F0813846FFF777FEFFF7F5FEFFF70B
:10180000A7FE012000EB4600C0B2FFF76DFEFFF718
:10181000EBFE09E0012C0DD05FF00100FFF72CFE7C
:10182000641E05F8010BE4B2002CF3D1FFF7B6FEFD
:101830000020DDE70020F1E7C006010E1C2000F0CB
:1018400034B8C006010E1B2000F02FB8BC2801D30D
:10185000012110E0622801D302210CE02A2801D3E3
:10186000032108E0142801D3042104E00A2801D34D
:10187000052100E006211A2000F017B810B5044633
:101880004FF47A70844201D9044602E0042C00D25D
:101890000424B0FBF4F0401EC1B2192000F005F89A
:1018A0006008BDE81040FFF7D1BF70B50C46054693
:1018B000FFF74EFED020FFF717FEFFF795FE50B959
:1018C0002846FFF711FEFFF78FFE2046FFF70CFEBC
:1018D000FFF78AFE18B1FFF761FE012070BDFFF728
:1018E0005DFE002070BD2DE9F0411E4615460F46F5
:1018F0000446FFF72DFE6006000EFFF7F5FDFFF72B
:1019000073FE60B93846FFF7EFFDFFF76DFE002468
:101910000CE0305DFFF7E8FDFFF766FE20B1FFF752
:101920003DFE0120BDE8F081641CE4B2AC42F0D37E
:10193000FFF734FE0020F5E72DE9F04186B01421D1
:101940006846FEF7B8FC2248016841F010010160CA
:10195000016801F010010591016841F0200101606A
:10196000016801F020010591016841F080010160EA
:10197000016801F080010591016841F001010160F9
:101980000068144F00F00100059000222021384625
:10199000FFF7CEF8DFF840807E1500223146404642
:1019A000FFF7C6F801242020CDE90004032569468D
:1019B0003846CDE90245FEF7D1FFCDE9006469461E
:1019C0004046CDE90245FEF7C9FF06B0BDE8F0810B
:1019D0003038024000100240001402400C4810B59C
:1019E0000A4901604FF4E1314160002181600C221D
:1019F000C160C0E904128161C161FFF723FC0028C6
:101A000003D0BDE81040FEF7A6BF10BD0010014096
:101A100080000020FEE7FEE770477047FFF794B8AC
:101A200030B593B030216846FEF745FC14210CA870
:101A3000FEF741FC20480025016841F0805101601B
:101A4000006800F0805011901C48016841F440414A
:101A500001600068022400F44040119001200390CE
:101A600010200490009406940820CDE90750B4207B
:101A7000CDE9090404200B906846FFF715FA08B178
:101A800072B6FEE7FFF7ECF808B172B6FEE70CA9F4
:101A90000F2081E831004FF4A0500F904FF4805098
:101AA000109005210CA8FFF713F9002801D072B699
:101AB000FEE713B030BD0000403802400070004027
:101AC0000548016841F47001016003494FF000606E
:101AD000803908607047000088ED00E02DE9F04192
:101AE000044600680169E26821F440511143016134
:101AF0002169A068E26908436169114308432168CC
:101B0000CA6849F20C639A430243CA60206841697B
:101B1000A26921F4407111434161E06919276425EC
:101B20003226B0F5004F354A354920684FF000089D
:101B300006D0884201D0904236D1FFF773F935E0E4
:101B4000884201D0904202D1FFF76CF901E0FFF723
:101B500059F961684A18A0FB070148EB0803FEF732
:101B600041FB0146B0FBF5F00201B1FBF5F06FF06F
:101B70001803584301EB800006EBC000B0FBF5F002
:101B800000F0F80002EB4002B1FBF5F0584301EB26
:101B9000800006EBC000B0FBF5F000F00700216804
:101BA00010448860BDE8F081FFF72CF961688B0F65
:101BB0008A00A0FB0701FEF715FB0146B0FBF5F01C
:101BC0006FF01802504301EB800006EB0010B0FBF1
:101BD000F5F000F0F002B1FBF5F002EB0012B1FB02
:101BE000F5F06FF01803584301EB800006EB00108E
:101BF000B0FBF5F000F00F00D1E700000014014049
:101C0000001001402DE9F041984617460E46044663
:101C1000069D1DE0681C1BD02DB1FEF78FFFA0EBC9
:101C20000800A84214D92068C16821F4D071C160AD
:101C30002068416921F001014161202084F83900C8
:101C400084F83A00002084F838000320BDE8F081D1
:101C50002068006836EA000004D00020B842D9D0DD
:101C60000020F3E70120F9E7FEE700000FB4054B81
:101C700010B503A9044A029800F0CEFD10BC5DF82F
:101C800014FB0000D53900086800002003B4019857
:101C90004100009850EAC12018BF04204A0D18BF27
:101CA00040F0010040F2FF72B2EB515F08BF40F01C
:101CB0000200012808BF052002B070470907090E7D
:101CC000002804DB00F1E02080F80014704700F0E9
:101CD0000F0000F1E02080F8141D704700000000A4
:101CE00070B5C1482DED020B2DED0E8B82B0119D0C
:101CF00025F000449FEDBEDB9FEDBFEB84423EDB51
:101D0000A4F140511098A1F17F6108430FD0BC4865
:101D1000844202DC28D1109830B39DED100B02B044
:101D2000BDEC0E8B02B0BDE8704000F069BC9DEDCB
:101D3000100B53EC1D2B51EC100BFEF77BFB9DEDB4
:101D4000100B41EC180B53EC1E2B51EC100BFEF753
:101D500071FB53EC182BFEF7C6FA41EC100B02B0E6
:101D6000BDEC0E8B02B070BD012000F08DFC02B006
:101D7000BDEC0E8B02B0BDE8704000F055BCA14830
:101D80009FEDA18B844256DA9DED100BB4F1795F83
:101D90000ADA51EC100BFFF779FF042808BF00F0B6
:101DA00053FC9DED100BDAE753EC102B51EC100BAC
:101DB000FEF740FB41EC190B95480621B0EE490AAD
:101DC000F0EE690A784400F09FFB53EC192B51ECBC
:101DD000100BFEF72FFB41EC1A0B8E48B0EE490AB0
:101DE000F0EE690A0421784400F08EFB53EC192BC5
:101DF00051EC100BFEF71EFB53EC182BFEF773FA99
:101E000041EC100B51EC1A0B53EC102BFEF784FB3A
:101E1000CDE900019DED000B53EC102B9DED100B57
:101E200051EC100BFEF706FB9DED101B53EC112B34
:101E3000FEF759FAD2E09DED100B51EC100B01F0BA
:101E4000BDFD53EC182BFEF7F2FA9FED730BCDE9B5
:101E5000000153EC102B9DED000B51EC100BFEF725
:101E6000E9FA41EC190B6E480621B0EE490AF0EE92
:101E7000690A784400F048FB53EC192B51EC100B25
:101E8000FEF7D8FA41EC1B0B6648B0EE490AF0EEBB
:101E9000690A0421784400F037FB53EC192B51EC0C
:101EA000100BFEF7C7FA53EC182BFEF71CFA41ECA7
:101EB0001C0B51EC190B03F02FF841EC180B5A488E
:101EC0009FED5BABA04222DC53EC1C2B51EC1B0BB7
:101ED000FEF722FBCDE900019DED000B51EC180B44
:101EE00053EC102BFEF7A6FA53EC182BFEF7FBF978
:101EF00053EC1A2BFEF79EFA53EC1D2BFEF794FAC7
:101F000053EC1E2BFEF793FA41EC100B5FE08DEDC6
:101F1000008B002000909DED000B51EC180B53EC52
:101F2000102BFEF7E0F99DED000B41EC1E0B53EC7E
:101F3000102B51EC100BFEF77DFA53EC192BFEF72A
:101F400076FA53EC1E2BFEF7E7FA41EC190B53EC33
:101F50001C2B51EC1B0BFEF7DFFA41EC1B0B53EC77
:101F60001A2B51EC190BFEF765FA53EC1D2BFEF7FB
:101F70005EFA41EC190B53EC1A2B51EC180BFEF7DF
:101F800059FA53EC1B2BFEF755FA53EC192BFEF7BD
:101F90004BFA9DED000B41EC180B53EC1A2B51EC56
:101FA000100BFEF747FA9FED249B53EC192BFEF71D
:101FB0003EFA41EC100B51EC180B53EC102BFEF7D2
:101FC00033FA53EC192BFEF732FA41EC100B002DCB
:101FD0003FF7C5AE51EC100B81F0004141EC100B06
:101FE000BDE60000000000000000F03F000000001F
:101FF000075C143326A6913C182D4454FB21F93F6D
:102000000000F07F0000E03F000000000000F03F13
:10201000203E00002E3E0000000000000000E03FD7
:10202000723D0000803D00003333EF3F00000000B0
:102030000000000000000040182D4454FB21E93F3F
:1020400070B59B482DED020B2DED068B079D25F0FD
:102050000044A04218DC9748844202DC0AD106986A
:1020600040B19DED060BBDEC068B02B0BDE87040A3
:1020700000F0C6BA002DCCBF9FED8F0B9FED900BEB
:10208000BDEC068B02B070BD8F48A04215DD8F48B5
:10209000A042D8BF4FF0FF3458DD9DED060B51EC48
:1020A000100BFFF7F3FD042808BF00F0CDFA9DEDFB
:1020B000060BBDEC068B02B070BD9DED060B51EC1E
:1020C000100B01F07BFCCDE9060181489FED828B6E
:1020D000A0423CDD8248A0421FDD00249FED82AB80
:1020E0009DED060B53EC1A2B51EC100BFEF7FBF891
:1020F0009DED060B41EC190B53EC1A2B51EC100B18
:10210000FEF798F953EC182BFEF78EF953EC192BC8
:10211000FEF702FACDE9060149E09DED060B012428
:1021200053EC182B51EC100BFEF7DDF89DED060B70
:1021300041EC190B53EC182B51EC100BFEF774F912
:1021400053EC192BFEF7E8F9CDE906012FE06848BA
:10215000A0421FDD02249FED689B9DED060B53EC12
:10216000192B51EC100BFEF765F953EC182BFEF709
:10217000BAF89DED060B41EC180B53EC192B51EC02
:10218000100BFEF751F953EC182BFEF7C5F9CDE90A
:1021900006010CE09DED060B032453EC102B9FED84
:1021A000580B51EC100BFEF7B7F9CDE906019DED88
:1021B000060B53EC102B51EC100BFEF73BF941ECE6
:1021C000180B53EC182BFEF735F941EC190B4E4860
:1021D0000621B0EE490AF0EE690A784400F094F95D
:1021E00053EC182B51EC100BFEF724F941EC180BB3
:1021F0004648B0EE490AF0EE690A0521784400F03D
:1022000083F953EC192B51EC100BFEF713F941EC49
:10221000100B51EC180B53EC102B002C0EDAFEF7C0
:1022200062F89DED061B53EC112BFEF703F99DEDB3
:10223000061B53EC112BFEF7FAF835E0FEF753F8C6
:102240009DED061B53EC112BFEF7F4F841EC100B3F
:102250002F48784400EBC40090ED001B51EC100BAC
:1022600053EC112BFEF7E0F89DED061B53EC112B00
:10227000FEF7DAF841EC100B2648784400EBC40076
:1022800090ED001B51EC100B53EC112BFEF7CFF827
:1022900041EC100B002DA2BFBDEC068B02B070BD4F
:1022A00051EC100B81F0004141EC100B01E70000F4
:1022B000000010440000F07F182D4454FB21F93F2A
:1022C000182D4454FB21F9BF0000DC3F0000203EE4
:1022D0000000F33F00000000000000000000F03F9D
:1022E0000000E63F00000000000000000000004089
:1022F0000080034000000000000000000000F83FE4
:10230000000000000000F0BFC23A0000783A000070
:10231000023A0000BA39000070B56B4E2DED040B87
:102320002DED028B82B0DDF81CC0DDE905235C4297
:102330002CF000411C4341EAD474049D22F000407B
:10234000B44205D86C422C4340EAD474B4420BD951
:102350009DED061B9DED040B02B0BDEC028B04B09D
:10236000BDE8704000F056B9ACF14054A4F17F6470
:102370001C430BD0022404EAAC7444EAD274054333
:102380009FED538B9FED542B07D015E09DED040B73
:1023900051EC100B00F020FE42E0002C11BF012C8C
:1023A0009DED040B02B0BDEC028B04BF04B070BD08
:1023B000022C38D0032C3BD00B439FED491B9FEDE3
:1023C0004A0B0AD0B14218D1B04209D121F0804164
:1023D00020F08040079105900FE0002A15DA10E008
:1023E000434B7B44002C08BF93ED000B0DD0012C18
:1023F00010D0022C17D0032C1AD0B0421DD1002AC5
:1024000003DAB0EE410AF0EE610A02B0BDEC028BD5
:1024100004B070BD93ED000B51EC100B81F0004146
:1024200041EC100BF1E7B0EE480AF0EE680AECE779
:10243000B0EE420AF0EE620AE7E7401A00153C28C7
:10244000C8BF8DED000B19DCBCF1000FBEBF10F151
:102450003C0F9FED290B8DED000B0FDB9DED060B67
:1024600053EC102B9DED040B51EC100BFEF754F8C0
:1024700001F0A4FA00F0B0FDCDE90001002C08BF86
:102480009DED000BC1D0012C10D0022C9FED1C0B38
:1024900053EC102B9DED000B51EC100B0DD0FDF704
:1024A000C3FF53EC182BFDF7BFFFB9E7019880F08D
:1024B000004001909DED000BA7E7FDF7B5FF53EC41
:1024C000182BFDF7B4FFABE70000F07F0000000021
:1024D000182D4454FB210940182D4454FB2109C0F8
:1024E000182D4454FB21F9BF182D4454FB21F93F0A
:1024F000EA380000000000000000000000000000BA
:10250000075C143326A6A13C70B504462DED028B62
:102510004D1E00EBC500B0EE408AF0EE608A90EDF3
:10252000000B35F0060017D053EC182B51EC100BB4
:10253000FDF780FF41EC100B6D1E04EBC50090ED24
:10254000001B51EC100B53EC112BFDF7CCFE41ECB2
:10255000100B35F00600E7D1022D36D0042D1CD02B
:10256000062D1CBFBDEC028B70BD53EC182B51EC3B
:10257000100BFDF75FFF94ED0A1B53EC112BFDF7D9
:10258000B2FE53EC182BFDF755FF94ED081B53ECEE
:10259000112BFDF7A8FE41EC100B53EC182B51EC5E
:1025A000100BFDF747FF94ED061B53EC112BFDF7C5
:1025B0009AFE53EC182BFDF73DFF94ED040B53EC02
:1025C000102BFDF790FE41EC100B53EC182B51EC47
:1025D000100BFDF72FFF94ED021B53EC112BFDF7B1
:1025E00082FE53EC182BFDF725FF94ED001B53ECF6
:1025F000112BFDF778FEBDEC028B41EC100B70BD8A
:1026000010B553EC102B51EC100BFDF76CFE41ECA8
:10261000100B10BD10B553EC112B51EC100BFDF746
:1026200062FE41EC100B10BD9FED050B10B553EC95
:10263000102B51EC100BFDF76FFF41EC100B10BD90
:1026400000000000000000009FED050B10B553ECEA
:10265000102B51EC100BFDF7EDFE41EC100B10BDF3
:10266000000000000000001002E008C8121F08C1AE
:10267000002AFAD170477047002001E001C1121F03
:10268000002AFBD170470000014908607047000034
:102690006C0000202DE9FF5F82B00021DDE90430ED
:1026A000020DDDF840B0034318D044F61050A2F2FA
:1026B000FF3242431514119801281FD0A5EB0B00DF
:1026C000401C5FEA000A4FF000064E4FDFF83891D9
:1026D000B046504615D5CAF1000413E01198012404
:1026E0004AA3012801D16FEA0B010298119AC0E9AF
:1026F0000031C0E9024206B0BDE8F09FCBF1000016
:10270000DFE704460021404A491842EB0450CDE976
:10271000001012E0E00707D032463B4640464946EB
:10272000FDF788FE8046894632463B4610461946EC
:10273000FDF780FE06460F466410002CEAD1DDE965
:102740000401DDE90023BAF1000F06DAFDF772FE9D
:1027500042464B46FDF76EFE05E0FDF7DDFE4246C4
:102760004B46FDF7D9FE04460E460022284BFEF7E5
:1027700075F803D84FF0FF30014607E00022254BE3
:1027800020463146FDF7AFFDFEF750F8102409E072
:10279000002C0ADB0A220023FDF724FD039B3032C4
:1027A0001A55641E50EA0102F2D1641C039AC4F166
:1027B00011031444119A012A03D0012208430DD1B8
:1027C0000AE0084304D000204FF0110B119072E78B
:1027D000A3EB0B056D1E0DE05B4504DD4FF0000221
:1027E00005F1010504E003DA4FF00002A5F101054F
:1027F000002AECD002981199C0E90231C0E90045E5
:1028000079E70000000014400000F03F30000000B5
:102810000000F0430000E03F2DE9FF4F95B09B46DC
:102820008946064600250FE2252877D10024274651
:10283000F84A0121059400E0044316F8013F203BCB
:1028400001FA03F01042F7D130782A2811D06FF046
:102850002F033078A0F13002092A16D8059A44F0E7
:10286000020402EB820203EB42021044761C059044
:10287000EFE759F8042B0592002A03DA504244F49A
:102880000054059044F00204761C30782E2816D1AE
:1028900016F8010F44F004042A280DD06FF02F021F
:1028A0003078A0F13003092B09D807EB870302EB3E
:1028B0004303C718761CF3E759F8047B761C30787D
:1028C0006C280FD006DC4C2817D068280DD06A2859
:1028D00014D104E0742810D07A280FD10DE044F40C
:1028E00000140AE044F4801401E044F440147278C7
:1028F000824202D104F58014761C761C307866285A
:102900000BD013DC582877D009DC002875D0452877
:10291000F6D04628F4D047281AD19DE118E0632864
:1029200035D0642879D0652812D195E1702873D00C
:1029300008DC6728F1D069286FD06E280DD06F2889
:1029400006D1B5E073282CD0752875D0782874D0BE
:102950005A46179990476D1C75E1C4F3025002283E
:1029600009D003280DD0D9F8001004280DD00D602F
:1029700009F1040967E1D9F80010EA17C1E900522A
:10298000F6E7D9F800100D80F2E70D70F0E719F8BE
:10299000041B8DF8001000208DF80100EA4601208C
:1029A00003E059F804AB4FF0FF3061074FF000012E
:1029B00002D40DE008F101018846B9420FDA8045E2
:1029C000F8DB1AF808100029F4D108E008F1010139
:1029D00088468142FADB1AF808100029F6D10598DA
:1029E0005B46A0EB080721463846179A00F094FA98
:1029F000284400EB080507E04DE029E10DE01AF856
:102A0000010B5A4617999047B8F10108F7D25B4677
:102A100021463846179A13E142E00A220092C4F395
:102A200002524FF0000A022A08D059F804CB032AB8
:102A30004FEAEC710AD00DE029E02AE009F1070124
:102A400021F00702F2E802C1914609E00FFA8CFC7E
:102A50004FEAEC71042A03D14FFA8CFC4FEAEC7177
:102A6000002907DA0A460021DCF1000C61EB0201C3
:102A70002D2202E0220504D52B228DF8042001220C
:102A800003E0E20701D02022F7E7904659E00A214F
:102A900002E010220DE010214FF0000A00910BE03F
:102AA00010224FF0000A44F004040827009203E0CB
:102AB00008224FF0000A0092C4F30252022A05D005
:102AC00059F804CB0021032A08D009E009F10701D5
:102AD00021F00702F2E802C1914605E01FFA8CFCE2
:102AE000042A01D10CF0FF0C4FF00008220728D572
:102AF000702806D0009B83F0100353EA0A0305D028
:102B00000EE040228DF80420012208E05CEA010278
:102B100006D030228DF804208DF805000222904660
:102B2000009B83F0080353EA0A030AD15CEA01021E
:102B300001D1620705D530228DF804204FF001083D
:102B40007F1E582804D034A003900EA802900DE0F8
:102B500036A0F9E753466046009AFDF743FB8446EA
:102B60000398825C0298401E029002705CEA0100A9
:102B7000F0D1029806A9081A00F1200A600702D5D0
:102B800024F4803400E00127574502DDA7EB0A005A
:102B900000E0002000EB0A01009005984144401A33
:102BA0000590E00306D45B462146179A059800F08D
:102BB000B3F90544002706E001A85A46C05D1799FD
:102BC00090476D1C7F1C4745F6DBE0030CD55B4648
:102BD0002146179A059800F09FF9054404E030203B
:102BE0005A46179990476D1C0099481E009000297D
:102BF000F5DC08E0029802995A460078491C0291D7
:102C0000179990476D1CBAF10001AAF1010AF1DC95
:102C100065E10000092801003031323334353637A0
:102C20003839616263646566000000003031323318
:102C300034353637383941424344454600000000B8
:102C400000F058F90544761C307800287FF4ECAD8C
:102C500019B02846BDE8F08F620700D4062709F1B5
:102C6000070222F0070CFCE80223E14603F00048CB
:102C70005FEA080C02D00FF2702C0DE05FEA045CF2
:102C800002D50FF2682C07E05FEAC47C02D00FF295
:102C9000602C01E0AFF2700C4FF0FF3823F00043DE
:102CA000CDF850C065280CD006DC452809D0462850
:102CB0001DD047283DD13DE0662818D067287ED139
:102CC00038E00021112F01DB112000E0781CCDE954
:102CD000000106A90EA8FFF7DDFCDDE90F010E9A41
:102CE00003910021009207F1010A04914DE04FF099
:102CF00000400097CDE9011006A90EA8FFF7CAFC15
:102D0000DDE90F0203920E9B11990022DDF80CA061
:102D10000093049211B9791C00EB010AB7EB0A0089
:102D200004D4C0F1FF3007F1010A0490AAEB0700B8
:102D3000019044E0012F00DA01270021112F01DD6D
:102D4000112000E03846CDE9000106A90EA8FFF7E2
:102D5000A1FCDDE90F010E9A03910021049100927C
:102D6000BA4621070CD40399514500DA8A46BAF1D4
:102D7000010F05DD009AAAF10101515C302908D04C
:102D8000B84202DA10F1040F06DA0121CDE9011090
:102D900015E0AAF10101E9E7002805DC04990144E6
:102DA0000491AAEB000102E0411C514500DD8A4676
:102DB0000499401A401C01904FF0004002902007F7
:102DC00004D40198504501DBCDF8048000208DF833
:102DD0004F0002980DF14F07B0F1004F25D02B2086
:102DE0000E9002984FF0020800280CDA4042029040
:102DF0002D200E9007E00A210298FDF73CFC3031AF
:102E0000029007F8011DB8F10001A8F10108F2DCF9
:102E100002980028EFD1791E0E980870307800F0E3
:102E2000200040F0450007F8020D12A8C01B00F179
:102E300007081498007800B1012000EB0A010198FE
:102E400001EBE07105984144401A401E0590E003F3
:102E500006D45B462146179A059800F05DF80544B4
:102E60001498007818B15A46179990476D1CE003E2
:102E700024D55B462146179A059800F04DF8054485
:102E80001CE00498002807DBDDE90301884203DD2C
:102E90000098405C179901E0179930205A469047F6
:102EA000049805F10105401C04900198401E019012
:102EB00004D12E205A46179990476D1CBAF1000193
:102EC000AAF1010ADDDC05E017F8010B5A46179953
:102ED00090476D1CB8F10001A8F10108F4DC5B46D5
:102EE0002146179A0598ABE62D0000002B00000044
:102EF000200000002DE9F041044600251E4617463B
:102F0000880404D405E039462020B0476D1C641EB7
:102F1000F9D52846BDE8F0812DE9F04104460025A9
:102F20001E469046C80301D5302700E020278804BC
:102F300004D505E041463846B0476D1C641EF9D5FE
:102F40002846BDE8F0810000FEB506460D46002487
:102F5000684600F04DFD00229FED1B1A6B460121D3
:102F600056F8227055F82200381A00D5404200EE7B
:102F7000100A03EB8200B8EEC00AD0ED000A20EE82
:102F8000010AF5EEC00AF1EE10FA0DD0C0EE201ADB
:102F9000B7EE000A0D4F31EEC00AB0EEC00A10EED7
:102FA000100AB84207DC09E010EE100A084F384456
:102FB000084FB84202D301FA02F00443521C032A1C
:102FC000CEDB2046FEBD000000008037295C0F3EAE
:102FD000666666C19A99D90010B541EC100BFFF7EF
:102FE0002FF851EC100B10BD10B504460420FEF76D
:102FF00009F90148046010BD3800002070B505468D
:1030000000244FF47A7603E0304600F005F8641CA3
:10301000AC42F9D370BD000070B54FF0E02400223F
:1030200065690949A36909684843A1699942FCD0C7
:1030300002D2A3EB010302E0A5EB010633441A44DC
:103040000B468242F1D370BD3800002008B560B154
:1030500020208DF8000028208DF8010030208DF808
:10306000020038208DF8030004E0A3220421684602
:10307000FDF71AF96A46042140F69E2001F0B2FEDF
:1030800001F070FB08BD00003EB5044602208DF83B
:103090000000CA208DF80100E3208DF8020009200D
:1030A0008DF803006A460421682001F09BFEA320EE
:1030B0008DF80000610609D5C0218DF80110C821E6
:1030C0008DF80210C2218DF8031005E08DF8010083
:1030D0008DF802008DF8030014F4C07F09D0C421DC
:1030E0008DF80410CC218DF80510C6218DF806103E
:1030F00005E08DF804008DF805008DF806008DF8C8
:1031000008008DF807008DF809006A460A2140F68C
:10311000A72001F067FEA0074FF0D80503D02020BC
:103120008DF8000001E08DF800506A46012140F65C
:10313000B62001F057FEA00601D5012000E00020D6
:1031400000F08EF814F4C07F1ED0E0050AD5B2203E
:103150008DF800008B208DF80100B6208DF802005C
:103160009B2009E0B0208DF8000080208DF8010040
:10317000B4208DF8020090208DF803006A460421E7
:1031800040F6A22001F02EFEE1074FF40B6022D0A2
:10319000F8218DF800106A46012101F023FEFA2182
:1031A000072000F03BFB072000F006FB012000F0A9
:1031B00023FB642000F0E2FB4FF4FA7000F0EEFB1A
:1031C000C821254800F0C0FA282000F0D5FA0A20CE
:1031D00000F0E2FA05E08DF800506A46012101F0A6
:1031E00001FEA00703D5D9208DF8000001E08DF87D
:1031F00000506A46012140F23D7001F0F3FD600786
:1032000001D5012000E0002000F048F8E00601D5DB
:10321000012000E00020FFF719FF104D44F00800E6
:10322000688101F09FFA0020A873600601D506208E
:10323000A87314F4C07F02D0A87B801DA87314F07B
:10324000140F02D0A87B1030A873A00702D0A87B6F
:10325000001DA87300203EBD09E3CA0270000020D3
:103260000EB54FF4976310B106A107C901E008A29B
:1032700007CA8DE807006A460921184601F0B2FD29
:103280000EBD0000B8AAB38DB4980D355D000000E6
:10329000B8AAAAAAB088C3C5C700000008B560B123
:1032A000C0208DF80000C2208DF80100C4208DF8E8
:1032B0000200C6208DF8030004E08B22042168463A
:1032C000FCF7F2FF6A46042140F6982001F08AFDDF
:1032D00001F048FA08BD0000C8234FF4806202499B
:1032E00040F6F63001F020B9D84F00082DE9FF4F25
:1032F00089B01746DDE9165200244D4E88468146B6
:103300002C80A246B07B694601F0BAF94FF0FF3B32
:1033100018B158460DB0BDE8F08F708910F0140F49
:103320003ED0009909BA21F0FF029DF803100A432C
:103330003A6001999DF8073009BA21F0FF0119435D
:103340007960029B9DF80B401BBA23F0FF032343D7
:10335000BB60039C121424BA24F0FF0C9DF80F40AC
:1033600009144CEA040C1024C7F80CC01B144FEAD3
:103370002C4712FB02F211FB012113FB03F217FB96
:1033800007221144A1F17061B1F1007F04D901F06D
:10339000E9F9A5F800A0BCE7298841F480712980EB
:1033A0004206694611D50A19A41D13885BBAA8F80C
:1033B000003053885BBAA8F80230928852BAA8F855
:1033C00004202A8842F008022A8010F4C07F11D01D
:1033D0000A19A41D13885BBAA9F8003053885BBA98
:1033E000A9F80230928852BAA9F804202A8842F03B
:1033F00070022A80800716D00C44E07800F0C005E7
:1034000000F03F016078C00706D0C80801F007014E
:103410003268491C02B190476078000703D5716893
:1034200009B1A80988470C9800F0E0FD002071E779
:10343000700000202DE9FF41044603A800F024FF9E
:10344000BDF80C00410CC3032F48028902F00300B1
:10345000550754F8200000D54042C2F3C105960636
:1034600054F8255000D56D42C2F38116D20554F8A8
:10347000264000D56442A0FB0367C21702FB03721B
:1034800000FB0120820042EA9670A5FB0367EA1761
:1034900002FB037205FB0122950045EA9672A4FB2C
:1034A0000367E51705FB037304FB01318B0043EA57
:1034B0009671030E8DF80030030C8DF80130030A6D
:1034C0008DF802308DF80300100E8DF80400100CFA
:1034D0008DF80500100A8DF80600080E8DF808001A
:1034E000080C8DF80900080A8DF80A008DF80720ED
:1034F0008DF80B106A460C214FF4257001F072FC18
:1035000004B0BDE8F08100007000002030B5044632
:1035100013A285B007CA8DE807004FF0FF35C82C0D
:1035200016D8C820B0FBF4F1491E080A8DF80C002B
:103530008DF80D1003AA022140F2162001F052FC72
:1035400030B96A460C2140F6C12001F04BFC10B1A5
:10355000284605B030BD054884810020F9E7000009
:10356000FEF2ABC4AAF1DFDFBBAFDFDF70000020EB
:10357000F8B53049098901F0030250F822404A07A2
:1035800000D56442C1F3C1028B0650F8222000D559
:103590005242C1F3811350F82330C80500D55B4275
:1035A000254984FB0140850045EA947082FB014275
:1035B000A40F44EA820483FB0121950F45EA8105AB
:1035C000010E8DF80010010C8DF80110010A8DF824
:1035D00002108DF803006A4604214FF4747001F064
:1035E00001FC4FF0FF3688B9200E8DF80000200C4A
:1035F0008DF80100200A8DF802008DF803406A461C
:1036000004214FF4757001F0EDFB08B13046F8BDB0
:10361000280E8DF80000280C8DF80100280A8DF87E
:1036200002008DF803506A4604214FF4767001F0D1
:10363000D9FBF8BD7000002009E3CA022DE9FF4163
:1036400004463CA004F00303006802903AA000681E
:1036500003903AA006683AA0056802A8C15C8DF8FC
:103660000010C4F3C101425C8DF80120C4F3811243
:10367000805C8DF8020003A8C35C8DF80430415CC7
:103680008DF80510805C8DF806006A46032140F233
:10369000264001F0A7FB4FF0FF37E0BB01AA032152
:1036A00040F22A4001F09EFBA8BBCDE9006560070F
:1036B0000BD59DF8000040F001008DF800009DF84A
:1036C000040040F001008DF80400A0060BD59DF821
:1036D000010040F001008DF801009DF8050040F068
:1036E00001008DF80500E0050BD59DF8020040F0C3
:1036F00001008DF802009DF8060040F001008DF8F1
:1037000006006A4603214FF4886001F06BFB10B994
:1037100001AA032100E004E040F2314001F062FB25
:1037200018B1384604B0BDE8F08106480481002095
:10373000F8E700004CCD6C000CC92C003656760022
:1037400026466600700000204FF47A7290FBF2F07B
:1037500008B54843010E8DF80010010C8DF80110DA
:10376000010A8DF802108DF803006A4604214FF417
:10377000AE7001F037FB08BD0521B0FBF1F008B5D4
:10378000010A8DF800108DF801006A4602214FF4FD
:10379000AD7001F027FB08BD0521B0FBF1F008B5C5
:1037A000010A8DF800108DF801006A4602214FF4DD
:1037B000AC7001F017FB08BD08B500218DF80010B2
:1037C000C10702D030218DF80010810705D59DF882
:1037D000001041F00C018DF80010400705D59DF850
:1037E000000040F003008DF800006A4601214FF40C
:1037F000A47001F0F7FA08BD08B560B1042800D93B
:103800000420401E8DF800006A46012140F24F104E
:1038100001F0E8FA08BD0120F3E7000070B50446A6
:103820002DED028B82B040074FF0FF357ED0B1F511
:10383000C86F7BD800EE101AB8EE400ADFED460ADA
:1038400001A880EE208A00F001FD9DF80400022806
:1038500006D0042810D0082835D0102874D13EE0B6
:103860009FED3E0A28EE000ABCEEC00A10EE100AD8
:103870009FED3B0A82B20AE09FED3A0A28EE000A69
:10388000BCEEC00A10EE100A9FED370A82B228EE95
:10389000000A6E46BCEEC00A10EE100A81B2100A91
:1038A0008DF800008DF80120080A8DF802008DF8CF
:1038B0000310E00726D0324602214FF4EA7001F0EF
:1038C00091FA98BB17E09FED290A28EE000ABCEE9A
:1038D000C00A10EE100A9FED260A82B2D7E79FEDCC
:1038E000250A28EE000ABCEEC00A10EE100A9FED71
:1038F000220A82B2CBE7B21C02214FF4927001F08F
:1039000071FA98B9A0070DD56A4602214FF4EC7000
:1039100001F068FA50B9B21C02214FF4947001F022
:1039200061FA18B9600714D56A4600E00CE002217C
:103930004FF4EE7001F056FA30B9B21C02214FF488
:10394000967001F04FFA20B1284602B0BDEC028B10
:1039500070BD0020F9E700000000484300008046E9
:1039600000004046000000460000C04500008045C1
:1039700000004045000000450000C0440521B0FBA8
:10398000F1F008B5010A8DF800108DF801006A46C3
:1039900002214FF4EF7001F025FA08BD0521B0FBBC
:1039A000F1F008B5010A8DF800108DF801006A46A3
:1039B00002214FF4ED7001F015FA08BD82B0CDE997
:1039C000000121F0004001909DED000B02B051EC90
:1039D000100B704738B504468DF800000223012211
:1039E00069460248FDF796FC204638BD800000205D
:1039F0001FB50446274802AB042240680D21007819
:103A0000FDF7E4FE10B1072004B010BD9DF80810CA
:103A10001C2000EAD1029DF80B10DFED1F0AC1F354
:103A200001131A438DF800209DF80920C1F381038A
:103A300000EAD2021A438DF801209DF80A2001F015
:103A4000030100EAD20008439FED141A9FED140A07
:103A50008DF8020000216A46505C002804EB8100CA
:103A600002D080ED001A09E0C0ED000A0CE000BFB2
:103A7000D0ED001A61EE801AC0ED001A535C5B1E97
:103A800013F0FF035354F3D1491CC9B20329E3D304
:103A90000020B9E700000020000000007B14AE3ECB
:103AA0001D5A843F2DE9FE4F05460120C14E8DF879
:103AB00000004FF000088DF8018030680C46174672
:103AC000817C70686B4602220078FDF70CFF4FF096
:103AD000FF3A00287AD1C820FFF790FA8DF80080CD
:103AE00030686B460122C17B70680078FDF7FBFEF1
:103AF0000028EFD130686B46012241797068007868
:103B0000FDF7F1FE0028E5D130686B460122817C8B
:103B100070680078FDF7E7FE0028DBD130686B465F
:103B20000122C17D70680078FDF7DDFE0028D1D14B
:103B300030686B460122017970680078FDF7D3FE8A
:103B40000028C7D14FF00C098DF8009030686B4603
:103B50000122017970680078FDF7C5FE002835D193
:103B60000F20FFF74BFAB06A6B460122407A8DF8BE
:103B700000003068817870680078FDF7B4FE002896
:103B800024D1B06A6B460122007A8DF800003068BB
:103B9000417870680078FDF7A6FE002873D1B06AFE
:103BA000807A0FB140F0E0008DF8000030686B467D
:103BB0000122817970680078FDF795FE002862D1B6
:103BC0002FB1B06AC07A40F0E00001E04AE018206E
:103BD0008DF8000030686B460122C179706800786A
:103BE000FDF781FEF0BB17B1C820FFF707FA4020B0
:103BF0008DF8000030686B4601220179706800780A
:103C0000FDF771FE70BB78208DF8000030686B46C0
:103C10000122417970680078FDF765FE10BB322003
:103C2000FFF7ECF98DF80080306847466B46417924
:103C3000706801220078FDF756FE98B93168706807
:103C4000B046897A00786B460222FDF7BFFD48B97D
:103C5000BDF80000AF6040BAB0FBF9F06F60C6B2CB
:103C60002F6000E00FE0A76067602760002739E061
:103C7000D8F80010D8F804006B46C97A00780C22F6
:103C8000FDF7A4FD10B15046BDE8FE8FBDF8000061
:103C9000236840BA02B2BDF80200BDF804101A440D
:103CA000226040BA626800B21044606049BAA068FD
:103CB00009B20844A060BDF806002B6840BA02B201
:103CC000BDF808001A4440BA01B2BDF80A002A60E3
:103CD0006A6840BA11446960A96800B208447F1C50
:103CE000FFB2A860B742C3D328688322C117090472
:103CF00041EA104100040023FCF7A5FA32460023F4
:103D0000FCF7A1FA286068688322C117090441EA18
:103D1000104100040023FCF796FA32460023FCF71A
:103D200092FA6860A8688322C117090441EA104129
:103D300000040023FCF787FA32460023FCF783FADD
:103D4000A86020684FF40065C117090441EA1041DA
:103D500000042A460023FCF776FA32460023FCF7DB
:103D600072FA206060682A46C117090441EA1041CE
:103D700000040023FCF767FA32460023FCF763FADD
:103D80006060A0682A46C117090441EA1041000496
:103D90000023FCF758FA32460023FCF754FAA060DF
:103DA000002802DDA0F5803001E000F58030A06041
:103DB000002069E700000020F8B506462E480D46B1
:103DC000002440686B46032200780D21FDF7FEFCBD
:103DD00008B10720F8BD9DF80000002200F01F0088
:103DE0008DF800009DF801009FED241A00F01F00DF
:103DF0008DF801009DF802006B4600F01F008DF861
:103E00000200012156F8220055F82270C01B00D58F
:103E1000404200EE100A985CB8EEC00A60EE010A5B
:103E2000D0B1B3EE090ADFED161A01E020EE210A47
:103E3000C0B2401E10F0FF009854F7D1C0EE801AB7
:103E4000B7EE000A0F4F31EEC00AB0EEC00A10EE16
:103E5000100AB84207DC09E010EE900A0A4F384415
:103E6000B0F1D97F02D901FA02F00443521C032AAF
:103E7000C8DB2046F8BD00000000002000008037AD
:103E800054E3853F295C0F3E0000E0BE00B50246CA
:103E900000F00DF80346D01C00F009F843EAC00317
:103EA000901D00F004F843EA801080B200BD90F944
:103EB0000010002902DD4FF00000704702DA4FF0D9
:103EC0000400704790F90110002902DD4FF0010055
:103ED000704702DA4FF00500704790F902000028A1
:103EE00002DD4FF00200704702DA4FF00600704723
:103EF0004FF00700704700001FB5FCF72DFEFDF7DF
:103F00008FFDFDF719FDFDF769FD27A0FDF7AEFE5A
:103F1000B420FFF769F800BFFDF7F8FB0028FBD1DC
:103F20004FF4FA7400F040F930B123A0FDF79EFE83
:103F30002046FFF763F8F5E724A0FDF797FE274A30
:103F4000111F081F00F07EF80028F8D1DFF88C80E0
:103F5000A8F11808D8F81800FCF75EFB06460F46D3
:103F6000D8F81400FCF758FB04460D46D8F81000AA
:103F7000FCF752FB8DE8F00041EC100B18A053EC5D
:103F8000102BFDF773FEFDF78FFB08F10402A8F874
:103F90000C00911E881EFDF755FB08F10A02911EC8
:103FA000881EFDF768FBCAE74D5055363035302086
:103FB000544553540D0A00004D50553630353020CD
:103FC0004572726F722121210D0A00004D50553645
:103FD000303530204F4B0D0A000000005400002007
:103FE00025662C25662C25660A0000007047000017
:103FF0002DE9F041124C20F00101002594F8240035
:1040000010B10020BDE8F081A07A4FF0FF3668B112
:104010000840277C2074884200D0354641B10120F9
:1040200000F04EFF00F09EFB38B127743046E9E700
:10403000207D00B1012000F043FF2846E2E70000A8
:104040000000002070B50D462DED0C8B8EB006469D
:104050000CA902A81446F7EE00BACDE900010BAB9B
:1040600003AA09A907A8FFF741F920B101200EB062
:10407000BDEC0C8B70BDBDF80800C0057ED59DED74
:10408000030AF8EEC00A9FED450AB0EE00CA60EEE2
:10409000809ADDED040AF8EEE00A69EE8CCA20EEA3
:1040A000808ADDED050AF8EEE00A60EE808ADDED3B
:1040B000060AF8EEE00A20EE809AB8EE000A28EE32
:1040C00000BA2BEE090A0CEEA80A10EE100AFCF753
:1040D000A3FA41EC100BFDF703FE9FED31AB51EC61
:1040E000100B53EC1A2BFCF7A5F9FCF7A8FA2BEEF2
:1040F000080A28EE8CDA30600DEE680A30EE2B0AE2
:1041000010EE100AFCF788FA2DEE090A41EC1B0BA1
:104110000CEE880A10EE100AFCF77EFA41EC100B48
:10412000B0EE4B1AF0EE6B1AFEF7F6F853EC1A2BC2
:1041300051EC100BFCF77EF9FCF781FA29EEA90A85
:10414000286008EE080A08EEE80A09EE490A10EEAF
:10415000100AFCF761FA28EE280A41EC1B0B09EE65
:10416000890A20EE0C0A10EE100AFCF755FA41EC11
:10417000100BB0EE4B1AF0EE6B1A00E00CE0FEF7FD
:10418000CBF853EC1A2B51EC100BFCF753F9FCF75E
:1041900056FA206000206AE7022068E700008030BD
:1041A0006666666666A64C4010B5FDF735F900F008
:1041B000F7F888BB782000F0B9FD10F0FF0F01D0B0
:1041C000012010BD7820FFF713FF10F0FF0F01D082
:1041D000022010BD642000F069FD10F0FF0F01D037
:1041E000032010BDFFF778F810F0FF0F01D0042076
:1041F00010BD1548FFF74AFEFFF720FA10F0FF0F39
:1042000001D0052010BD40F27310FEF73DFF10F005
:10421000FF0F02D0062010BD14E06420FFF776F9EE
:1042200010F0FF0F01D00720F5E700F005FE08B100
:104230000820F0E7012000F05FFC10F0FF0F01D034
:104240000920E8E70020E6E72C0000200D494A7A23
:1042500042B1012A08D0022A0FD0032A0FD04FF012
:10426000FF307047022200E004220270C97C11B1C5
:104270001106C90D0170002070470822F5E71022D1
:10428000F3E70000000000200F494A7A42B1012AFA
:1042900009D0022A11D0032A12D04FF0FF30704704
:1042A0004FF4804201E041F69C720280C97C11B15A
:1042B000C2F34E010180002070474FF48052F4E7B2
:1042C0004FF40062F1E70000000000200B49097A7A
:1042D00039B1012907D002290AD003290BD00021C6
:1042E00003E0FA2101E04FF4FA71018000207047E9
:1042F0004FF47A71F9E74FF4FA61F6E70000002015
:104300000D49097A41B1012909D002290DD00329AB
:104310000ED04FF0FF3070479FED080A01E09FED8F
:10432000080A80ED000A002070479FED060AF8E7B2
:104330009FED050AF5E700000000002000000343A0
:104340000000834233330342333383410C49C97A3B
:10435000072913D2DFE801F01204060A0C0E100040
:10436000BC2100E062210180002070472A21FAE789
:104370001421F8E70A21F6E70521F4E70021F2E726
:1043800000000020054991F8242012B14FF0FF30C1
:104390007047C9890180002070470000000000209C
:1043A0002DE9FC414C4C80208DF8000020686B46C4
:1043B0000122817C60680078FDF795FA4FF0FF37A5
:1043C000002832D16420FEF719FE00258DF8005038
:1043D00020686B460122817C60680078FDF783FAD3
:1043E000002870D120686B460622817D60680078C5
:1043F000FDF7ECF9002866D19DF805009DF8031043
:10440000C007400F01F0010140EA41019DF80100A1
:104410004FF0010600F00100014309D0012905D049
:10442000022915D02DA0FDF721FC4CE0E67410E028
:1044300020686B460122C17860680078FDF7C6F9F4
:1044400040BB9DF8000010F00F0020D0042822D0BF
:10445000E574FF2004F80A0F4FF6FF7104F8020C10
:1044600004F8010C6070A180A0712072A6702676FD
:104470006576E572A572E56025616561A576E576EC
:10448000A5834FF4FA6000F073FB18B907E01D48EC
:10449000FDF7ECFB17E01CA0FDF7E8FBC6E70220E8
:1044A00000F088FA78B92A2000F0CAFB58B9322007
:1044B00000F0FCFB38B90020FFF79AFD18B9002086
:1044C00000F0ACFA10B13846BDE8FC81002000F0E5
:1044D0002DFC0020F8E7000000000020556E7375E9
:1044E00070706F7274656420736F66747761726543
:1044F0002070726F64756374207265762025642E57
:104500000A000000D85C000848616C662073656E84
:104510007369746976697479207061727420666F4A
:10452000756E642E0A0000002DE9FF4FDFF89480BD
:10453000064685B098F8250015460F464FF0FF391E
:10454000B0BBAFB3002420E0301B102800DD1020EA
:1045500080B283463A1901469246204600F042FC5A
:1045600030BB6A465946204600F0D2F800BB5046A0
:104570005A466946FBF7AAFE20B16FF0010009B068
:10458000BDE8F08F04EB0B0084B2B442DCD3280A00
:104590008DF810008DF81150D8F80000444604AB97
:1045A000817ED8F8040002220078FDF79CF908B15A
:1045B0004846E4E7012084F825000898E0840020BC
:1045C000DDE70000000000202DE9F84305464FF02C
:1045D000FF39282844D80727284C00267DB1012020
:1045E00000F0FCFA20208DF800004FF00108012DAA
:1045F00017D0052D18D88DF8018005201FE0002068
:1046000000F0ECFA8DF800608DF8017020686B46C0
:104610000222817C60680078FDF765F900BB267591
:1046200029E08DF80160E8E7142D04D802208DF808
:1046300001000A2003E003208DF80100142000F09F
:10464000FFFA9DF801006B4607EB80108DF8010022
:1046500020680222817C60680078FDF744F910B17F
:104660004846BDE8F8830820A072267384F81480B9
:104670000020FFF7BDFC0020F3E700000000002051
:104680002DE9F843214C0646174694F82400894644
:104690004FF0FF3890B3A07A80B320686B460222B7
:1046A000817A60680078FDF791F838BBBDF80000AA
:1046B00045BAB54202D2002038701FE060684188D8
:1046C000B5EB510F11D9216800786B46497C012266
:1046D000FDF77CF890B99DF80000C00605D500F004
:1046E00041F86FF00100BDE8F8832068F2B24B4654
:1046F000C17A60680078FDF769F808B14046F2E7D2
:10470000B5FBF6F0401E38700020ECE700000020FA
:10471000F8B516000D464FF0FF371FD0104CA17AA8
:10472000E1B1010A8DF80010C0B28DF80100411905
:1047300060684289914211D8216800786B46097EF1
:104740000222FDF7D0F848B92068EAB23346417D2D
:1047500060680078FDF73AF8002800D03846F8BDC8
:1047600000000020F8B5564C4FF0FF36A07A002824
:104770007DD000258DF8005020686B460122C17B5A
:1047800060680078FDF7AFF8002870D120686B46AC
:104790000122417960680078FDF7A5F8002866D10C
:1047A00020686B460122017960680078FDF79BF86C
:1047B00000285CD194F82400E0B30C208DF80000B0
:1047C00020686B460122017960680078FDF78BF85C
:1047D000002872D13220FEF711FCC0208DF80000B5
:1047E000A07AC00702D0E0208DF8000020686B4658
:1047F0000122017960680078FDF775F800285CD126
:10480000607C18B102208DF8000001E08DF80050A6
:1048100020686B460122C17B60680078FDF763F871
:1048200028BB8DF8005020686B46012241796068F2
:1048300000783EE0FFE704208DF8000020686B461A
:104840000122017960680078FDF74DF878B9A07C05
:1048500090B9A07AC0070FD05FF060008DF800001B
:1048600020686B46012201796068007800E024E04E
:10487000FDF739F808BB01E04020EFE73220FEF7F2
:10488000BDFB607C18B101208DF8000001E08DF8BF
:10489000005020686B460122C17B60680078FDF7FC
:1048A00022F850B92068064B012241796068103324
:1048B0000078FDF718F8002800D03046F8BD000059
:1048C000000000202DE9F047394C82468AB094F868
:1048D00024000F4620B1002000F00EF9012600E070
:1048E000002607A8FFF7F2FC06A8FFF7AFFC09A80F
:1048F000FFF72CFD08A8FFF745FD94F80A9094F8FF
:1049000010800025002239465046FFF7CBF810B141
:104910006D1C022DF6DB022D1AD00025012203A901
:104920006846FFF7BFF810B16D1C022DF6DB022DB3
:104930000ED003A93846FEF707FBC7B269465046BA
:10494000FFF73AFA10F0FF0F4FF0000502D002E037
:10495000002503E001250FB945F00205FF20207274
:104960006072E0724FF6FF71E181A0722074012045
:104970002073BDF81C0000F0FBF89DF8180000F053
:1049800019F8BDF8240000F05BF9BDF8200000F034
:104990008DF9484600F0CAF94046FFF729FB16B1E9
:1049A000012000F0A9F80AB02846BDE8F087000011
:1049B0000000002038B5184C4FF0FF35A17A19B32C
:1049C000022806D0042806D008280ED010281BD1B3
:1049D0000DE0002000E008208DF80000607A9DF8CE
:1049E0000010B0EBD10F04D005E01020F4E7182040
:1049F000F2E7002038BD20686B460122C17960686B
:104A00000078FCF770FF08B1284638BD9DF800001B
:104A1000C0086072EDE7000000000020F8B5354CDA
:104A20000546A07CA84201D10020F8BD31484FF0D6
:104A3000FF366B46D0E900104FF00102097900788B
:104A400035B3FCF7C3FE70BB9DF800006B4620F049
:104A500020008DF80000206801220179606800784C
:104A6000FCF741FFF8B90320FEF7C8FA02208DF8E1
:104A7000000094F8220078B382202BE020686B4677
:104A80000122017D60680078FCF72DFF58B92EE007
:104A9000FCF79CFE38B9A07AC0079DF8000003D04F
:104AA00040F0200002E00CE020F020008DF8000033
:104AB00020686B460122017960680078FCF713FFDB
:104AC00008B13046F8BD0320FEF798FA94F82200AA
:104AD00000B180208DF8000094F823000028CDD08C
:104AE0009DF8000040F030008DF80000C6E7A57486
:104AF0009AE700000000002038B51C4C94F8241000
:104B000081421DD0002500B394F82500D0B10020CB
:104B100000F0D6F90020FFF781FFE08C00F0C6F826
:104B20008DF8005060686B46012200782321FCF765
:104B3000DAFE012084F8240000F0C2F9FFF712FE2B
:104B4000002038BD4FF0FF3038BD002000F0B8F92C
:104B5000207C8DF8000060686B46012200782321DC
:104B6000FCF7C1FE84F82450E8E7000000000020B4
:104B700038B5194C4FF0FF35A17A31B3FA2809D076
:104B8000B0F5FA7F08D0B0F57A7F0FD0B0F5FA6FA4
:104B90001BD10DE0002000E008208DF80000207AF5
:104BA0009DF80010B0EBD10F04D005E01020F4E721
:104BB0001820F2E7002038BD20686B460122817979
:104BC00060680078FCF78FFE08B1284638BD9DF874
:104BD0000000C0082072EDE70000002038B5174C37
:104BE000054694F82300A84201D1002038BD0DB13C
:104BF000302000E000208DF80000A07C28B19DF856
:104C0000000040F002008DF8000094F8220028B166
:104C10009DF8000040F080008DF8000020686B4691
:104C20000122017D60680078FCF75DFE10B14FF055
:104C3000FF3038BD84F82350D7E700000000002083
:104C400038B5194C4FF0FF35A17A31B3BC2801D3E8
:104C5000012010E0622801D302200CE02A2801D3B1
:104C6000032008E0142801D3042004E00A2801D31B
:104C7000052000E006208DF80000E07A9DF8001085
:104C8000884201D1002038BD20686B46012281781E
:104C900060680078FCF727FE08B1284638BD9DF80B
:104CA0000000E072EEE7000000000020F8B51E4DA5
:104CB00004464FF0FF37A87A48B395F8240030BB7C
:104CC000287D4FF47A7648B164B1282C03D8E0B23D
:104CD000FFF77AFC26E00020FFF776FC042C05D2D3
:104CE000042406E00020FFF76FFCF9E7B44200D986
:104CF0003446B6FBF4F0401E8DF8000028686B4681
:104D00000122417868680078FCF7EDFD08B138466B
:104D1000F8BD9DF80000401CB6FBF0F0E8814008AB
:104D2000FFF78EFF0020F8BD00000020F8B5054613
:104D300010F0700F4FF0000601D0012004E015B113
:104D40008DF8006002E040208DF80000244C6B4696
:104D500001222068817C60680078FCF7C4FD4FF078
:104D6000FF3760BB9DF8000020F0400020738DF8F5
:104D70000060680602D404208DF80000A80605D45F
:104D80009DF8000040F002008DF80000E80605D410
:104D90009DF8000040F001008DF80000280705D4C0
:104DA0009DF8000040F038008DF8000020686B4648
:104DB0000122C17C60680078FCF795FD10B1A672F5
:104DC0003846F8BD25B1082D02D00020FFF706FFB8
:104DD000A57226753220FEF711F90020F8BD0000FB
:104DE00000000020F8B516000D464FF0FF371FD029
:104DF000104CA17AE1B1010A8DF80010C0B28DF813
:104E00000100411960684289914211D821680078F7
:104E10006B46097E0222FCF766FD48B92068EAB2BB
:104E20003346417D60680078FCF75DFD002800D0C6
:104E30003846F8BD0000002000B589B002A905A8D9
:104E4000FFF740FD032802D0012009B000BD6846ED
:104E5000FFF756FA9DED050A05A8F8EEC00A9DED8C
:104E6000000A60EE800AFDEEE00ACDED050ADDEDF8
:104E7000060AF8EEE00A60EE800AFDEEE00ACDEDEB
:104E8000060ADDED070AF8EEE00A20EE800ABDEE24
:104E9000C00A8DED070AFEF76BFB01A8FFF7F4F9D6
:104EA000BDF80400029941430291039941430391E3
:104EB0000499414302A80491FEF7BCFA0020C4E71C
:104EC000F8B5144C0146224694F82460D2E9000259
:104ED00000235D1E56B179B1022111E0C17B10782B
:104EE0006B460122FCF7FFFC68B90EE0A67A56B1CA
:104EF00011B1617C61B902E08DF80030EEE701216B
:104F00008DF80010EAE72846F8BD9DF800006074AF
:104F10000020F8BD0000002000B52DED048B83B00B
:104F200041EC190BFBF7C4FC41EC180B18EE100A0E
:104F300018EE901A8DED008B002818BF0120084351
:104F400020F00040C0F17F6000F1E040C00F14D0BD
:104F500019EE101A19EE900A8DED009B002918BF6A
:104F60000121084320F00040C0F17F6000F1E040E3
:104F7000C00F04BF0120FDF787FB51EC180B03B0F5
:104F8000BDEC048B00BD75191A0C6A231B1C1F2075
:104F90007274433B4138393A6B6C376F06246D6E3F
:104FA00070006800000476005401F7FD0001000065
:104FB0008300000000080000000100183200050016
:104FC000000020410000D242295C0F3E9A99993E90
:104FD0003333733F295C0F3E000070000000002453
:104FE000000000020003000000650054FFEF000015
:104FF000FA80000B12820001030C30C30E8C8CE986
:1050000014D5400213710F8E3883F8833000F88373
:10501000258EF8833000F883FFFFFFFF0FFEA9D62F
:10502000240004001A8279A10000003CFFFF000068
:105030000010000038836FA2003E033040000000E3
:1050400002CAE3093E8000002000000000000000CA
:105050004000000060000000000C0000000C186E12
:10506000000006920A16C0DFFFFF0256FD8CD377C0
:10507000FFE1C496E0C5BEAA00000000FFFF0B2BB5
:1050800000001657000003594000000000001DFA00
:1050900000026C1D000000003FFFDFEB003EB3B6D6
:1050A000000D227800002F3C00000000001942B5DE
:1050B000000039A20000B365D90E9FC91DCF4C3442
:1050C00030000000500000003BB67AE800640000A9
:1050D00000C8000000000000100000001000FA925C
:1050E0001000225E000D229F00010000003200002F
:1050F000FF46000063D400001000000004D600004A
:1051000004CC000004CC000000001072000000403D
:10511000000000000000000000060002000500077B
:105120000000000000640000000000000000000516
:1051300000050064002000000000000000000000E6
:10514000000040000000030000000032F89800005A
:10515000FF650000830F0000FF9BFC0000000000C3
:10516000000000000000000000000000000000003F
:10517000000000000000000000000000000000002F
:1051800000000000000010004000000000000006C9
:105190000000B26A000200000001FB83006800000A
:1051A00000D9FC007CF1FF830000000000650000D6
:1051B000006403E8006400280000002500000000EF
:1051C00016A000000000100000001000002F0000DA
:1051D000000001F40000100000280000FFFF4581DE
:1051E000FFFFFA720000000000000000004400050C
:1051F0000005BAC6004778A20000000100000000C8
:1052000000000600000000140000254D002F706D06
:10521000000005AE000C02D00000000000000000FD
:105220000000000000000000001B00000000000063
:105230000000000000000000006400000008000002
:10524000000000000000000000000000000000005E
:10525000000000000000000000000000000000004E
:10526000000000000000000000000000000000003E
:10527000000000000000000000000000000000002E
:10528000000000000000000000000000000000001E
:105290000000000000000000001B000000000000F3
:1052A00000000000000E000E00000AC7000400000D
:1052B00000000032FFFFFF9C00000B2B00000002EB
:1052C0000000000100000064FFE500000000000095
:1052D00000000000000000000000000100000000CD
:1052E00000010000000000000001800000018000BB
:1052F00000018000002426D3000000000000000010
:10530000000600100096003C0000000000000000B5
:1053100000000000000000000C0A4E68CDCF7709A5
:1053200050166759C619CE82000000000000000028
:10533000000000000000000000000000000000006D
:1053400017D78400030000000000000000000000E8
:10535000C7938F9D1E1B1C19000000000000000059
:10536000000000000000000000000000000000003D
:105370000203188500004000000000030000000345
:1053800000000000000000004000000000000000DD
:10539000000000000000000000000000000000000D
:1053A00000000000000000000000000000000000FD
:1053B000000000000000000000000000677DDF7EAC
:1053C00072902E554CF6E6880000000000000000A8
:1053D0000000000000000000D8DCB4B8B0D8B9ABC1
:1053E000F3F8FAB3B7BB8E9EAEF132F51BF1B4B849
:1053F000B08097F1A9DFDFDFAADFDFDFF2AAC5CD3A
:10540000C7A90CC92C97F1A989264666B28999A922
:105410002D557DB0B08AA896365676F1BAA3B4B2AF
:1054200080C0B8A89711B28398BAA3F0240844109A
:105430006418B2B9B49883F1A329557DBAB5B1A364
:105440008393F0002850F5B2B6AA839328547CF1D8
:10545000B9A3829361BAA2DADEDFDB819AB9AEF535
:10546000606870F1DABAA2DFD9BAA2FAB9A382925F
:10547000DB31BAA2D9BAA2F8DF85A4D0C1BBAD8313
:10548000C2C5C7B8A2DFDFDFBAA0DFDFDFD8D8F13F
:10549000B8AAB38DB4980D355DB2B6BAAF8C961973
:1054A0008F9FA70E161EB49AB8AA872C547CBAA454
:1054B000B08AB691325676B28494A4C808CDD8B8D2
:1054C000B4B0F19982A82D557D98A80E161EA22C75
:1054D000547C92A4F02C5078F184A898C4CDFCD8C8
:1054E0000DDBA8FC2DF3D9BAA6F8DABAA6DED8BA35
:1054F000B2B68696A6D0F3C841DAA6C8F8D8B0B43A
:10550000B882A892F52C548898F135D9F418D8F1BE
:10551000A2D0F8F9A884D9C7DFF8F883C5DADF6923
:10552000DF83C1D8F40114F1A8824EA884F311D10D
:1055300082F5D992289788F109F41C1CD884A8F325
:10554000C0F9D1D99782F129F40DD8F3F9F9D1D95D
:1055500082F4C203D8DEDF1AD8F1A2FAF9A884983F
:10556000D9C7DFF8F8F883C7DADF69DFF883C3D873
:10557000F40114F198A8822EA884F311D182F5D9F0
:1055800092509788F109F41CD884A8F3C0F8F9D197
:10559000D99782F149F40DD8F3F9F9D1D982F4C43D
:1055A00003D8DEDFD8F1AD8898CCA809F9D982926A
:1055B000A8F57CF1883ACF944A6E98DB6931DAAD70
:1055C000F2DEF9D88795A8F221D1DAA5F9F417D936
:1055D000F1AE8ED0C0C3AE82C684C3A88595C8A5DF
:1055E00088F2C0F1F4010EF18E9EA8C63E56F55425
:1055F000F18872F40115F19845856EF58E9E048848
:10560000F142985A8E9E068869F4011CF1981E1189
:1056100008D0F504F11E970202983625DBF9D985EA
:10562000A5F3C1DA85A5F3DFD88595A8F309DAA536
:10563000FAD88292A8F578F1881A849F2688982152
:10564000DAF41DF3D8879F39D1AFD9DFDFFBF9F446
:105650000CF3D8FAD0F8DAF9F9D0DFD9F9D8F40B8D
:10566000D8F3879F39D1AFD9DFDFF41DF3D8FAFC27
:10567000A869F9F9AFD0DADEFAD9F88F9FA8F1CC92
:10568000F398DB45D9AFDFD0F8D8F18F9FA8CAF3E4
:105690008809DAAF8FCBF8D8F2AD978D0CD9A5DF9A
:1056A000F9BAA6F3FAF412F2D8950DD1D9BAA6F345
:1056B000FADAA5F2C1BAA6F3DFD8F1BAB2B6869685
:1056C000A6D0CAF349DAA6CBF8D8B0B4B8D8AD841E
:1056D000F2C0DFF18FCBC3A8B2B68696C8C1CBC3E8
:1056E000F3B0B48898A821DB718D9D71859521D97F
:1056F000ADF2FAD88597A828D9F408D8F28D29DA1E
:10570000F405D9F285A4C2F2D8A88D9401D1D9F4B8
:1057100011F2D88721D8F40AD8F28498A8C801D108
:10572000D9F411D8F3A4C8BBAFD0F2DEF8F8F8F87A
:10573000F8F8F8F8D8F1B8F6B5B9B08A95A3DE3C18
:10574000A3D9F8D85CA3D9F8D87CA3D9F8D8F8F9AC
:10575000D1A5D9DFDAFAD8B18530F7D9DED8F8305B
:10576000ADDADED8F2B48C99A32D557DA083DFDFAE
:10577000DFB591A0F629D9FBD8A0FC29D9FAD8A089
:10578000D051D9F8D8FC51D9F9D879D9FBD8A0D0C3
:10579000FC79D9FAD8A1F9F9F9F9F9A0DADFDFDF54
:1057A000D8A1F8F8F8F8F8ACDEF8ADDE8393AC2CAD
:1057B000547CF1A8DFDFDFF69D2CDAA0DFD9FADB1D
:1057C0002DF8D8A850DAA0D0DED9D0F8F8F8DB55FB
:1057D000F8D8A878DAA0D0DFD9D0FAF8F8F8F8DB52
:1057E0007DF8D89CA88CF530DB38D9D0DEDFA0D08E
:1057F000DEDFD8A848DB58D9DFD0DEA0DFD0DED886
:10580000A868DB70D9DFDFA0DFDFD8F1A888902C93
:10581000547C98A8D05C38D1DAF2AE8CDFF9D8B0DD
:1058200087A8C1C1B188A8C6F9F9DA36D8A8F9DACB
:1058300036D8A8F9DA36D8A8F9DA36D8A8F9DA3697
:10584000D8F78D9DADF818DAF2AEDFD8F7ADFA30A3
:10585000D9A4DEF9D8F2AEDEFAF983A7D9C3C5C759
:10586000F1889BA77AADF7DEDFA4F8849408A797A8
:10587000F300AEF29819A488C6A39488F632DFF23A
:105880008393DB09D9F2AADFD8D8AEF8F9D1DAF3DD
:10589000A4DEA7F1889B7AD8F38494AE19F9DAAA2A
:1058A000F1DFD8A881C0C3C5C7A39283F628ADDEB7
:1058B000D9F8D8A350ADD9F8D8A378ADD9F8D8F88D
:1058C000F9D1A1DADEC3C5C7D8A18194F818F2B026
:1058D00089ACC3C5C7F1D8B8B4B09786A8319B06C8
:1058E0009907AB9728889BF00C201440B0B4B8F00F
:1058F000A88A9A285078B79BA829517924705944CE
:105900006938644831F1BBAB88002C547CF0B38B10
:10591000B8A804285078F1B088B49726A85998BB45
:10592000ABB38B02264666B0B8F08A9CA8295179A1
:105930008B2951798A2470598B2058718A4469388F
:105940008B3940688A6448318B30496088F1AC00FB
:105950002C547CF08CA804285078F1889726A859FC
:1059600098AC8C02264666F0899CA829517924704F
:1059700059446938644831A98809205970AB1138F5
:105980004069A8193148608CA83C415C207C00F13A
:1059900087981986A86E767EA999882D557DD8B1ED
:1059A000B5B9A3DFDFDFAED0DFAAD0DEF2ABF8F906
:1059B000D9B087C4AAF1DFDFBBAFDFDFB9D8B1F15F
:1059C000A3978E60DFB084F2C8F8F9D9DED893854A
:1059D000F14AB183A308B5839A0810B79F10D8F194
:1059E000B0BAAEB08AC2B2B68E9EF1FBD9F41DD861
:1059F000F9D90CF1D8F8F8AD61D9AEFBD8F40CF1B7
:105A0000D8F8F8AD19D9AEFBDFD8F416F1D8F8AD57
:105A10008D61D9F4F4ACF59C9C8DDF2BBAB6AEFA4F
:105A2000F8F40BD8F1AED0F8AD51DAAEFAF8F1D8FF
:105A3000B9B1B6A3839C08B9B1839AB5AAC0FD30A9
:105A400083B79F10B58B93F20202D1ABDADED8F1A7
:105A5000B080BAABC0C3B284C1C3D8B1B9F38BA311
:105A600091B609B4D9ABDEB0879CB9A3DDF1B38B95
:105A70008B8B8B8BB087A3A3A3A3B28BB69BF2A314
:105A8000A3A3A3A3A3A3A3A3A3F1B087B59AA3F34E
:105A90009BA3A3DCBAACDFB9A3A3A3A3A3A3A3A333
:105AA000A3A3A3A3A3A3A3A3D8D8D8BBB3B7F1AA96
:105AB000F9DAFFD9809AAA28B48098A720B79787E7
:105AC000A86688F07951F1902C870CA78197629392
:105AD000F071716085940129517990A5F1284C6C81
