:020000040800F2
:1000000050080020C1010008176C00089734000850
:10001000156C0008810B0008BD810008000000007D
:1000200000000000000000000000000061700008F7
:10003000390F000800000000316F0008157100083A
:10004000DB010008DB010008DB010008DB01000820
:10005000DB010008DB010008DB010008DB01000810
:10006000DB010008DB010008DB010008DB01000800
:10007000710E0008DB0100087D0E0008DB0100089E
:10008000DB010008DB010008DB010008DB010008E0
:10009000DB010008DB010008DB010008DB010008D0
:1000A000DB010008DB010008DB010008DB010008C0
:1000B000DB010008DB010008DB010008DB010008B0
:1000C000DB010008DB010008DB010008DB010008A0
:1000D000DB010008DB010008DB010008518100089A
:1000E000DB010008DB010008DB010008DB01000880
:1000F000DB010008DB010008DB010008DB01000870
:10010000DB010008DB010008DB010008DB0100085F
:10011000DB010008DB010008DB010008DB0100084F
:10012000DB010008DB010008DB010008DB0100083F
:10013000DB010008DB010008DB010008DB0100082F
:10014000DB010008DB010008DB010008DB0100081F
:10015000DB010008DB010008DB010008DB0100080F
:10016000DB010008DB010008DB010008DB010008FF
:10017000DB010008DB010008DB01000800000000D3
:10018000DB010008DB010008DB010008DB010008DF
:10019000DB010008DB010008DB010008DB010008CF
:1001A000DB010008DB010008DB010008DFF80CD0F0
:1001B00000F0D0FB00480047C18B00085008002029
:1001C0000648804706480047FEE7FEE7FEE7FEE7F1
:1001D000FEE7FEE7FEE7FEE7FEE7FEE7197100082F
:1001E000AD01000840EA01039B0703D009E008C9FC
:1001F000121F08C0042AFAD203E011F8013B00F8EC
:10020000013B521EF9D27047D2B201E000F8012B37
:10021000491EFBD270470022F6E710B513460A4686
:1002200004461946FFF7F0FF204610BD10B5002226
:1002300000E0521C835C8C5CA34201D1002BF8D1FE
:10024000D8B2E1B2401A10BD70B5064607F0C8FF3B
:10025000046805460A220021304600F07DFA2C6031
:1002600070BD2DE9FE4F804681EA0300C00F0C46A9
:10027000009021F0004123F00045B8EB0200A941B5
:1002800005D24046214690461C460B46024623F0C6
:100290000040104347D0270DC7F30A00C3F30A51AB
:1002A0000290401A019040286BDAC3F3130040F427
:1002B000801B0098924620B10023D2EB030A63EB27
:1002C0000B0B01985946C0F14002504600F013FA5A
:1002D00006460D4650465946019A00F02BFA10EB9F
:1002E00008006141002487EA115284EAE7731A4347
:1002F00040D0009A62B3019A012A4FEA075215DCF6
:10030000001B61EB02014FF0004202EA0752CDE907
:100310000042001C41F5801132462B4600F063FA82
:1003200003B0BDE8F08F40462146F9E7001B61EBC2
:100330000201001C41F5801300185B412018A2F552
:10034000001747EB030140EAD570B6196D4111E083
:100350006D084FEA360645EAC0754FEA0752001BA2
:1003600061EB0201001C41F5801149084FEA3000A1
:100370000019514132462B4603B0BDE8F04F00F062
:1003800023BA0098012240000023D0EB020263EB65
:10039000E073009821464FEAE074B8EB000061EB8F
:1003A0000401E9E783F000435BE781F0004158E78F
:1003B0002DE9FE4F81EA030404F0004421F00041DE
:1003C00000944FF0000B23F0004350EA01045ED08C
:1003D00052EA03045BD0C3F30A54C1F30A552C4418
:1003E000A4F2F3340194A0FB0254C1F3130141F4CD
:1003F0008011C3F3130343F4801301FB024400FB99
:10040000034E840A970A44EA815447EA8357A4FBBF
:10041000076802958D0A05FB07854FEA932C04FBBC
:100420000C542705029D4FEA065847EA1637B5EBEC
:1004300008056EEB070C870E920E47EA811742EA19
:100440008312A7FB0201B6EB0B0164EB00042B0D3A
:1004500043EA0C335E1844EB1C50DA465146E7FB86
:100460000201C5F313044FEA0B3343EA14534FEA76
:100470000432019C43EA0603A4F10C040294009C9C
:10048000CDE900B400F0AFF903B0BDE8F08F002073
:100490000146F9E72DE9F04D81EA030404F0004B31
:1004A00021F0004514464FF0000A23F0004150EAC5
:1004B000050220D054EA01021DD0C5F30A570246B6
:1004C000C5F31303C1F31300C1F30A5640F48015BA
:1004D00043F48013A7EB0608101BD64608F2FD383C
:1004E00073EB050002D308F1010801E092185B41AB
:1004F000B8F1000F03DA00200146BDE8F08D0020BE
:100500004FF48011064684460EE0171B73EB050777
:1005100005D3121B63EB050306434CEA010C4908A3
:100520004FEA300092185B4150EA0107EDD152EAE0
:10053000030012D082EA040083EA0501084305D0D3
:10054000101BAB4106D20122002306E000224FF02F
:10055000004302E06FF0010253101AEB06004CEB6F
:10056000085110EB0A0041EB0B01BDE8F04D00F023
:100570002BB90EB5C10F80EAE0700844CA0700210C
:1005800040F233438DE80E000A460B4600F02BF98B
:1005900003B000BD0EB540F2334102910021CDE918
:1005A00000110A460B4600F01EF903B000BDC1F36E
:1005B0000A5210B5C1F3130140F2FF3341F4801128
:1005C0009A4201DA002010BD40F233439A42A2F26F
:1005D000334203DC524200F09DF810BD904010BD44
:1005E00000F0004230F000400AD0C10D01F560710A
:1005F000C0F3160042EA0151C20840071143704798
:10060000002001467047000030B5041E71F100045F
:1006100004DB4FF00044404264EB0101141E73F10F
:10062000000405DB1C464FF00043524263EB040319
:100630008B4208BF824230BD30B5041E71F1000408
:1006400004DB4FF00044404264EB0101141E73F1DF
:10065000000405DB1C464FF00043524263EB0403E9
:10066000994208BF904230BD30B50B46014600208C
:100670002022012409E021FA02F59D4205D303FA64
:1006800002F5491B04FA02F52844151EA2F10102E5
:10069000F1DC30BD2DE9F05F0546002092469B4617
:1006A00088460646814640241BE028464146474688
:1006B000224600F02FF853465A46C01A914110D3F3
:1006C00011461846224600F016F82D1A67EB01086D
:1006D0004F4622460120002100F00DF817EB0009DB
:1006E0004E41201EA4F10104DFDC484631462A4673
:1006F0004346BDE8F09F202A04DB203A00FA02F1CD
:10070000002070479140C2F1200320FA03F31943FF
:1007100090407047202A04DB203A21FA02F00021A1
:10072000704721FA02F3D040C2F120029140084301
:1007300019467047202A06DBCB17203A41FA02F00F
:1007400043EAE07306E041FA02F3D040C2F120022E
:1007500091400843194670472DE9F04791460F46EE
:1007600080460446002614F8015B2DB100F004F920
:100770000068405DC007F6D12B2D02D02D2D18D07A
:10078000641E4A463946204600F0FAF827B1396817
:10079000A14201D1C7F8008071054FF002040BD5CA
:1007A0004042002803DD07F01BFD0460A007BDE800
:1007B000F08746F48066E4E70028F8DA07F010FDD9
:1007C00004606FF00040F2E710B5141E73F10004EE
:1007D00008DA401C41F1000192185B411A4301D133
:1007E00020F0010010BD2DE9F04D92469B4611B15D
:1007F000B1FA81F202E0B0FA80F220329046FFF7BF
:100800007AFF04460F4640EA0A0041EA0B015346CC
:100810005A46084313D0114653EA010019D0C8F1D3
:1008200040025046FFF776FF05460E4650465946B1
:100830004246FFF760FF084305D0012004E0204650
:100840003946BDE8F08D0020054346EAE0762C43AA
:1008500037430A986305E40AA0EB08000022FD0A6A
:1008600044EA47540A3002D500200146E9E7010571
:1008700010196941DDE9084500196941BDE8F04DED
:10088000A2E72DE9F04D00231A461B1A8A4103DB2B
:1008900000200146BDE8F08DC1F30A52C1F31301F7
:1008A00041F480154FF0000BD10702D100186D41C3
:1008B000521E0027044640F2FF11384601EB620A3F
:1008C0003E468046024600204FF48011FFF722FF8B
:1008D000C2197141BB1846EB0100B4EB030C75EB78
:1008E000000C04D3E41A65EB000517460E462419E4
:1008F00008F101006D4180463428E3DDF91946EB2B
:100900000600091BA84103D24FF0FF32134601E055
:10091000002213461BEB070046EB0A51BDE8F04DE1
:10092000FFF752BFC1F30A52C1F3130140F2FF3384
:1009300041F480119A4202DA00200146704740F2E9
:1009400033439A42A2F2334202DC5242FFF7E2BE44
:10095000FFF7D1BE064C074D06E0E06840F001030A
:1009600094E8070098471034AC42F6D3FFF722FC16
:10097000D0D60008F0D600080048704750D60008CE
:100980002DE9F05F82460078002715468B460AF174
:100990000104B946302801D09DB113E014F8010BD1
:1009A0000127782803D0582801D045B10AE00DB1BD
:1009B000102D07D10027102514F8010B02E008259F
:1009C00000E00A250026B0460EE005FB080005FB06
:1009D00006F1012701EB10461FFA80F8B6F5803FBB
:1009E00000D3B94614F8010B294600F018F8002886
:1009F000EBDABBF1000F05D00FB1641E00E05446E6
:100A0000CBF80040B9F1000F06D007F0E9FB022156
:100A10000160C81EBDE8F09F48EA0640FAE73A28A0
:100A200000D2303820F02002412A01D3A2F1370051
:100A3000884201D34FF0FF30704702F04DBD2DE9E1
:100A4000F0410D460146002004464E1908E0070219
:100A5000301B401E80B200F007F8641C3844E4B23A
:100A6000AC42F4D3BDE8F08110B5044602F0DCFDE1
:100A7000200AA02101EB4000C0B202F0A5FD02F067
:100A800015FEE0B202F0A0FD02F010FE02F0CCFD77
:100A9000A12002F099FD02F009FE002002F060FDA5
:100AA000044602F0E1FD204610BD2DE9F041164656
:100AB0000D460746002409E0E00025FA00F0C1B227
:100AC000381980B200F006F8641CE4B2B442F3D3E3
:100AD000BDE8F08170B50D46044602F0A5FD200A80
:100AE000A02101EB4000C0B202F06EFD02F0DEFD7D
:100AF000E0B202F069FD02F0D9FD284602F064FD83
:100B000002F0D4FD02F0B0FDBDE870400A2008F00C
:100B100021B800000E4810B5016886B041F004010C
:100B2000016000680B4C00F004000590022000906A
:100B3000012001900290032003906946204601F0B5
:100B40003BF901220221204601F029FA06B010BD2E
:100B5000303802400008024010B5084C0022022143
:100B6000204601F01CFA322001F01BF92046012238
:100B7000BDE81040022101F012BA00000008024056
:100B8000FEE7000004480549097800EB4100028CAB
:100B9000818903A007F014BB4000002088000020DA
:100BA0002564202564200A0070B50E4C0025C4F889
:100BB00098520D48016821F0C0010160016841F0C0
:100BC000400101600948C0F88C52022004F52674E7
:100BD00007F0CEFF01202060022007F0C9FF25604A
:100BE00070BD0000008043420020024000004442EB
:100BF000154810B5016886B041F0800101600168B8
:100C000001F080010591016841F480710160006884
:100C1000012400F4807005904020CDE900040320F9
:100C2000CDE902406946094801F0C6F80820009065
:100C30006946074801F0C0F80648C0F88C420648EB
:100C4000C0F8984206B010BD30380240001C024087
:100C500000200240000044420080434270B50E4C28
:100C60000026C4F898620D48016821F0C0010160B7
:100C7000016841F04001016009480125C0F88C522B
:100C8000022004F5267407F073FF2560022007F0A8
:100C90006FFF266070BD00000080434200200240CC
:100CA000000044422DE9F0478246194800240168BB
:100CB00021F0C0010160016801601E2007F058FFAB
:100CC0000025144EDFF850902F464FF00108C6F86B
:100CD0009872022007F04CFFC6F898826006040E56
:100CE000D9F80C0208B1641CE4B2022007F040FFFE
:100CF0006D1CEDB2082DEAD3BAF1000F04D0FFF756
:100D000053FF2046BDE8F087FFF7A8FFF9E7000092
:100D10000020024000804342000044422DE9F04799
:100D200005461548016821F0C0010160016841F0E5
:100D300040010160114E0027C6F89872DFF840802C
:100D40003C464FF00109E909C8F88C126806050E07
:100D5000022007F00DFFC6F89892022007F008FF66
:100D6000C6F89872022007F003FF641CE4B2082C56
:100D7000E9D3BDE8F0870000002002400080434234
:100D80000000444270B50F48016821F0C0010160C5
:100D9000016841F0400101600B4E0120C6F88C0251
:100DA0000A4DC5F898021E2005F5267506F523762E
:100DB00007F0DEFE00243460022007F0D9FE2C602C
:100DC00070BD000000200240000044420080434209
:100DD00070B50F48016821F0C0010160016841F061
:100DE000400101600B4E0020C6F898020A4DC5F87C
:100DF0008C021E2005F5237506F5267607F0B8FE51
:100E000001243460022007F0B3FE2C6070BD0000A6
:100E100000200240008043420000444270B5114867
:100E20000024016821F0C0010160016801600E4DDD
:100E30000120C5F88C020D4EC6F8980207E0641C2C
:100E4000E4B2FA2C03D9FFF7C3FF012070BD0220E2
:100E500007F08EFED5F80C020028F0D1C6F89802F3
:100E600070BD000000200240000044420080434268
:100E7000014800F061BE000040010020014800F080
:100E80005BBE00009801002001681823CAB2103A26
:100E9000B2FBF3F2054B6FF30901032A9B5C436538
:100EA00000D9091D0165084670470000A08D0008A3
:100EB00030B50468256825F48025256004686360E2
:100EC0008368402B036803D099600068C26030BD1E
:100ED0009A600068C16030BD10B50122202114481D
:100EE00007F034FF134C022220216060104807F005
:100EF0002DFFA060032220210D4807F027FFE060AE
:100F000004F1100304222021094807F0B3FE04F184
:100F1000180305222021064807F0ACFE04F1200347
:100F20000622BDE810402021014807F0A3BE0000C2
:100F30004C03002090000020704700007CB54FF665
:100F4000FF7002F099FC2C4C1F204FF48776206034
:100F50003346C322DC214B2002F090FD4FF4A075F4
:100F60002B46C32231464B2002F088FD4FF4B97660
:100F70003346C32229464B2002F080FD4FF4D27342
:100F8000C32231464B2002F079FD47F6FF70206006
:100F90001AA11820CDE9000178231A4614216420F3
:100FA00005F067FA17A02024CDE9004064231A4613
:100FB000E6215A2005F05DFA14A0CDE90040642333
:100FC0001A464FF48C715F2005F053FA11A0CDE959
:100FD000004064231A464FF4A5715F2005F049FADA
:100FE0000EA0CDE9004064231A464FF4BE715F2085
:100FF00005F03FFA7CBD00002000002057454C431F
:101000004F4D00004D414E55414C00004155544F4D
:10101000310000004155544F32000000464F4C4C07
:101020004F57000070B5B3F5804F05D06FF0704199
:1010300040F82210002070BD50F82230084C2340A8
:10104000D1E9004544EA05148D688E892D0245EAF0
:10105000064589692C430C431C4340F82240E9E7CC
:101060000000F0CFF0B50C6850F82450194A154034
:10107000D1E90123D1E903671A433E4332434E6964
:1010800032438E693243CE6932430E6A32434E6A2E
:1010900032438E6A3243CE6A3243CE6B32430E6B9A
:1010A00032434E6B32432A43082B01D142F04002B7
:1010B00040F824204A6BB2F5801F08D10A6832B18B
:1010C0004FF480720A6104490268114301600020F4
:1010D000F0BD00008000E0FF00011000F0B500EB63
:1010E000820253688E8903F04044D1E9003543EA17
:1010F00005138D682D0245EA06452B430E8A0D4DDA
:1011000005EB065633430E7D6F0107EB066633434E
:101110008E693343234353600268D20207D5426885
:10112000098A22F4700205EB01511143416000204D
:10113000F0BD00000000F0FF30B5D1E901231A43F3
:10114000D1E9033423431A434B690D681A438B6971
:101150001A43D1E90734012D496A05686FF30E057A
:1011600005D01A4322430A432A43026008E023437E
:1011700029430B43416803606FF30E010A43426049
:10118000002030BD426942EA4101416100207047C0
:10119000F8B514460546D1E9000210438A686FF09D
:1011A0001F03C96803EB421242EA41210843009041
:1011B000286100F0F9FE064609E0601C07D024B162
:1011C00000F0F2FE801BA04201D90320F8BDA869FF
:1011D0008006F2D40020F8BDF0B56FF00F05D1E91C
:1011E000003405EB04145B1E2E0123438C682F038F
:1011F00006EB04244FEA054C23430D8A8E8ACC6803
:10120000097E4FF07F4E07EB05450CEB06560EEBC3
:101210000161012A0CD082683F1107EB043423439B
:101220002B43334302F070420B43134383600FE0C0
:10123000C2682B430B4302F070428168134301F0F4
:1012400070422103A1F5805131431143C360816095
:101250000020F0BD70B54A4888B00024016841F014
:1012600080010160016801F080010791016841F48B
:1012700080710160006802A900F4807007908020EE
:10128000012581E83100032005903E4800F094FDDF
:101290002802CDE9020502A93B4800F08DFDFFF7C9
:1012A000A7FC3A4EC6F8A042142006F5287607F0AF
:1012B00051FC3560322007F04DFC8DF800400222D1
:1012C0006946A12000F072F89DF80000302803D193
:1012D0009DF80110032931D09DF8011001292DD06E
:1012E00002292BD00422694648F2401000F07CFA13
:1012F0008DF80440694626A006F062FF2748009951
:1013000048F24005C0F8021002208DF800000122CA
:101310006946284600F0BEFB01226946E81D00F040
:1013200063FA0A2007F016FC8DF800400122694696
:10133000284600F0AFFB08B0002070BDC9B201EB39
:10134000002117A006F03CFF01226946002000F0B2
:1013500089F901226946A42000F084F916208DF84D
:10136000000001226946802000F07CF90C208DF8F5
:10137000000001226946882000F074F9DBE70000D4
:1013800030380240001C024000200240000044426D
:101390004354502049443A25730D0A003000002080
:1013A0004354502049443A25780D0A002DE9F04174
:1013B00015460F460446FFF7E5FC7020FFF7AEFC2C
:1013C000FFF72CFDE0B2FFF7A9FCFFF727FDFFF7C1
:1013D000D9FC7120FFF7A2FCFFF720FD00246E1E50
:1013E00009E0B44201D0012000E00020FFF75AFCE0
:1013F0003855641CE4B2AC42F3D3BDE8F041FFF7CA
:10140000E7BC00002DE9F14783B00027904E8DF82E
:1014100004704FF00A0A70788E4C401CC0B2B0FBCA
:10142000FAF20AFB1201B846707009B10A2870D2AC
:10143000874889A1801CFEF7F9FE4FF0010203A93D
:1014400008B30220FFF7B2FF9DF80C00010760D03F
:1014500000F00F01307881425BD8FF228A40D143EF
:1014600094F8349041F0C00184F8341004EB40004B
:10147000A1894181218CC183032007F06BFB8DF88A
:101480000470764D91E048F24E15284600F0ACF914
:101490009DF80C000106D7D5317800F00F00884286
:1014A000D2D88DF80470012201A9284600F0F2FA82
:1014B000CAE794F8341001228240114270D0644887
:1014C00065A1801CFEF7B2FE20B365489DF80410AC
:1014D000042230F811006946FFF768FF94F84400D1
:1014E0009DF80010C0079DF8010001F00F0145D0E4
:1014F00000EB01219DF8040004EB400001849DF8FD
:1015000002209DF8031002F00F0201EB02218181FD
:1015100046E065E052489DF804100A30042230F895
:101520001100694600F060F994F844009DF803103A
:10153000C0079DF8020011D000EB01206988091A4C
:101540009DF8040004EB400001849DF800109DF814
:10155000012001EB02212A88511AD8E700EB012172
:101560009DF8040004EB400081819DF800109DF877
:10157000012001EB02216A88511A10E000EB0120E2
:101580002988091A9DF8040004EB400081819DF828
:1015900002209DF8031002F00F0201EB02210184EA
:1015A0009DF80400401C8DF804009DF8040031787B
:1015B0008842FFF47EAFA08929884FF00108884255
:1015C00003D8208C6988884209D99DF80C0000F066
:1015D0000F00012812D9E089A081608C20847770E7
:1015E0001B481DA1801CFEF721FE00289DF80C0061
:1015F0004FF6FF710FD0C00624D01AE0307804EB0C
:1016000040004189A181C08B208480208DF80C008E
:1016100084F83490E4E700F08F00802812D008E0CE
:1016200020F0800003E0A181218400F0E00084F834
:1016300034007078F02801D986F801A004B0404643
:10164000BDE8F08794F834000206ECD5E8E7000026
:1016500030000020400000203931310040020020DD
:10166000E8D400082DE9F04115460E46044600274F
:10167000FFF788FB7020FFF751FBFFF7CFFBE0B2CD
:10168000FFF74CFBFFF7CAFB002408E0305DFFF7D3
:1016900045FBFFF7C3FB070003D1641CE4B2AC4277
:1016A000F4D3FFF795FB3846BDE8F0812DE9F04310
:1016B0003E4889B00024016841F080010160016862
:1016C00001F080010791016841F4807101600068B8
:1016D000802600F48070079001AA01250327009658
:1016E000DFF8CC9082E8B0006946484600F064FB21
:1016F0002802CDE9000569462E4800F05DFBFFF7A2
:1017000077FADFF8B480C8F8A0420A2007F022FA7E
:10171000C8F8A0520A2007F01DFACDE90064CDE90F
:1017200002476946484600F047FB642007F012FA7A
:10173000042205A948F2401000F056F88DF8184030
:1017400005A91EA006F03CFD1FA105A8FEF76EFD31
:1017500040BB02208DF8140048F24005012205A983
:10176000284600F097F9012205A9E81D00F03CF891
:101770009DF8141060290BD215A006F021FD194820
:101780008088A0F5AA41103902D1012000F05CF94F
:101790000A2007F0DFF98DF81440012205A9284638
:1017A00000F078F909B00020BDE8F083303802403D
:1017B000001C0240002002400000444243545020DC
:1017C00049443A25730D0A003931343700000000CE
:1017D00044656661756C74205665723A25640D0A1D
:1017E00000000000400200202DE9F04115460F46A0
:1017F0000446FFF7C7FA2820FFF790FAFFF70EFB21
:10180000200AFFF78BFAFFF709FBE0B2FFF786FA31
:10181000FFF704FBFFF7B6FA2920FFF77FFAFFF77F
:10182000FDFA00246E1E09E0B44201D0012000E060
:101830000020FFF737FA3855641CE4B2AC42F3D30A
:10184000BDE8F041FFF7C4BA2DE9F14F7A4E00240C
:101850004FF00A0B307882B0401CC0B2B0FBFBF2F4
:101860000BFB1201754DA146307009B10A2878D2E0
:1018700048F24E17012202A93846FFF7B5FF9DF83E
:1018800008004FF0000801060AD500F00F000628F6
:1018900006D28DF80480012201A9384600F0FAF83A
:1018A0009DF8080001075CD000F00F01062958D20E
:1018B000FF2088408DF80400C04395F834A040F024
:1018C000C00085F83400A889A882288C5C4F288540
:1018D0004FF0010995F8341009FA04F0014268D07C
:1018E00058480422694630F81400FFF77DFFB88895
:1018F000A0F5AA41103908D0A0F5864142391AD086
:10190000A0F5864184392DD053E095F84400C007F6
:101910002CD09DF800009DF8011000EB012105EB93
:10192000440001849DF802109DF8032001EB022180
:10193000C1F548713CE095F84400C00716D19DF808
:1019400000009DF8011000EB012105EB440001842B
:101950009DF802109DF8032001EB0221C1F588716A
:1019600026E041E095F84400C00710D09DF8000043
:101970009DF8011000EB012105EB440081819DF8E9
:1019800002109DF8032001EB0221018411E09DF873
:1019900000009DF8011000EB012105EB44000184DB
:1019A0009DF802109DF8032001EB0221C1F5F071B2
:1019B0008181641CE4B2052C8CD3A9893A884FF04C
:1019C00001092846914203D8018C7A88914209D9AD
:1019D0009DF8081001F00F0101290CD9C1898181FE
:1019E000418C298486F800809DF8080000F08F0063
:1019F00080280AD018E0818A8181018D01848021AC
:101A00008DF8081085F834A0EEE795F8340001064B
:101A100002D520F0800005E04FF6FF71A9812984EE
:101A200000F0E00085F834003078F02801D986F81D
:101A300000B04846BDE8FE8F37000020400000207F
:101A400040020020B4D5000808B500218DF8001030
:101A50008DF801000E489DF80020435C491C1A4493
:101A6000C9B28DF80020B829F5D3D0B2C043401CCC
:101A70008DF80000B822064948F2470000F00AF845
:101A80000222694648F2FF0000F004F8002008BD79
:101A9000FCD400082DE9F04115460E460446002707
:101AA000FFF770F92820FFF739F9FFF7B7F9200A97
:101AB000FFF734F9FFF7B2F9E0B2FFF72FF9FFF7BC
:101AC000ADF9002408E0305DFFF728F9FFF7A6F92B
:101AD000070003D1641CE4B2AC42F4D3FFF778F9F9
:101AE0003846BDE8F0812DE9F04104460068016800
:101AF00021F00101016000F057FA054600264FF47D
:101B00007A770FE000F050FA401BB8420AD954F837
:101B10004C0F40F0200044F8180903202670607034
:101B2000BDE8F08120680068C007EBD104F8346F8D
:101B3000012060700020F3E72DE9F041056D0446B7
:101B4000286894F85420082101FA02F210424FF05C
:101B500004074FF0000617D020680268520713D51B
:101B6000026822F00402026094F854008140A960E7
:101B7000E06C40F00100E06484F8357084F8346073
:101B8000A16C09B120468847286894F85430524A1D
:101B900002FA03F1084218D020684169090614D5F9
:101BA000416921F08001416194F8540002FA00F18A
:101BB000A960E06C40F00200E06484F8357084F8BD
:101BC0003460A16C09B1204688472868424A94F8DD
:101BD0005430D21C02FA03F1084218D02068016880
:101BE000890714D5016821F00201016094F85400BE
:101BF00002FA00F1A960E06C40F00400E06484F8AF
:101C0000357084F83460A16C09B120468847286893
:101C100094F85430102202FA03F108421AD02068D6
:101C200003681B0716D503685F034FF0310327D500
:101C3000A96020680168090302D484F8353005E002
:101C40000068000302D5412084F83500216C09B1F9
:101C500020468847286894F85430202202FA03F17D
:101C6000084236D020680368DB0632D503685B0380
:101C70001CD5A9602068016809030DD4616C0FE0D0
:101C80000168C90503D4016821F00801016094F8D6
:101C900054008240AA60D0E70068000319D5E16BC8
:101CA000002916D02046BDE8F04108470168C90563
:101CB00003D4016821F01001016094F854008240BF
:101CC000AA60E06CE064112084F8350084F8346088
:101CD000E5E7BDE8F08100000100800070B5040078
:101CE0001AD00220636A84F8350021680A6818480F
:101CF0000240D4E901052843D4E90356354328437B
:101D000065692843A5692843E5692843256A28436E
:101D10001043042B02D005E0012070BDD4E90B2351
:101D20001A431043086022685069616A20F0070076
:101D30000843042901D1A16A084350612046FFF7F6
:101D4000A3F80020E064012084F83500002070BD75
:101D50003F8010F070B5044690F8340001281ED082
:101D6000012084F83400022084F8350020680568DA
:101D700025F0010505602046FFF79AF82068016804
:101D800041F01E0101602068416941F0800141611C
:101D90002068016841F001010160002070BD02204F
:101DA00070BD31B500F000F9044600F0FDF800996F
:101DB000001B8842F9D338BD2DE9F84FDFF8A09118
:101DC000002209F1040A0AF1040B4FF00F080BF18D
:101DD000040E01260B6896403340B34271D14C6823
:101DE000022C01D0122C11D1D40800EB84073D6ADB
:101DF0005407E40E08FA04FC25EA0C05D1F810C0DB
:101E00000CFA04FC4CEA050CC7F820C00768540023
:101E1000032591F804C0A5400CF0030CAF430CFA65
:101E200004FC4CEA070CC0F800C04F68012F05D035
:101E3000022F03D0112F01D0122F11D18768D1F8B2
:101E40000CC0AF430CFA04FC4CEA070CC0F808C005
:101E50004768B7430E79C6F3001696403E43466086
:101E6000C668AE438D68A5403543C5604C68E40044
:101E70006FD53C4C256845F480452560246822F0E8
:101E8000030504F480440094374C2E19D6F80878E2
:101E90009407250F08FA05F4A743344CA04201D15A
:101EA00000242EE0324CA04201D1012429E0314C23
:101EB000A04201D1022424E02F4CA04202D10324ED
:101EC0001FE046E02D4CA04201D1042419E02C4C27
:101ED000A04201D1052414E02A4CA04201D10624DD
:101EE0000FE0294CA04201D107240AE0274CA04270
:101EF00001D1082405E0264CA04201D1092400E0CC
:101F00000A24AC403C43C6F80848D9F800404D4686
:101F10004E689C43F60300D51C432C60DAF8004061
:101F200055464E689C43B60300D51C432C60DBF835
:101F300000405D464E689C43F60200D51C432C6071
:101F4000DEF8004075464E689C43B60200D51C433F
:101F50002C60521C102AFFF43CAFBDE8F88F000043
:101F6000003C014044380240003001400000024083
:101F70000004024000080240000C02400010024031
:101F80000014024000180240001C024000200240E1
:101F9000002402400069084000D0012070470AB1C7
:101FA000816170470904FBE7014800687047000041
:101FB0001800002002480168491C016070470000B9
:101FC000180000200B4810B5016841F40071016051
:101FD000016841F480610160016841F48071016031
:101FE000052000F0BFF90F2000F006F800F08AF994
:101FF000002010BD003C024010B5044600F060FC1B
:102000004FF47A71B0FBF1F000F094FF002221460A
:10201000501E00F087F9002010BD2DE9F041044664
:1020200090F8A00015460F4601281DD0012684F81F
:10203000A060022084F8A10005EB850000EBC5003C
:1020400004EB800034223830FEF7CCF82A463946BB
:10205000204604F0C9FC2068466284F8A160002094
:1020600084F8A000BDE8F0810220FBE770B5040011
:1020700004D094F8A100002510B106E0012070BD45
:1020800084F8A050204600F06FF8022084F8A100E8
:102090002068816921F070418161D4E90110014318
:1020A000D4E903021043014320688269114381612E
:1020B000206882682B490A408260A08A0204206856
:1020C0008368A6693343134383602068C2680A406B
:1020D000C260A08B02042068C368266A334313439E
:1020E000C360206802690A400261A08C0204206873
:1020F0000369A66A334313430361206842690A40B7
:102100004261A08D010420684269236B1A430A438F
:10211000426194F83500020294F836000104206808
:10212000C36A03F07F43C3622068C36A94F83460D3
:10213000114333430B43C3622068416B41F00401F8
:1021400041632068416B41F002014163206881696D
:1021500041F001018161C4F8A450012084F8A1007C
:10216000002070BD00F800F030B5364887B000257B
:10217000016841F080610160006800F080600590B6
:1021800030481438016841F400010160016801F42D
:1021900000010591016841F002010160016801F050
:1021A00002010591016841F020010160016801F020
:1021B00020010591016841F040010160016801F0D2
:1021C00040010591016841F080010160016801F062
:1021D00080010591016841F4807101600068032469
:1021E00000F480700590202000900120CDE90204C9
:1021F000019069461448FFF7DFFD4FF480600090BE
:102200000220CDE901050E20CDE9034069460F48C3
:10221000FFF7D2FD4FF40C60009069460C48FFF7C1
:10222000CBFD4FF47E40009069460A48FFF7C4FD9D
:1022300040F2F760009069460748FFF7BDFD07B020
:1022400030BD000044380240000402400014024047
:1022500000180240001C02400020024070B50446F5
:1022600090F8A0000E46012820D0012584F8A05047
:10227000022084F8A10003EB830000EBC30004EB11
:10228000800141F8386F886A3044C1E90102C86AA8
:102290001044C8601A46204604F0A6FB2068456238
:1022A00084F8A150002084F8A00070BD022070BD09
:1022B0002DE9F041044690F8A0000F4601281FD0F8
:1022C000012584F8A050022084F8A10003EB8300CC
:1022D00000EBC30004EB80010026E1E90E67204615
:1022E000C1E90262C1E90A721A4604F07DFB206866
:1022F000456284F8A15084F8A0600020BDE8F08118
:102300000220FBE708B50020009008BD00F01F0286
:10231000012191404009800000F1E020C0F8001147
:1023200070470000F0B40E4B1B68C3F30223C3F1E7
:102330000704042C00D904241D1D072D01D20023FD
:1023400000E0DB1E012606FA04F56D1E0D409D40DF
:102350009E40761E164045EA0601F0BC04F05CBCC7
:102360000CED00E0064A00F0070110684FF6FF038D
:10237000184040EA012003490843106070470000FC
:102380000CED00E00000FA052DE9F8431D48016856
:1023900041F0805101600068012700F080500090FA
:1023A000380490FAA0F0DFF86080B0FA80F048F8C6
:1023B0002070FFF7F9FD04464FF47A75134E04E0E0
:1023C000FFF7F2FD001BA84213D87068C003F7D5D1
:1023D0004FF4003090FAA0F0B0FA80F048F8207086
:1023E000FFF7E2FD044607E0FFF7DEFD001BA84211
:1023F00002D90320BDE8F88370688003F4D500207B
:10240000F8E700004038024000000E420070004033
:102410002DE9F84F04460068DFF878829E4DC10729
:1024200047F6C07A4FF0E0464FF0010B4FF000093D
:1024300001D180074BD59949C1F86890FFF7B4FDE9
:10244000074604E0FFF7B0FDC01B64287ED828686B
:102450000001F7D420789249C0070DD09AFAAAF269
:102460006068B2FA82F2904096FAA6F3A268B3FAD4
:1024700083F39A40104308602078800718D50868D5
:1024800096FAA6F200F0E040B2FA82F2D04062681A
:10249000237B920142EA036242EA00700860D8F8A6
:1024A0000010E26921F01F01521E1143C8F800100C
:1024B0007A49C1F868B0FFF777FD074604E0FFF7F7
:1024C00073FDC01B642841D828680001F7D5206837
:1024D000410701D4000776D57049C1F87090FFF725
:1024E00063FD074604E0FFF75FFDC01B64282DD89D
:1024F0002868C0438000F6D520786A4F40074FF027
:10250000706C29D5386896FAA6F100F0E040B1FA6F
:1025100081F1C8409AFAAAF22169B2FA82F2914096
:102520009CFAACF36269B3FA83F39A40114396FACA
:10253000A6F2B2FA82F2904001433960D8F8001056
:102540006FF0FF0321F4F851226A00E079E003EB19
:1025500002221143C8F800102078000723D53868FC
:102560009CFAACF100F07060B1FA81F1C8409AFABF
:10257000AAF22169B2FA82F291409CFAACF2B2FA64
:1025800082F29040014396FAA6F2A069B2FA82F272
:10259000904001433960D8F80010626A21F440315C
:1025A0001143C8F800103D49C1F870B0FFF7FCFCBA
:1025B000064604E0FFF7F8FC801B642841D8286831
:1025C000C0438000F6D42078800651D532484F466B
:1025D0004030016841F0805101600068324E00F0E7
:1025E00080500090306840F480703060FFF7DCFC71
:1025F000054604E0FFF7D8FC401B642821D830686A
:10260000C005F7D5264E143E3068218D00F4407089
:1026100001F4407188422BD03068244920F4407086
:10262000C1F800B00F603060800710D5FFF7BCFC28
:10263000054641F2883707E0FFF7B6FC401BB84279
:1026400002D90320BDE8F88F30688007F4D5A06A6E
:102650001149C0F301220831032A13D0086820F47D
:10266000F81008603068218DC1F30B010843306019
:102670002078C00604D50E4994F82C00C1F8E0017A
:102680000020DFE70A680B4B22F4F81218400243DF
:102690000A60E7E78C3802400038024000004742F9
:1026A000843802408838024000700040400E4742A3
:1026B00000104742FFFCFF0F2DE9F05FDFF8F8A1A3
:1026C00004460F46DAF80000DFF8F08100F00F0250
:1026D000C8B27A49814641F2883608F10808BA4200
:1026E00061D202468AF80020DAF8000000F00F00FC
:1026F000B8427DD12078800707D5D8F80020A3689C
:1027000022F0F0021A43C8F800202078C0072DD02C
:10271000606801281AD002281BD0032819D0096844
:102720008907002964DAD8F80010474621F0030130
:102730000143C8F80010FFF737FC05466068012820
:102740000FD0022818D003281CD027E0096889037D
:10275000E7E709688901E4E7FFF726FC401BB04280
:1027600058D83868C0F381000128F5D188E0FFF718
:102770001BFC401BB0424DD83868C0F381000228D2
:10278000F5D17DE03868FFF70FFC401BB042F9D966
:1027900040E0FFF709FC401BB0423BD8386810F01E
:1027A0000C0FF6D16CE02078800707D5D8F8002010
:1027B000A36822F0F0021A43C8F800202078C0076E
:1027C0004CD06068012828D0022829D0032827D0BF
:1027D00009688907002949DAD8F8002022F00302A5
:1027E0000243C8F80020FFF7DFFB0546606800E001
:1027F0003CE001281DD0022829D0032838D0B34658
:102800004646306810F00C0F28D0FFF7CDFB411B77
:102810005945F6D90320BDE8F09F09688903D9E737
:1028200009688901D6E7FFF7BFFB411B594502D96B
:10283000F0E7B34646463068C0F381000128F2D184
:102840000CE0FFF7B1FB411B594502D9E2E7B34663
:1028500046463068C0F381000228F2D18AF8009021
:10286000DAF8000000F00F00B84209D00120D2E7EA
:1028700044462068FFF798FB401BB042F9D9C9E7EE
:102880002078400707D5D8F80010E26821F4E0511D
:102890001143C8F800102078000708D5D8F80010B8
:1028A000226921F4604141EAC201C8F800100F20FA
:1028B000FFF7A2FB0020AEE7003C024000380240D8
:1028C00010B500F043F808490968F02292FAA2F224
:1028D00001F0F001B2FA82F2D140044A515CC840E2
:1028E0000349086010BD000008380240908D0008C0
:1028F0000400002010B5FFF7E3FF074909684FF413
:10290000E05292FAA2F201F4E051B2FA82F2D1401E
:10291000024A515CC84010BD08380240908D000842
:1029200010B5FFF7CDFF074909684FF4604292FAEE
:10293000A2F201F46041B2FA82F2D140024A515C43
:10294000C84010BD08380240908D000830B51948C5
:10295000006810F00C01184812D0184C04290ED051
:1029600008290DD1134A121F1168136801F03F01A5
:102970005D0247F6C07304D5B4FBF1F003E02046D6
:1029800030BDB0FBF1F01168194093FAA3F3B3FA2C
:1029900083F3D940484311684FF4403292FAA2F2CF
:1029A00001F44031B2FA82F2D140491C4900B0FB37
:1029B000F1F030BD083802400024F40040787D0179
:1029C0002DE9F84F04460078DFF8FCA2BF4DC007A0
:1029D0004FF0000648D0DAF800105046C1F38101EC
:1029E000012908D00068C0F3810002280AD1281DFF
:1029F0000068400206D52868800335D56068002845
:102A000073D031E0DFF8C49209F1020989F800605F
:102A1000FFF7CAFA074641F2883804E0FFF7C4FA24
:102A2000C11B41457AD828688003F7D4207989F8FA
:102A30000000606860B1FFF7B7FA074604E0FFF7EF
:102A4000B3FAC11B4145EDD828688003F7D50BE0E8
:102A5000FFF7AAFA074604E0FFF7A6FAC11B4145B3
:102A6000E0D828688003F7D42078DFF864928007E4
:102A700044D5DAF80010504611F00C0F4FF0F8086A
:102A800009D00068C0F3810002280BD18E48001FD6
:102A90000068400206D42868800714D5E068012841
:102AA00023D110E0E068D0B10120C9F80000FFF7A1
:102AB0007BFA074604E0FFF777FAC01B6428B1D819
:102AC00028688007F7D5286898FAA8F22169B2FA31
:102AD00082F220F0F8009140084328600EE0C9F827
:102AE0000060FFF761FA074605E0EAE0FFF75CFAED
:102AF000C01B642812D828688007F7D42078000704
:102B000025D5DFF8C4817348616908F16C0881B18B
:102B100001210160FFF748FA074605E07EE0FFF774
:102B200043FAC01B642879D8D8F800008007F6D58E
:102B30000DE00660FFF738FA074604E0FFF734FAC5
:102B4000C01B64286AD8D8F800008007F6D4207823
:102B5000400753D55C483830016841F0805101602E
:102B60000068DFF8748100F080500090D8F8001001
:102B700041F48071C8F80010FFF716FA074604E028
:102B8000FFF712FAC01B642848D8D8F80000C00527
:102B9000F6D5DFF834B10BF1680B8BF80060FFF766
:102BA00003FA074641F2883804E0FFF7FDF9C11B3C
:102BB00041457ED8DBF800008007F6D4207A8BF8F8
:102BC0000000A06868B1FFF7EFF9074604E0FFF7DF
:102BD000EBF9C11B41456CD8DBF800008007F6D546
:102BE0000CE0FFF7E1F9074604E0FFF7DDF9C11B50
:102BF00041455ED8DBF800008007F6D4A069E8B351
:102C0000DAF80010C1F3810102295AD0022806D057
:102C1000C9F86060FFF7C8F904464DE049E04F4647
:102C2000C9F86060FFF7C0F9064604E0FFF7BCF999
:102C3000801B64283DD828688001F7D4D4E90701B7
:102C4000084347F6C07191FAA1F1626AB1FA81F1C5
:102C50008A40A16A4FF0FF3303EB51014FF4403338
:102C600093FAA3F3B3FA83F399400A4310434FF066
:102C7000706292FAA2F2B2FA82F200E01FE0E16A18
:102C8000914008431049091F086001203866FFF78A
:102C90008BF9044604E0FFF787F9001B642808D885
:102CA00028688001F7D50AE0FFF77EF9001B642849
:102CB00002D90320BDE8F88F28688001F4D40020F1
:102CC000F8E70120F6E7000008380240003802402B
:102CD00000004742800E47420070004070B50D462C
:102CE000040003D094F82C0010B107E0012070BD5F
:102CF000002084F82D00204600F012F8022084F80D
:102D00002C00211D2068FEF717FAD4E9000229469D
:102D1000FEF762FA012084F82C00002070BD00004C
:102D2000304800B5016887B041F0010101600068DA
:102D300000F0010005902B480838016841F00401BB
:102D40000160016801F004010591016841F008018A
:102D50000160016801F008010591016841F010016E
:102D60000160016801F010010591016841F0200146
:102D70000160016801F020010591016841F0400106
:102D800001600068694600F0400005900D20009049
:102D90000220019001200290032003900C20049057
:102DA0001148FFF709F84CF20370009069460F488C
:102DB000FFF702F84FF68370009069460C48FEF763
:102DC000FBFF4FF63F00009069460A48FEF7F4FF0C
:102DD00048F23710009069460748FEF7EDFF07B04C
:102DE00000BD00003838024000080240000C0240DC
:102DF00000100240001402400018024010B50446C2
:102E000090F82C00022809D0022084F82C002068B9
:102E1000FEF7B8F9012084F82C00002010BD70B531
:102E2000044690F82C000D4602280CD0022084F8AD
:102E30002C002068FEF7ACF92868022804D0012095
:102E400084F82C00002070BD0520F9E770B5154608
:102E50000E46040003D094F8490010B107E00120A9
:102E600070BD002084F84800204600F01BF804F1F3
:102E700008012068FEF7F6F83146A2682068FEF7E0
:102E80002DF9D4E901022946236BFEF7CBF8A1689E
:102E9000206850F8212042F0010240F82120002053
:102EA00070BD00001A4800B5016887B041F001010B
:102EB0000160006800F001000590154808380168BD
:102EC00041F008010160016801F008010591016805
:102ED00041F0100101600068694600F010000590A3
:102EE0004EF2B37000900220019001200290032066
:102EF00003900C2004900748FEF75EFF4FF68070A9
:102F0000009069460448FEF757FF07B000BD000077
:102F100038380240000C0240001002404FF0E0211F
:102F20000428086903D020F004000861704740F0CD
:102F30000400FAE710B5401EB0F1807F01D30120F4
:102F400010BD4FF0E02460610F21601703F064FEB4
:102F50000020A06107202061002010BD10B50446AC
:102F60000068416921F0800141612068416921F0D8
:102F700040014161206B08B1FEF7B5FD606B08B1FF
:102F8000FEF7B1FD012084F83900002010BD704724
:102F900038B5016804460868CA68C0F3000002F446
:102FA000807238B132B1086848680090E06B40F038
:102FB0000100E06308684A69C0F3400002F00102C2
:102FC00038B132B1086848680090E06B40F0040006
:102FD000E06308684A69C0F3800002F0010238B17A
:102FE00032B1086848680090E06B40F00200E0638E
:102FF00008684A69C0F3C00002F0010238B132B17A
:10300000086848680090E06B40F00800E0630868DA
:10301000C968C0F3401001F0200118B111B1204679
:1030200004F00CFF20680168C068C1F3C01100F013
:10303000800019B110B1204605F00EF8216808682B
:10304000CA68C0F3801002F04002012568B162B185
:10305000CA68204622F04002CA6094F8391032292A
:103060000CD080F8395000F009FAE06B002804D049
:1030700084F839502046FFF78AFF38BD222180F8B6
:103080003910F0E708B501680A6849680091FFF750
:1030900065FF03F04FFFBDE8084003F0E3BF70B5E4
:1030A000040004D094F83900002510B106E0012096
:1030B00070BD84F83850204600F020F8022084F8D3
:1030C00039002068C16821F40051C160204604F035
:1030D00009FF2068016921F490410161206841697C
:1030E00021F02A0141612068C16841F40051C160AA
:1030F000E563012084F83900002070BD2DE9F0411E
:1031000086B0064614216846FDF785F83B4F3068C7
:1031100000243B49022203230725B8421DD1384829
:103120001430066846F010060660006800F01000D3
:103130000590086840F0010008600868694600F0E2
:103140000100059058028DE81500CDE903352D48A2
:10315000FEF732FE06B0BDE8F0812B4FB842F9D140
:1031600027481030076847F480270760006800F49C
:1031700080200590086840F00200086008686946F1
:1031800000F0020005904FF440608DE81500CDE995
:1031900003351E48FEF710FE1E4D1D484FF0006718
:1031A0002860C5E901744FF48068C5E903486C6183
:1031B000AC61EC612C6228466C62FEF78FFD756392
:1031C0001348AE6358353030E5E802074020A5E8E3
:1031D0001101104845F814495830AC61EC612C627B
:1031E0006C62FEF77BFD3563002211462720AE633B
:1031F000FFF798F82720FFF789F8ABE700100140A8
:103200003038024000000240004800400004024004
:10321000286002404001002037B5044690F839008C
:103220001346012801D012282FD1019A4AB343B383
:1032300094F83800012828D0012084F83800A262D0
:10324000A3850025E56394F8390012281BD02220BD
:1032500084F83900616B0E48C863616B0D480864DF
:10326000616B0D4888642168606B091DFEF772FD73
:103270002068416941F04001416184F838500020E4
:103280003EBD01203EBD3220E2E702203EBD0000EF
:10329000C77D0008FB7D0008A97D000890F8393043
:1032A000012B01D0122B2BD131B32AB390F8383037
:1032B000012B25D0012380F8383081628285C285B8
:1032C0000022C26390F83910122917D0222180F809
:1032D00039100168CB6843F48073CB6001684B6997
:1032E00043F001034B6180F838200068C16841F069
:1032F0002001C16000207047012070473221E6E7BD
:1033000002207047054910B5884205D103F012FE2E
:10331000BDE8104003F0A6BE10BD00000001002073
:1033200070472DE9F047044690F8390099460D465C
:10333000012801D0222856D125B31AB394F83800B9
:10334000012850D0012684F838600027E76394F8FC
:103350003900222819D0122084F83900A284E2848E
:103360004FF48058E08C4B46401EE084A0684FF03C
:10337000000240454FF08001204613D104F09FFE2B
:1033800008BB04E00120BDE8F0873220E4E728888C
:103390002168C0F308004860206908B16D1C08E08E
:1033A000AD1C06E004F08BFE68B9216815F8010B2E
:1033B0004860E08C0028D5D14B46002240212046B1
:1033C00004F07DFE08B10320DDE794F839003228CF
:1033D00005D084F8396084F838700020D3E72220C3
:1033E00084F83900F7E70220CDE70000F7B504467E
:1033F00090F83900012801D0222837D1019981B3F2
:103400007AB394F83800012830D0012084F83800CD
:103410002162A284E2840025E56394F83900222821
:1034200022D0122084F83900236B1148D863236B13
:1034300010481864236B1048986420681346266B64
:10344000021D3046FEF786FC21686FF040000860E0
:103450002068416941F08001416184F838500020C2
:10346000FEBDFFE70120FBE73220DBE70220F7E7A4
:10347000057E0008337E0008A97D000803498842C4
:1034800002D10349012008707047000000010020AC
:10349000900000207047FEE770B50D4C0025C4F881
:1034A00090520C48016821F440610160016841F4C8
:1034B00080610160C4F89452022004F5247405F080
:1034C00057FB01202060022005F052FB256070BDF3
:1034D00000804342001C02400E4810B5016886B0CF
:1034E00041F0800101600068012400F08000059037
:1034F0003020CDE900040220CDE9024069460648AB
:10350000FEF75AFC0548C0F89442C0F8904206B055
:1035100010BD000030380240001C024000804342D1
:1035200070B50D4C0026C4F890620C48016821F477
:1035300040610160016841F4806101600125C4F8C7
:103540009452022004F5247405F012FB2560022039
:1035500005F00EFB266070BD00804342001C024057
:103560002DE9F047814616480024016821F44061A6
:10357000016001680160134E254627464FF001089F
:10358000C6F89072022005F0F3FAC6F89082600641
:10359000040ED6F8140208B1641CE4B2012005F050
:1035A000E7FA6D1CEDB2082DEAD3B9F1000F04D093
:1035B000FFF772FF2046BDE8F087FFF7B1FFF9E79C
:1035C000001C0240008043422DE9F04105461448AA
:1035D000016821F440610160016841F4806101608B
:1035E000104E0027C6F890723C464FF00108E809DB
:1035F000C6F894026806050E022005F0B9FAC6F86E
:103600009082022005F0B4FAC6F89072022005F00C
:10361000AFFA641CE4B2082CE9D3BDE8F0810000E5
:10362000001C02400080434270B50D48016821F43F
:1036300040610160016841F480610160094C012032
:10364000C4F89402C4F89002042004F5247405F030
:103650008FFA00256560042005F08AFA256070BDA8
:10366000001C0240008043420E4810B5016821F45E
:1036700040610160016841F4806101600A4C0020F2
:10368000C4F89002C4F89402042004F5247405F0F0
:103690006FFA012020606060BDE81040042005F052
:1036A00067BA0000001C02400080434270B5124817
:1036B0000024016821F440610160016801600F4D40
:1036C0000126C5F89462304605F052FAC5F89062BA
:1036D000012005F04DFA07E0641CE4B2FA2C03D98E
:1036E000FFF7C2FF012070BDD5F814020028F3D106
:1036F000C5F8900270BD0000001C024000804342EB
:1037000070B52E480088012856D12E4D2C4C2878B3
:1037100004EB400081894B3978294DD8008CDC2896
:103720004AD34FF48776B0420DD8FDF715FA00F072
:1037300069F8287804EB400081894B3978293BD817
:10374000008CB04238D328784FF4A07604EB4000C8
:10375000008CB0420DD8FDF7FFF900F035F828785D
:1037600004EB400081894B39782925D8008CB04280
:1037700022D328784FF4B97604EB4000008CB04295
:103780000DD8FDF7E9F900F029F8287804EB40009E
:1037900081894B3978290FD8008CB0420CD3287816
:1037A00004EB4000008CB0F5D27F05D8FDF7D4F9CA
:1037B000BDE8704000F01CB870BD000002000020A1
:1037C00040000020880000200349022008704FF6C6
:1037D000FF7000F051B800000000002003490320F2
:1037E00008704FF6FF7000F047B80000000000209E
:1037F0000349042008704FF6FF7000F03DB8000048
:10380000000000200349012008704FF6FF7000F00F
:1038100033B800000000002070B5144886B00025C1
:10382000016841F001010160016801F001010591A9
:10383000016841F0800101600068032400F080000D
:10384000059002200126CDE90204CDE90065694614
:103850000748FEF7B1FA0C2003948DE86100694631
:103860000448FEF7A9FA06B070BD000030380240E7
:1038700000000240001C024070B50E490E4A064688
:1038800008881268002422B13046BDE8704002F07A
:103890006BBE4D8800214543084602F0BFFC02F094
:1038A0002BFEB1B2054801E00180641CAC42FBD3A1
:1038B00070BD0000400200202C03002000000860C2
:1038C0002DE9F05F394C3A4DA071296839B102F009
:1038D0006BFEE88A2080288B6080BDE8F09F33492A
:1038E0002C232A2589884FF0F00949F2413A2B26EA
:1038F00045F2105B4FF4305E4FF448774FF4A078F8
:1039000045F2103C4FF4F07258B1A4F80080A4F8CE
:103910000290514501D0614529D123816581A6815D
:1039200039E0A4F80090A4F80280514501D0614527
:1039300008D123816581A681614531D1A4F8008039
:1039400062802DE0594508D1A4F808E04FF42850D2
:1039500060814FF42C50A08106E0A1F5C850633877
:103960001ED123816681A5812280678018E0594598
:1039700008D1A4F808E04FF4285060814FF42C508F
:10398000A08106E0A1F5C850633804D12381658188
:10399000A68127806280614502D12280A4F802803E
:1039A000BDE8F05F002002F05DBB00004002002097
:1039B0002C0300202DE9FE4F0026A2EB00088246D2
:1039C0005F1A701E35468946B8F1000F02DD4FF0D0
:1039D000010102E003D14FF00001019102E0C8F1C2
:1039E00000080190002F02DD4FF0010002E003D13A
:1039F0004FF00000009002E0C7F100070090404641
:103A0000B84501DD044600E03C46601C4FF0000B69
:103A1000029015E01FFA89F11FFA8AF000F016F8FB
:103A200046443D44A64202DD0199361B8A44A54224
:103A300002DD00992D1B89440BF101001FFA80FB68
:103A400002998B45E6DDBDE8FE8F000010B5084AFF
:103A5000084C126822B12268BDE8104002F0B8BDDF
:103A600002F0DCFB02F048FD03492088088010BD0D
:103A70002C03002020000020000008602DE9F04108
:103A80001C4615460E4607460B46FFF793FF3A467F
:103A9000234631461046FFF78DFF23462A46194636
:103AA0003846FFF787FF2A4623463146BDE8F041F6
:103AB0001046FFF77FBF2DE9FC5F804600241546C6
:103AC00003200F46A0EB450649E0781B81B208EBC6
:103AD000040A01901FFA8AF0FFF7B8FF381B81B281
:103AE00008EB050900901FFA89F0FFF7AFFF07EB1D
:103AF000040B1FFA8BF11FFA89F0FFF7A7FF07EB02
:103B000005091FFA89F11FFA8AF0FFF79FFFA8EB5A
:103B1000040A1FFA89F11FFA8AF0FFF797FFA8EB52
:103B200005091FFA8BF11FFA89F0FFF78FFF019843
:103B300081B21FFA8AF0FFF789FF009881B21FFA5D
:103B400089F0FFF783FF641C002E03DA06EB84067E
:103B5000B61D04E0601B06EB80066D1E0A36AC4203
:103B6000B3DDBDE8FC9F00002DE9F04104463A4872
:103B70000D46006820B12046BDE8F04102F028BDA6
:103B8000364E270A3146B0884989A0F513434FEADB
:103B90001528413B0CD0A0F5A643103B08D0A0F55A
:103BA000AA43103B11D0A0F5C853633B27D04BE08C
:103BB000084602F095FC384602F086FCE0B202F0BE
:103BC00083FCB08902F08CFC38E0084602F088FCE7
:103BD000384602F079FC7089401C80B202F080FC0B
:103BE000E0B202F071FCB08902F07AFC404602F0CB
:103BF0006BFCB089401C80B202F072FC21E0B0790D
:103C000018B93088001B401E84B2084602F068FCD8
:103C1000270A384602F058FCE0B202F055FC38465C
:103C200002F052FCE0B202F04FFCB08902F058FC06
:103C3000404602F049FCE8B202F046FC404602F081
:103C400043FCE8B202F040FC054930890880881C3A
:103C50000280BDE8F08100002C030020400200201B
:103C6000FEFF07602DE9F04F95B002F061FEFE4DBA
:103C70004FF0010AA5F15009A88049F2413B45F2F5
:103C8000103645F2105441F6631818B102F018FDD1
:103C900002F08BB9F5480027016841F0020101608C
:103CA000006810A900F0020000902020CDE9100A61
:103CB0000320CDE912A0EE48FEF77EF84FF0204138
:103CC0004846C9F80010EB49C0E901171021C9F8AE
:103CD0000C70C0E90471C9F818700902C9F81C70A9
:103CE000C0E909718900C0E90B71C9F83470890114
:103CF000C9E90E7146210B910F20CDE90907CDE9E5
:103D000002070490D8480F9702AA09A908975038CB
:103D1000FFF79CF8322004F01DFFD32002F0E0FBF7
:103D200002F06EF9A88002F06BF9A88002F068F941
:103D30004FF6FF7202EA0020A88002F061F9A9881C
:103D40005F460843A880B84248D0D42002F0C8FBA0
:103D500002F056F9A88002F053F9A88002F050F959
:103D600002EA0020A88002F04BF9A9880843A88045
:103D7000B04233D04FF45A4002F0B2FB02F040F9A7
:103D8000A8804FF45B4002F0ABFB02F039F902EA85
:103D90000020A8804FF45C4002F0A2FB02F030F952
:103DA000A9880843A880B0F5004F7DD0A04215D067
:103DB000A12002F095FB02F023F9A88002F020F97F
:103DC00002EA0020A88002F01BF9A9880843A0F5A8
:103DD000AE41A880613901D1A5F80480A988A6A0C8
:103DE00004F0EEF9A888B8427ED1CF2002F078FB2B
:103DF000002002F069FBC12002F066FB302002F0D7
:103E000063FBED2002F06CFB642002F05DFB0320FD
:103E100002F05AFB122002F057FB812002F054FB03
:103E2000E82002F05DFB852002F04EFB102002F03E
:103E30004BFB7A2002F048FBCB2002F051FB3920EB
:103E400002F042FB2C2002F03FFB002002F03CFB82
:103E5000342002F039FB022002F036FBF72002F09A
:103E60003FFB202002F030FBEA2002F039FB00206B
:103E700002F02AFB002002F027FBC02002F030FBFA
:103E80001B2002F021FBC12002F02AFB012002F0DE
:103E90001BFBC52002F024FB302002F015FB302074
:103EA00002F012FBC72000E0B7E002F019FBB720D8
:103EB00002F00AFB362002F013FB482002F004FB5C
:103EC0003A2002F00DFB552002F0FEFAB12002F07C
:103ED00007FB002002F0F8FA1A2002F0F5FAB620EB
:103EE00002F0FEFA0A2000E099E002F0EDFAA220CA
:103EF00002F0EAFAF22002F0F3FA002002F0E4FA0B
:103F0000262002F0EDFA012002F0DEFAE02002F0B5
:103F1000E7FA0F2002F0D8FA2A2002F0D5FA28207A
:103F200002F0D2FA082002F0CFFA0E2002F0CCFA0A
:103F3000082002F0C9FA542002F0C6FAA92002F0C3
:103F4000C3FA432002F0C0FA0A2002F0BDFA0F20A3
:103F500002F0BAFA002002F0B7FA002002F0B4FA38
:103F6000002002F0B1FA002002F0AEFAE12002F0E7
:103F7000B7FA002002F0A8FA152002F0A5FA1720DF
:103F800002F0A2FA072002F09FFA112002F09CFA38
:103F9000062002F099FA2B2002F096FA562002F041
:103FA00093FA3C2002F090FA052002F08DFA1020DE
:103FB00002F08AFA0F2002F087FA3F2002F084FA1A
:103FC0003F2002F081FA0F2002F07EFA2B2002F04F
:103FD00087FA002002F078FA002002F075FA01203A
:103FE00002F072FA3F2002F06FFA2A2002F078FA0B
:103FF000002002F069FA002002F066FA002002F0C8
:1040000063FAEF2002F060FA112002F069FA7820DA
:1040100004F0A0FD292001F00BBFAC80DEE6B04229
:104020007ED1ED2002F05CFA012002F04DFAFE2074
:1040300002F04AFAEE2002F053FADE2002F044FACF
:10404000212002F041FAF12002F04AFA012002F0A8
:104050003BFADF2002F044FA102002F035FAC420C7
:1040600002F03EFA8F200FE040020020303802407C
:1040700000040240040100A0204C43442049443A7B
:1040800025780D0A0000000002F01EFAC62002F09A
:1040900027FA002002F018FAE22002F015FAE220D6
:1040A00002F012FAE22002F00FFABF2002F018FA32
:1040B000AA2002F009FAB02002F012FA0D2002F054
:1040C00003FA002002F000FA0D2002F0FDF90020B2
:1040D00002F0FAF9112002F0F7F9002002F0F4F9E9
:1040E000192002F0F1F9002002F0EEF9212002F08F
:1040F000EBF9002002F0E8F92D2002F0E5F90020AC
:1041000002F0E2F93D2002F0DFF9002002F0DCF9D4
:104110005D2002F0D9F9002002F0D6F95D2000E020
:10412000FEE302F0D1F9002002F0CEF9B12002F056
:10413000D7F9802002F0C8F9002002F0C5F98B20E1
:1041400002F0C2F9002002F0BFF9962002F0BCF99B
:10415000002002F0B9F9B22002F0C2F9002002F00A
:10416000B3F9002002F0B0F9022002F0ADF900200E
:1041700002F0AAF9032002F0A7F9002002F0A4F946
:10418000B32002F0ADF9002002F09EF9002002F009
:104190009BF9002002F098F9002002F095F9002028
:1041A00002F092F9002002F08FF9002002F08CF961
:1041B000002002F089F9002002F086F9002002F0C8
:1041C00083F9002002F080F9002002F07DF9002040
:1041D00002F07AF9002002F077F9002002F074F979
:1041E000002002F071F9002002F06EF9002002F0C8
:1041F0006BF9002002F068F9002002F065F9002058
:1042000002F062F9002002F05FF9002002F05CF990
:10421000002002F059F9B42002F062F98B2002F07C
:1042200053F9002002F050F9962002F04DF90020D9
:1042300002F04AF9A12002F047F9002002F044F907
:10424000B52002F04DF9022002F03EF9002002F004
:104250003BF9032002F038F9002002F035F9042080
:1042600002F032F9002002F02FF9B62002F038F9FE
:10427000002002F029F9002002F026F9B72002F010
:104280002FF9002002F020F9002002F01DF93F2054
:1042900002F01AF9002002F017F95E2002F014F97A
:1042A000002002F011F9642002F00EF9002002F063
:1042B0000BF98C2002F008F9002002F005F9AC207F
:1042C00002F002F9002002F0FFF8DC2002F0FCF816
:1042D000002002F0F9F8702002F0F6F8002002F059
:1042E000F3F8902002F0F0F8002002F0EDF8EB2057
:1042F00002F0EAF8002002F0E7F8DC2002F0E4F82F
:10430000002002F0E1F8B82002F0EAF8002002F004
:10431000DBF8002002F0D8F8002002F0D5F80020E9
:1043200002F0D2F8002002F0CFF8002002F0CCF822
:10433000002002F0C9F8002002F0C6F8BA2002F00E
:10434000CFF8242002F0C0F8002002F0BDF80020D1
:1043500002F0BAF8002002F0B7F8C12002F0C0F86D
:10436000202002F0B1F8002002F0AEF8542002F054
:10437000ABF8002002F0A8F8FF2002F0A5F800201A
:1043800002F0A2F8C22002F0ABF80A2002F09CF87A
:10439000002002F099F8042002F096F8002002F0C4
:1043A00093F8C32002F09CF83C2002F08DF8002026
:1043B00002F08AF83A2002F087F8002002F084F830
:1043C000392002F081F8002002F07EF8372002F058
:1043D0007BF8002002F078F83C2002F075F800200D
:1043E00002F072F8362002F06FF8002002F06CF84C
:1043F000322002F069F8002002F066F82F2002F067
:1044000063F8002002F060F82C2002F05DF8002034
:1044100002F05AF8292002F057F8002002F054F870
:10442000262002F051F8002002F04EF8242002F07D
:104430004BF8002002F048F8242002F045F8002054
:1044400002F042F8232002F03FF8002002F03CF88E
:104450003C2002F039F8002002F036F8362002F055
:1044600033F8002002F030F8322002F02DF800205E
:1044700002F02AF82F2002F027F8002002F024F89A
:104480002C2002F021F8002002F01EF8292002F072
:104490001BF8002002F018F8262002F015F8002082
:1044A00002F012F8242002F00FF8002002F00CF8BD
:1044B000242002F009F8002002F006F8232002F080
:1044C00003F8002002F000F8C42002F009F862208E
:1044D00001F0FAFF002001F0F7FF052001F0F4FFE2
:1044E000002001F0F1FF842001F0EEFF002001F038
:1044F000EBFFF02001F0E8FF002001F0E5FF1820BD
:1045000001F0E2FF002001F0DFFFA42001F0DCFF5A
:10451000002001F0D9FF182001F0D6FF002001F0A3
:10452000D3FF502001F0D0FF002001F0CDFF0C2080
:1045300001F0CAFF002001F0C7FF172001F0C4FFFF
:10454000002001F0C1FF952001F0BEFF002001F026
:10455000BBFFF32001F0B8FF002001F0B5FFE6201B
:1045600001F0B2FF002001F0AFFFC52001F0B8FF5D
:10457000322001F0A9FF002001F0A6FF442001F045
:10458000A3FF002001F0A0FF652001F09DFF0020A7
:1045900001F09AFF762001F097FF002001F094FFD0
:1045A000882001F091FF002001F08EFFC62001F06D
:1045B00097FF202001F088FF002001F085FF1720E1
:1045C00001F082FF002001F07FFF012001F07CFF5D
:1045D000002001F079FFC72001F082FF002001F0E8
:1045E00073FF002001F070FF002001F06DFF00203C
:1045F00001F06AFFC82001F073FF002001F064FFA2
:10460000002001F061FF002001F05EFF002001F0BA
:104610005BFFC92001F064FF002001F055FF00207E
:1046200001F052FF002001F04FFF002001F04CFF8D
:10463000002001F049FF002001F046FF002001F0BA
:1046400043FF002001F040FF002001F03DFF00206B
:1046500001F03AFF002001F037FF002001F034FFA5
:10466000002001F031FF002001F02EFF002001F0BA
:104670002BFF002001F028FFE02001F031FF162081
:1046800001F022FF002001F01FFF1C2001F01CFFA1
:10469000002001F019FF212001F016FF002001F099
:1046A00013FF362001F010FF002001F00DFF46201F
:1046B00001F00AFF002001F007FF522001F004FF83
:1046C000002001F001FF642001F0FEFE002001F057
:1046D000FBFE7A2001F0F8FE002001F0F5FE8B20B1
:1046E00001F0F2FE002001F0EFFE992001F0ECFE57
:1046F000002001F0E9FEA82001F0E6FE002001F014
:10470000E3FEB92001F0E0FE002001F0DDFEC42050
:1047100001F0DAFE002001F0D7FECA2001F0D4FE3D
:10472000002001F0D1FED22001F0CEFE002001F0E9
:10473000CBFED92001F0C8FE002001F0C5FEE0202C
:1047400001F0C2FE002001F0BFFEF32001F0BCFE2C
:10475000002001F0B9FEE12001F0C2FE162001F0B8
:10476000B3FE002001F0B0FE1C2001F0ADFE0020E1
:1047700001F0AAFE222001F0A7FE002001F0A4FE15
:10478000362001F0A1FE002001F09EFE452001F040
:104790009BFE002001F098FE522001F095FE0020C3
:1047A00001F092FE642001F08FFE002001F08CFEEB
:1047B0007A2001F089FE002001F086FE8B2001F0B6
:1047C00083FE002001F080FE992001F07DFE002094
:1047D00001F07AFEA82001F077FE002001F074FEBF
:1047E000B92001F071FE002001F06EFEC42001F03E
:1047F0006BFE002001F068FECA2001F065FE00207B
:1048000001F062FED22001F05FFE002001F05CFEAC
:10481000D82001F059FE002001F056FEE02001F002
:1048200053FE002001F050FEF32001F04DFE002069
:1048300001F04AFEE22001F053FE052001F044FEA3
:10484000002001F041FE0B2001F03EFE002001F0AF
:104850003BFE1B2001F038FE002001F035FE342025
:1048600001F032FE002001F02FFE442001F02CFE6A
:10487000002001F029FE4F2001F026FE002001F06B
:1048800023FE612001F020FE002001F01DFE7920B2
:1048900001F01AFE002001F017FE882001F014FE3E
:1048A000002001F011FE972001F00EFE002001F023
:1048B0000BFEA62001F008FE002001F005FEB72047
:1048C00001F002FE002001F0FFFDC22001F0FCFD1E
:1048D000002001F0F9FDC72001F0F6FD002001F0F5
:1048E000F3FDD12001F0F0FD002001F0EDFDD62018
:1048F00001F0EAFD002001F0E7FDDD2001F0E4FD1C
:10490000002001F0E1FDF32001F0DEFD002001F0C8
:10491000DBFDE32001F0E4FD052001F0D5FD00E022
:104920000AE3002001F0D0FD0A2001F0CDFD0020B7
:1049300001F0CAFD1C2001F0C7FD002001F0C4FDFC
:10494000332001F0C1FD002001F0BEFD442001F044
:10495000BBFD002001F0B8FD502001F0B5FD0020A6
:1049600001F0B2FD622001F0AFFD002001F0ACFDCE
:10497000782001F0A9FD002001F0A6FD882001F0BB
:10498000A3FD002001F0A0FD972001F09DFD002077
:1049900001F09AFDA62001F097FD002001F094FDA2
:1049A000B72001F091FD002001F08EFDC22001F042
:1049B0008BFD002001F088FDC72001F085FD00205F
:1049C00001F082FDD12001F07FFD002001F07CFD8F
:1049D000D52001F079FD002001F076FDDD2001F009
:1049E00073FD002001F070FDF32001F06DFD00204B
:1049F00001F06AFDE42001F073FD012001F064FD87
:104A0000002001F061FD012001F05EFD002001F0B9
:104A10005BFD022001F058FD002001F055FD2A2029
:104A200001F052FD002001F04FFD3C2001F04CFD53
:104A3000002001F049FD4B2001F046FD002001F06F
:104A400043FD5D2001F040FD002001F03DFD74209C
:104A500001F03AFD002001F037FD842001F034FD23
:104A6000002001F031FD932001F02EFD002001F027
:104A70002BFDA22001F028FD002001F025FDB32030
:104A800001F022FD002001F01FFDBE2001F01CFD01
:104A9000002001F019FDC42001F016FD002001F0F6
:104AA00013FDCD2001F010FD002001F00DFDD320FD
:104AB00001F00AFD002001F007FDDD2001F004FDFA
:104AC000002001F001FDF32001F0FEFC002001F0C8
:104AD000FBFCE52001F004FD002001F0F5FC0020C6
:104AE00001F0F2FC002001F0EFFC002001F0ECFCF2
:104AF000022001F0E9FC002001F0E6FC292001F091
:104B0000E3FC002001F0E0FC3C2001F0DDFC002093
:104B100001F0DAFC4B2001F0D7FC002001F0D4FCBE
:104B20005D2001F0D1FC002001F0CEFC742001F0EA
:104B3000CBFC002001F0C8FC842001F0C5FC002063
:104B400001F0C2FC932001F0BFFC002001F0BCFC8E
:104B5000A22001F0B9FC002001F0B6FCB32001F066
:104B6000B3FC002001F0B0FCBE2001F0ADFC002041
:104B700001F0AAFCC42001F0A7FC002001F0A4FC75
:104B8000CD2001F0A1FC002001F09EFCD32001F01B
:104B90009BFC002001F098FCDC2001F095FC00203B
:104BA00001F092FCF32001F08FFC002001F08CFC5E
:104BB000E62001F095FC112001F086FC002001F0B8
:104BC00083FC342001F080FC002001F07DFC5620A5
:104BD00001F07AFC002001F077FC762001F074FCF3
:104BE000002001F071FC772001F06EFC002001F044
:104BF0006BFC662001F068FC002001F065FC882059
:104C000001F062FC002001F05FFC992001F05CFCE7
:104C1000002001F059FCBB2001F056FC002001F0FF
:104C200053FC992001F050FC002001F04DFC66205F
:104C300001F04AFC002001F047FC552001F044FC43
:104C4000002001F041FC552001F03EFC002001F065
:104C50003BFC452001F038FC002001F035FC4320EE
:104C600001F032FC002001F02FFC442001F02CFC6C
:104C7000002001F029FCE72001F032FC322001F095
:104C800023FC002001F020FC552001F01DFC002039
:104C900001F01AFC762001F017FC002001F014FC52
:104CA000662001F011FC002001F00EFC672001F0ED
:104CB0000BFC002001F008FC672001F005FC00203F
:104CC00001F002FC872001F0FFFB002001F0FCFB5B
:104CD000992001F0F9FB002001F0F6FBBB2001F068
:104CE000F3FB002001F0F0FB992001F0EDFB002028
:104CF00001F0EAFB772001F0E7FB002001F0E4FB84
:104D0000442001F0E1FB002001F0DEFB562001F021
:104D1000DBFB002001F0D8FB232001F0D5FB0020B5
:104D200001F0D2FB332001F0CFFB002001F0CCFBDF
:104D3000452001F0C9FB002001F0C6FBE82001F08E
:104D4000CFFB002001F0C0FB002001F0BDFB99204B
:104D500001F0BAFB002001F0B7FB872001F0B4FBA3
:104D6000002001F0B1FB882001F0AEFB002001F033
:104D7000ABFB772001F0A8FB002001F0A5FB66202B
:104D800001F0A2FB002001F09FFB882001F09CFBBA
:104D9000002001F099FBAA2001F096FB002001F011
:104DA00093FBBB2001F090FB002001F08DFB9920CC
:104DB00001F08AFB002001F087FB662001F084FBF4
:104DC000002001F081FB552001F07EFB002001F066
:104DD0007BFB552001F078FB002001F075FB44209F
:104DE00001F072FB002001F06FFB442001F06CFB2E
:104DF000002001F069FB552001F066FB002001F066
:104E000063FBE92001F06CFBAA2001F05DFB0020B0
:104E100001F05AFB002001F057FB002001F054FB89
:104E2000002001F05DFBAA2001F04EFBCF2001F035
:104E300057FB002001F048FB002001F045FB00205B
:104E400001F042FB002001F03FFB002001F03CFBA1
:104E5000002001F039FB002001F036FB002001F0BA
:104E600033FB002001F030FB002001F02DFB00207F
:104E700001F02AFB002001F027FB002001F024FBB9
:104E8000002001F021FB002001F01EFB002001F0BA
:104E90001BFB002001F018FBF02001F021FB00209B
:104EA00001F012FB502001F00FFB002001F00CFB81
:104EB000002001F009FB002001F006FBF32001F0C7
:104EC0000FFB002001F000FBF92001F009FB062098
:104ED00001F0FAFA102001F0F7FA292001F0F4FAB3
:104EE000002001F0F1FA3A2001F0FAFA552001F021
:104EF000EBFA112001F0F4FA642003F02BFE2920D4
:104F000001F0EEFA352001F0EBFA002001F0DCFAB6
:104F1000512001F0E5FAFF2001F0D6FA532001F00C
:104F2000DFFA2C2001F0D0FA552001F0D9FA8220C6
:104F300001F0CAFA2C20FDE3A0427DD14FF470436A
:104F40005521184601F0E2FA4FF20107AA2138462E
:104F500001F0DCFA5221781C01F0D8FA0821B81CC3
:104F600001F0D4FA0121F81C01F0D0FA0D214FF420
:104F7000304001F0CBFA0D214BF2010001F0C6FAEE
:104F80000D214BF2020001F0C1FA34214FF43640FA
:104F900001F0BCFA34214BF2016001F0B7FA342180
:104FA0004BF2026001F0B2FA0D214FF4314001F0F2
:104FB000ADFA0D214BF2011001F0A8FA0D214BF2D0
:104FC000021001F0A3FA34214FF4374001F09EFAA9
:104FD00034214BF2017001F099FA34214BF2027046
:104FE00001F094FA00214FF4324001F08FFA0021D1
:104FF0004BF2012001F08AFA00214BF2022001F06D
:1050000085FA24214FF4384001F080FA24214BF630
:10501000010001F07BFA24214BF6020001F076FA40
:1050200001214FF43F4001F071FA0F214FF433405A
:1050300001F06CFA0F2100E0FEE34BF2013001F0C9
:1050400065FA0F214BF2023001F060FA34214FF47F
:10505000394001F05BFA34214BF6011001F056FAA9
:1050600034214BF6021001F051FA08214FF435407B
:1050700001F04CFA08214BF2015001F047FA0821E7
:105080004BF2025001F042FA03214FF4424001F08A
:105090003DFA24214FF43A4001F038FA24214BF62E
:1050A000012001F033FA24214BF6022001F02EFA00
:1050B00000214FF43C4001F029FA78214BF60140E1
:1050C00001F024FA00214BF6024001F01FFA002102
:1050D0004FF43D4001F01AFA78214BF6015001F0EF
:1050E00015FA00214BF6025001F010FA00214FF49E
:1050F0003E4001F00BFA64214BF6016001F006FA24
:1051000000214FF4514001F001FA33214DF201101A
:1051100001F0FCF900214DF2021001F0F7F9342101
:105120004DF2031001F0F2F900214DF2041001F0EC
:10513000EDF93A214DF2051001F0E8F900214DF2A8
:10514000061001F0E3F94A214DF2071001F0DEF9F3
:1051500000214DF2081001F0D9F95C214DF209103F
:1051600001F0D4F900214DF20A1001F0CFF98121AC
:105170004DF20B1001F0CAF900214DF20C1001F0B4
:10518000C5F9A6214DF20D1001F0C0F900214DF234
:105190000E1001F0BBF9E5214DF20F1001F0B6F948
:1051A00001214DF2101001F0B1F913214DF211104F
:1051B00001F0ACF901214DF2121001F0A7F95421D0
:1051C0004DF2131001F0A2F901214DF2141001F07B
:1051D0009DF982214DF2151001F098F901214DF24F
:1051E000161001F093F9CA214DF2171001F08EF953
:1051F00002214DF2181001F089F900214DF2191029
:1052000001F084F902214DF21A1001F07FF9012119
:105210004DF21B1001F07AF902214DF21C1001F041
:1052200075F934214DF21D1001F070F902214DF293
:105230001E1001F06BF967214DF21F1001F066F9A5
:1052400002214DF2201001F061F984214DF221106C
:1052500001F05CF902214DF2221001F057F9A4216E
:105260004DF2231001F052F902214DF2241001F009
:105270004DF9B7214DF2251001F048F902214DF208
:10528000261001F043F9CF214DF2271001F03EF92D
:1052900002214DF2281001F039F9DE214DF22910DA
:1052A00001F034F902214DF22A1001F02FF9F22118
:1052B0004DF22B1001F02AF902214DF22C1001F0D1
:1052C00025F9FE214DF22D1001F020F903214DF2B8
:1052D0002E1001F01BF910214DF22F1001F016F9DC
:1052E00003214DF2301001F011F933214DF231104C
:1052F00001F00CF903214DF2321001F007F96D2194
:105300004DF2331001F002F900214FF4524001F048
:10531000FDF833214DF2012001F0F8F800214DF2A3
:10532000022001F0F3F834214DF2032001F0EEF8F1
:1053300000214DF2042001F0E9F83A214DF2052058
:1053400001F0E4F800214DF2062001F0DFF84A21D7
:105350004DF2072001F0DAF800214DF2082001F0AB
:10536000D5F85C214DF2092001F0D0F800214DF272
:105370000A2001F0CBF881214DF20B2001F0C6F894
:1053800000214DF20C2001F0C1F8A6214DF20D20B4
:1053900001F0BCF800214DF20E2001F0B7F8E52134
:1053A0004DF20F2001F0B2F801214DF2102001F072
:1053B000ADF813214DF2112001F0A8F801214DF2B2
:1053C000122001F0A3F854214DF2132001F09EF8B1
:1053D00001214DF2142001F099F882214DF215209F
:1053E00001F094F801214DF2162001F08FF8CA2146
:1053F0004DF2172001F08AF802214DF2182001F039
:1054000085F800214DF2192001F080F802214DF2BB
:105410001A2001F07BF801214DF21B2001F076F8F3
:1054200002214DF21C2001F071F834214DF21D20B3
:1054300001F06CF802214DF21E2001F067F867219F
:105440004DF21F2001F062F802214DF2202001F000
:105450005DF884214DF2212001F058F802214DF22F
:10546000222001F053F8A4214DF2232001F04EF840
:1054700002214DF2242001F049F8B7214DF22520F8
:1054800001F044F802214DF2262001F03FF8CF212F
:105490004DF2272001F03AF802214DF2282001F0C8
:1054A00035F8DE214DF2292001F030F802214DF2CD
:1054B0002A2001F02BF8F2214DF22B2001F026F8E2
:1054C00002214DF22C2001F021F8FE214DF22D2079
:1054D00001F01CF803214DF22E2001F017F81021E5
:1054E0004DF22F2001F012F803214DF2302001F08F
:1054F0000DF833214DF2312001F008F803214DF26F
:10550000322001F003F86D214DF2332000F0FEFF50
:1055100000214FF4534000F0F9FF33214DF20130E8
:1055200000F0F4FF00214DF2023000F0EFFF3421D3
:105530004DF2033000F0EAFF00214DF2043000F09C
:10554000E5FF3A214DF2053000F0E0FF00214DF279
:10555000063000F0DBFF4A214DF2073000F0D6FFA5
:1055600000214DF2083000F0D1FF5C214DF20930EE
:1055700000F0CCFF00214DF20A3000F0C7FF81217E
:105580004DF20B3000F0C2FF00214DF20C3000F064
:10559000BDFFA6214DF20D3000F0B8FF00214DF205
:1055A0000E3000F0B3FFE5214DF20F3000F0AEFFFA
:1055B00001214DF2103000F0A9FF13214DF21130FE
:1055C00000F0A4FF01214DF2123000F09FFF5421A2
:1055D0004DF2133000F09AFF01214DF2143000F02B
:1055E00095FF82214DF2153000F090FF01214DF220
:1055F000163000F08BFFCA214DF2173000F086FF05
:1056000002214DF2183000F081FF00214DF21930D7
:1056100000F07CFF02214DF21A3000F077FF0121EB
:105620004DF21B3000F072FF02214DF21C3000F0F1
:105630006DFF34214DF21D3000F068FF02214DF264
:105640001E3000F063FF67214DF21F3000F05EFF57
:1056500002214DF2203000F059FF84214DF221301B
:1056600000F054FF02214DF2223000F04FFFA42140
:105670004DF2233000F04AFF02214DF2243000F0B9
:1056800045FFB7214DF2253000F040FF02214DF2D9
:10569000263000F03BFFCF214DF2273000F036FFDF
:1056A00002214DF2283000F031FFDE214DF2293089
:1056B00000F02CFF02214DF22A3000F027FFF221EA
:1056C0004DF22B3000F022FF02214DF22C3000F081
:1056D0001DFFFE214DF22D3000F018FF03214DF289
:1056E0002E3000F013FF10214DF22F3000F00EFF8E
:1056F00003214DF2303000F009FF33214DF23130FB
:1057000000F004FF03214DF2323000F0FFFE6D2166
:105710004DF2333000F0FAFE00214FF4544000F017
:10572000F5FE33214DF2014000F0F0FE00214DF274
:10573000024000E07CE300F0E9FE34214DF203403A
:1057400000F0E4FE00214DF2044000F0DFFE3A21BB
:105750004DF2054000F0DAFE00214DF2064000F067
:10576000D5FE4A214DF2074000F0D0FE00214DF257
:10577000084000F0CBFE5C214DF2094000F0C6FE6F
:1057800000214DF20A4000F0C1FE81214DF20B4094
:1057900000F0BCFE00214DF20C4000F0B7FEA62147
:1057A0004DF20D4000F0B2FE00214DF20E4000F02F
:1057B000ADFEE5214DF20F4000F0A8FE01214DF2B3
:1057C000104000F0A3FE13214DF2114000F09EFEA8
:1057D00001214DF2124000F099FE54214DF2134088
:1057E00000F094FE01214DF2144000F08FFE822162
:1057F0004DF2154000F08AFE01214DF2164000F0F6
:1058000085FECA214DF2174000F080FE02214DF2C4
:10581000184000F07BFE00214DF2194000F076FEAA
:1058200002214DF21A4000F071FE01214DF21B40A1
:1058300000F06CFE022100E0FDE24DF21C4000F0A1
:1058400065FE34214DF21D4000F060FE02214DF254
:105850001E4000F05BFE67214DF21F4000F056FE37
:1058600002214DF2204000F051FE84214DF22140F2
:1058700000F04CFE02214DF2224000F047FEA42130
:105880004DF2234000F042FE02214DF2244000F090
:105890003DFEB7214DF2254000F038FE02214DF2C9
:1058A000264000F033FECF214DF2274000F02EFEBF
:1058B00002214DF2284000F029FEDE214DF2294060
:1058C00000F024FE02214DF22A4000F01FFEF221DA
:1058D0004DF22B4000F01AFE02214DF22C4000F058
:1058E00015FEFE214DF22D4000F010FE03214DF279
:1058F0002E4000F00BFE10214DF22F4000F006FE6E
:1059000003214DF2304000F001FE33214DF23140D1
:1059100000F0FCFD03214DF2324000F0F7FD6D2157
:105920004DF2334000F0F2FD00214FF4554000F0FD
:10593000EDFD33214DF2015000F0E8FD00214DF264
:10594000025000F0E3FD34214DF2035000F0DEFD83
:1059500000214DF2045000F0D9FD3A214DF20550DE
:1059600000F0D4FD00214DF2065000F0CFFD4A2199
:105970004DF2075000F0CAFD00214DF2085000F032
:10598000C5FD5C214DF2095000F0C0FD00214DF233
:105990000A5000F0BBFD81214DF20B5000F0B6FD26
:1059A00000214DF20C5000F0B1FDA6214DF20D503A
:1059B00000F0ACFD00214DF20E5000F0A7FDE521F6
:1059C0004DF20F5000F0A2FD01214DF2105000F0F9
:1059D0009DFD13214DF2115000F098FD01214DF273
:1059E000125000F093FD54214DF2135000F08EFD43
:1059F00001214DF2145000F089FD82214DF2155025
:105A000000F084FD01214DF2165000F07FFDCA2107
:105A10004DF2175000F07AFD02214DF2185000F0BF
:105A200075FD00214DF2195000F070FD02214DF27C
:105A30001A5000F06BFD01214DF21B5000F066FD85
:105A400002214DF21C5000F061FD34214DF21D5039
:105A500000F05CFD02214DF21E5000F057FD672161
:105A60004DF21F5000F052FD02214DF2205000F087
:105A70004DFD84214DF2215000F048FD02214DF2F0
:105A8000225000F043FDA4214DF2235000F03EFDD2
:105A900002214DF2245000F039FDB7214DF225507E
:105AA00000F034FD02214DF2265000F02FFDCF21F1
:105AB0004DF2275000F02AFD02214DF2285000F04F
:105AC00025FDDE214DF2295000F020FD02214DF28E
:105AD0002A5000F01BFDF2214DF22B5000F016FD74
