:020000040800F2
:100000005804002045010008EB0B0008F50A000821
:10001000E90B0008B10100080D0D00080000000008
:10002000000000000000000000000000EF0B0008CE
:10003000B301000800000000ED0B0008F10B000800
:100040005F0100085F0100085F0100085F01000810
:100050005F0100085F0100085F0100085F01000800
:100060005F0100085F0100085F0100085F010008F0
:100070005F0100085F0100085F0100085F010008E0
:100080005F0100085F0100085F0100085F010008D0
:100090005F0100085F0100085F0100085F010008C0
:1000A0005F0100085F0100085F0100085F010008B0
:1000B0005F0100085F0100085F0100085F010008A0
:1000C0005F0100085F0100085F0100085F01000890
:1000D0005F0100085F0100085F0100085F01000880
:1000E0005F0100085F0100085F0100085F01000870
:1000F0005F0100085F0100085F0100085F01000860
:100100005F0100085F0100085F0100085F0100084F
:100110005F0100085F0100085F0100085F0100083F
:100120005F0100085F0100085F0100085F0100082F
:10013000DFF80CD000F02AF80048004759120008F8
:10014000580400200648804706480047FEE7FEE7BF
:10015000FEE7FEE7FEE7FEE7FEE7FEE7FEE7FEE777
:10016000530C000831010008D2B201E000F8012B65
:10017000491EFBD270470022F6E710B513460A4627
:1001800004461946FFF7F0FF204610BD064C074D08
:1001900006E0E06840F0010394E807009847103457
:1001A000AC42F6D3FFF7C8FF5419000874190008D1
:1001B000FEE7704772B6FEE770B5044600F010F92E
:1001C0000546601C02D004480078044400F008F999
:1001D000401BA042FAD370BD000000202DE9F84F6B
:1001E000DFF8C891002409F1040A0AF1040B234640
:1001F0000F270BF1040ED1E00125A54006EA050208
:10020000AA4276D1DFF8A8C14E68A6EB0C08664575
:100210002BD00DDC032E34D005DC36B3012E19D0E3
:10022000022E2FD11BE0112E16D0122E2AD119E04A
:10023000B8F5881F19D006DCB8F5803F15D0B8F5A1
:10024000801F1FD111E0B8F5001F0ED0B8F5041FB4
:1002500018D10AE0CB6815E0CB681B1D12E0CB6813
:1002600008330FE0CB680C330CE08B682BB1012B0B
:100270004FF0080303D0456104E0042302E0056168
:1002800000E00023FF2A01D8064601E000F1040641
:100290004FEA840501D9A5F12005D6F8008007FAB8
:1002A00005FC28EA0C0803FA05F548EA0508C6F833
:1002B00000804D68ED0070D53E4DAE6946F00106F8
:1002C000AE61AD6924F0030605F0010500953A4DD5
:1002D00006EB050CDCF80850A607360F07FA06F8FF
:1002E00025EA0805DFF8D480404503D14FF0000827
:1002F00025E052E0DFF8C880404502D14FF0010808
:100300001DE0DFF8C080404502D14FF0020816E042
:10031000DFF8B480404502D14FF003080FE0DFF86A
:10032000AC80404502D14FF0040808E0DFF8A0801F
:10033000404502D14FF0050801E04FF0060808FAE9
:1003400006F848EA0508CCF808804D68D9F800603E
:10035000ED034D4601D5164300E096432E604D68EF
:10036000DAF80060AD03554601D5164300E0964328
:100370002E604D68DBF80060ED025D4601D5164346
:1003800000E096432E604D68DEF80060AD027546D1
:1003900001D5164300E096432E60641C0A68164699
:1003A000E2407FF429AFBDE8F88F0000000401406F
:1003B0000000111000100240000001400008014040
:1003C000000C0140001001400014014000180140E1
:1003D000001C01400AB1016170470904FBE70000FD
:1003E00001488068704700000000002002488168D2
:1003F000027811448160704700000020074810B562
:10040000016841F010010160032000F067F800204E
:1004100000F006F800F024F8002010BD0020024093
:1004200070B50D4D04464FF47A712878B1FBF0F0A9
:100430000A490968B1FBF0F000F0DEFA48B9102C67
:1004400007D200222146501E00F028F800206C60E0
:1004500070BD012070BD0000000000200C000020D5
:100460000C4808B5816941F001018161816901F0A1
:1004700001010091C16941F08051C161C06900F082
:10048000805000900448416821F0E06141F0007123
:10049000416008BD0010024000000140F0B40E4B66
:1004A0001B680C46C3F30223C3F10705042D00D9D2
:1004B0000425191D072901D2002300E0DB1E0126B7
:1004C00006FA05F1491E214099409E40761E1640CD
:1004D0003143F0BC00F01BBC0CED00E0064900F01D
:1004E000070208684FF6FF03184040EA0220034A5B
:1004F00010430860704700000CED00E00000FA05B2
:100500002DE9F0470F46050061D0434E306800F0FA
:100510000700B84209D2306820F007003843306045
:10052000306800F00700B84251D128683B4C810781
:1005300012D5400703D5606840F4E0606060287819
:10054000000703D5606840F4605060606068A96887
:1005500020F0F000084360602878C00728D0686861
:10056000012810D02168022810D0890700292EDA2E
:10057000616821F0030101436160FFF731FF8046AC
:1005800041F288390DE021688903EFE78901EDE741
:10059000FFF726FFA0EB0801494502D90320BDE87B
:1005A000F0876068696800F00C00B0EB810FEFD154
:1005B000306800F00700B8420BD9306820F007001F
:1005C00038433060306800F00700B84201D00120A5
:1005D000E5E72878400705D56068E96820F4E06021
:1005E000084360602878000706D56068296920F410
:1005F000605040EAC100606000F038F86168084A65
:10060000C1F30311515CC840064908600648006800
:10061000FFF706FF0020C2E7002002400010024062
:100620003C1900080C000020040000200448054983
:1006300000684968044AC1F30221515CC840704710
:100640000C000020001002404C1900080448054925
:1006500000684968044AC1F3C221515CC840704730
:100660000C000020001002404C19000812A185B0B7
:100670000FC98DE80F0014A0144A00680490516857
:10068000134801F00C03042B10D0082B0ED1C1F33A
:100690008343C9031DF803000AD5516804AAC1F3B6
:1006A0004041515C0A4A5043B0FBF1F005B070473D
:1006B00008494843FAE70000020304050607080951
:1006C0000A0B0C0D0E0F101001020000001002406A
:1006D00000127A0000093D002DE9F84F040070D0A7
:1006E0002078C04DC00749D06868C0F38100012858
:1006F00007D06868C0F38100022809D16868C00388
:1007000006D52868800339D560680028E7D035E031
:100710006068B0F5803F0BD010B1B0F5A02F11D0BC
:10072000286820F480302860286820F4802002E0C7
:10073000286840F480302860606890B1FFF750FE70
:1007400006460AE0286840F480202860F0E700BFF1
:10075000FFF746FE801B642873D828688003F7D50E
:100760000CE0FFF73DFE064605E000BFFFF738FE50
:10077000801B6428F0D828688003F7D420789A4E2C
:1007800080074FF001094FF0000839D5686810F074
:100790000C0F07D06868C0F38100022809D168688F
:1007A000C00306D42868800714D52069012808D121
:1007B00010E02069B0B1C6F80090FFF711FE0746BF
:1007C00005E00AE1FFF70CFEC01B0228C4D8286828
:1007D0008007F7D52868616920F0F80040EAC10079
:1007E00028600DE0C6F80080FFF7FAFD074604E038
:1007F000FFF7F6FDC01B022823D828688007F7D42E
:10080000207800072CD57948A169D9B1C0F80090AB
:10081000FFF7E6FD074604E0FFF7E2FDC01B0228F4
:100820000FD8686A8007F7D571484FF4FA5100680D
:10083000B0FBF1F0009000BF0098411E0091FAD289
:100840000EE080E0C0F80080FFF7CAFD074604E034
:10085000FFF7C6FDC01B022875D8686A8007F7D469
:100860002078400760D5E8690027C00008D4E8690F
:1008700040F08050E861E869012700F08050009066
:100880005C480168C90513D40168834641F480714E
:100890000160FFF7A5FD824606E000BFFFF7A0FD5F
:1008A000A0EB0A0064284ED8DBF80000C005F5D59F
:1008B000E06801280AD008B1052813D0286A20F082
:1008C00001002862286A20F0040002E0286A40F053
:1008D00001002862E06841F2883B98B1FFF780FD93
:1008E00082460BE0286A40F004002862EEE700BF71
:1008F000FFF776FDA0EB0A0159455AD8286A800710
:10090000F6D50CE0FFF76CFD824605E0FFF768FDC9
:10091000A0EB0A0159454CD8286A8007F6D41FB1CC
:10092000E86920F08050E861E06988B36968C1F344
:100930008101022944D00228C6F8608004D0FFF764
:100940004FFD044638E034E0FFF74AFD074604E077
:10095000FFF746FDC01B02282BD828688001F7D47A
:10096000206AB0F5803F05D16868A16820F40030A6
:1009700008436860D4E908010843696821F47411E8
:1009800008436860C6F86090FFF72AFD044606E059
:1009900025E000BFFFF724FD001B022809D82868C6
:1009A0008001F7D51BE000BFFFF71AFD001B0228EE
:1009B00002D90320BDE8F88F28688001F4D40EE046
:1009C0000128F7D06868226A00F48031914204D18E
:1009D000616A00F47010884201D00120EAE700202B
:1009E000E8E700000010024000004242800442425A
:1009F0000C0000200070004010B5401EB0F1807F58
:100A000001D3012010BD4FF0E02460610F21601779
:100A100000F07DF90020A06107202061002010BDBA
:100A200070B5040004D094F83D00002510B106E034
:100A3000012070BD84F83C50204600F023F82420AB
:100A400084F83D002068C16821F40051C16020464F
:100A500000F000F92068016921F4904101612068EB
:100A6000416921F02A0141612068C16841F40051C7
:100A7000C1602564202084F83D0084F83E000020F9
:100A800070BD000030B585B000240094019402943C
:100A9000039400681449884224D11448816941F4C0
:100AA00080418161816901F480410491816941F053
:100AB0000401816180690E4D00F0040004904FF440
:100AC00000700090022001900320039069462846A0
:100AD000FFF784FB2815CDE90004694628460294F7
:100AE000FFF77CFB05B030BD00380140001002402C
:100AF00000080140FEE700002DE9F04385B0002426
:100B000027480094019402940394816941F0040100
:100B10008161816901F004010491816941F0100152
:100B20008161816901F010010491816941F008013E
:100B3000816180691B4F00F0080004900022F021C1
:100B40003846FFF747FCDFF860800022102140465E
:100B5000FFF740FCDFF85490002201214846FFF7E0
:100B600039FCF02001250226CDE90005CDE9024639
:100B700069463846FFF732FB1020CDE90005CDE984
:100B8000024669464046FFF729FB03960095CDE9EA
:100B9000015469464846FFF721FB05B0BDE8F083E4
:100BA000001002400008014000100140000C01400C
:100BB0000C4810B50A4901604FF4E1314160002151
:100BC00081600C22C160C0E904128161C161FFF73C
:100BD00027FF002803D0BDE81040FFF7EBBA10BD97
:100BE0000038014010000020FEE7FEE77047704724
:100BF000FFF7FCBB30B58FB028216846FFF7BBFA82
:100C000014210AA8FFF7B7FA01210804CDE9001062
:100C10000024029402250491CDE907504FF4E0101E
:100C200009906846FFF758FD08B172B6FEE70F203D
:100C3000CDE90A054FF48060CDE90C4002210AA8F5
:100C40000E94FFF75DFC002801D072B6FEE70FB0EE
:100C500030BD704770B5044600680169E26821F450
:100C60004051114301612169A0680843616908434B
:100C70002168CA6841F20C639A430243CA60206843
:100C80004169A26921F44071114341611E49206804
:100C9000884202D1FFF7DAFC01E0FFF7C7FC00EB66
:100CA000C00101EB0012606864218000B2FBF0F328
:100CB000B3FBF1F36FF018067343B2FBF0F5B2FB30
:100CC000F0F605EB8305322303EB0515B5FBF1F5D3
:100CD000B6FBF1F605F0F00505EB0615B2FBF0F6F4
:100CE000B2FBF0F0B0FBF1F06FF01802504306EBEE
:100CF000800003EB0010B0FBF1F0216800F00F0062
:100D00002844886070BD000000380140FEE70907F4
:100D1000090E002804DB00F1E02080F80014704781
:100D200000F00F0000F1E02080F8141D704702E091
:100D300008C8121F08C1002AFAD170477047002066
:100D400001E001C1121F002AFBD1704770B50646B1
:100D500000218623EF22084600F028F90024002510
:100D6000304600F03FFA6D1CADB2872DF8D3641CFD
:100D7000A4B2F02CF3D370BD2DE9FF5F91464FEA8A
:100D8000D20801EB0902521E93B20E9C421E04FBD4
:100D9000092292B200F00AF9002024E003984FF6ED
:100DA000FF7B0AFB08050E9E18E0002710E00824D0
:100DB0002878611EC84010F0010F01D00F9800E0A4
:100DC000584600F00FFA641E002CF1DC6D1C7F1CED
:100DD0004745ECDBA5EB080208FB0925761EF6B2B9
:100DE000E3D20AF1010082464845D7DBBDE8FF9F08
:100DF00010B5012210216B48FFF7ECFA6A4C012272
:100E000080212046FFF7E6FA002210212046FFF756
:100E1000E1FAC820FFF7D0F9012210212046FFF7A0
:100E2000D9FA6420FFF7C8F9362000F0A3F9A02012
:100E300000F068F93A2000F09DF9052000F062F911
:100E4000B22000F097F90C2000F05CF90C2000F0C3
:100E500059F9002000F056F9332000F053F93320FF
:100E600000F050F9B72000F085F9352000F04AF97C
:100E7000BB2000F07FF9372000F044F9C02000F0DB
:100E800079F92C2000F03EF9C22000F073F901201E
:100E900000F038F9C32000F06DF9122000F032F9AB
:100EA000C42000F067F9202000F02CF9C62000F0E3
:100EB00061F90F2000F026F9D02000F05BF9A420A2
:100EC00000F020F9A12000F01DF9E02000F052F917
:100ED000D02000F017F9042000F014F90D2000F0E4
:100EE00011F9112000F00EF9132000F00BF92B205E
:100EF00000F008F93F2000F005F9542000F002F955
:100F00004C2000F0FFF8182000F0FCF80D2000F055
:100F1000F9F80B2000F0F6F81F2000F0F3F823207A
:100F200000F0F0F8E12000F025F9D02000F0EAF818
:100F3000042000F0E7F80C2000F0E4F8112000F0A5
:100F4000E1F8132000F0DEF82C2000F0DBF83F2061
:100F500000F0D8F8442000F0D5F8512000F0D2F885
:100F60002F2000F0CFF81F2000F0CCF81F2000F059
:100F7000C9F8202000F0C6F8232000F0C3F8212093
:100F800000F0F8F8112000F0F5F87820FFF714F9D8
:100F9000292000F0EFF8BDE810404FF6FF70FFF792
:100FA000D5BE000000100140000801402DE9F041CD
:100FB00007461C4615460E462A2000F0DBF8283767
:100FC000B8B200F00FF92835A8B200F00BF92B20C9
:100FD00000F0D0F83436B0B200F004F93434A0B2E6
:100FE00000F000F9BDE8F0412C2000F0C3B800008B
:100FF0002DE9F74F1648009F0024894600EB0218A0
:1010000017F1070709EB040083B281B2BAB2009866
:10101000FFF7CCFF08EB0400A0F58050002590F806
:10102000006E4FF4784A4FF6FF7BF00701D0504630
:1010300000E0584600F0D6F86D1C7608EDB2082D99
:10104000F3D3641CE4B2102CDCD3BDE8FE8F0000A7
:10105000CC1200082DE9F04107464FF6FF70164606
:10106000002400EA011507E007EBC400294680B21E
:10107000FFF7BEFF641CA4B2325D002AF4D1BDE8C4
:10108000F0812DE9FC41054642F21070B2FBF0F010
:101090008DF800004FF47A70B2FBF0F00A23B0FB39
:1010A000F3F403FB14008DF801006420B2FBF0F0B0
:1010B000B0FBF3F403FB14008DF80200B2FBF3F075
:1010C000B0FBF3F403FB14008DF80300B2FBF3F064
:1010D00003FB10208DF804004FF6FF7000246F46CC
:1010E00000EA0116385D31463030C2B205EBC4006B
:1010F00080B2FFF77DFF641CE4B2052CF2D3BDE89B
:10110000FC81000070B5194E05460824002280219C
:101110003046FFF75FF9012211461548FFF75AF9EB
:10112000002220213046FFF755F914E0280601D5AA
:10113000012200E0002240213046FFF74BF9012256
:1011400020213046FFF746F9002220213046FFF7E4
:1011500041F96806050E641EE4B2E7D23046BDE8E8
:10116000704001228021FFF735B9000000080140DE
:10117000000C014070B5194E05460824002280215C
:101180003046FFF727F9002201211548FFF722F921
:10119000002220213046FFF71DF914E0280601D572
:1011A000012200E0002240213046FFF713F901221E
:1011B00020213046FFF70EF9002220213046FFF7AC
:1011C00009F96806050E641EE4B2E7D23046BDE8B0
:1011D000704001228021FFF7FDB8000000080140A7
:1011E000000C01402DE9F041194E05461024002263
:1011F00080213046FFF7EEF8012211461548FFF72F
:10120000E9F8002220213046FFF7E4F84FF6FF7797
:1012100014E0280401D5012200E0002240213046DC
:10122000FFF7D8F8012220213046FFF7D3F800223B
:1012300020213046FFF7CEF807EA4505641EE4B2E8
:10124000E7D23046BDE8F04101228021FFF7C2B865
:1012500000080140000C01401CB5FFF7CFF8FFF774
:10126000C9FCFFF749FCFFF7A3FCFFF7C1FD4FF6F0
:10127000FF7640F29A274FF4784404254FF47A78A9
:101280003046FFF763FD00210AA20846FFF7E2FEA1
:101290003A4601210020FFF7F4FECDE900540A4B45
:1012A000102220210020FFF767FD4046FEF784FF53
:1012B000E6E700007365656B667265652E74616FA5
:1012C00062616F2E636F6D00BC18000800000000A3
:1012D0000000000000000000000000000000000806
:1012E000080808080808000008080000004824242E
:1012F0001200000000000000000000000000004894
:1013000048487E2424247E24242400000000103C2D
:101310005252121C30505052523C10100000002209
:101320002515150D2A585454522200000000000CB7
:101330001212120A76252919916E00000006040483
:10134000020000000000000000000000004020102B
:1013500010080808080808101020400000020408BF
:1013600008101010101010080804020000000000FF
:1013700008086B1C1C6B080800000000000000003F
:1013800000101010FE1010100000000000000000FF
:10139000000000000000000006040402000000003D
:1013A000000000007E0000000000000000000000BF
:1013B00000000000000000000606000000004020C1
:1013C0002020101008080804040202000000001881
:1013D00024424242424242422418000000000010CF
:1013E0001C10101010101010107C00000000003CA9
:1013F0004242424020100804427E00000000003CAF
:101400004242402018204042423C000000000020A0
:10141000303028242422FE2020F800000000007E26
:101420000202021E22404042221C0000000000185E
:101430002402023A46424242443800000000007E44
:101440004220201010080808080800000000003C96
:101450004242422418244242423C00000000001C48
:1014600022424242625C404024180000000000001A
:10147000000018180000000018180000000000000C
:1014800000000008000000000008080800000040FC
:101490002010080402040810204000000000000092
:1014A00000007E00007E000000000000000000023E
:1014B0000408102040201008040200000000003C36
:1014C0004242462010101000181800000000001CB6
:1014D000225A55555555553A423C00000000000827
:1014E00008181414243C224242E700000000001FA8
:1014F0002222221E22424242221F00000000007CC3
:101500004242010101010142221C00000000001FB3
:101510002242424242424242221F00000000003F5B
:101520004212121E12120242423F00000000003F0F
:101530004212121E12120202020700000000003CBA
:101540002222010101712122221C0000000000E77B
:10155000424242427E42424242E700000000003ED8
:101560000808080808080808083E00000000007C79
:1015700010101010101010101010110F0000007734
:1015800022120A0E0A12122222770000000000071F
:101590000202020202020202427F00000000007703
:1015A00036363636362A2A2A2A6B0000000000E337
:1015B00046464A4A52525262624700000000001CEE
:1015C0002241414141414141221C00000000003FB5
:1015D000424242423E020202020700000000001C9A
:1015E000224141414141414D321C60000000003F19
:1015F0004242423E1212222242C700000000007CFA
:101600004242020418204042423E00000000007F97
:101610004908080808080808081C0000000000E73E
:101620004242424242424242423C0000000000E745
:101630004242222424141418080800000000006B01
:101640002A2A2A2A2A36141414140000000000E75B
:10165000422424181818242442E7000000000077D0
:101660002222141408080808081C00000000007E4C
:101670002120101008040442423F000000780808AE
:10168000080808080808080808087800000002048C
:10169000040408080810102020204040001E1010EC
:1016A000101010101010101010101E000018240040
:1016B000000000000000000000000000000000002A
:1016C000000000007E00000000000000000608008E
:1016D000000000000000000000000000000000000A
:1016E0000000001C22302C22326C000000000000A0
:1016F0000302021A26424242261A0000000000009D
:1017000000000038440202024438000000000000DB
:101710006040407C4242424262DC00000000000027
:101720000000003C42427E02423C000000000000FB
:101730003048083E08080808083E00000000000085
:101740000000007C22221C023C42423C00000000BF
:101750000302023A4642424242E700000000000C07
:101760000C00000E08080808083E000000000030C9
:1017700030000038202020202020221E0000000001
:1017800003020272120A0E12227700000000000803
:101790000E08080808080808083E000000000000BD
:1017A0000000007F9292929292B700000000000029
:1017B0000000003B4642424242E7000000000000B9
:1017C0000000003C42424242423C00000000000057
:1017D0000000001B26424242261A020700000000B9
:1017E0000000005864424242645840E0000000009B
:1017F000000000774C040404041F000000000000F7
:101800000000007C42023C40423E0000000000001C
:101810000008083E080808084830000000000000E2
:10182000000000634242424262DC0000000000000F
:1018300000000077222214140808000000000000B5
:10184000000000DB91525A2A24240000000000000E
:101850000000006E24181818247600000000000014
:10186000000000E7422424181808080600000000C1
:101870000000007E22100808447E000000C02020E6
:1018800020202020102020202020C0001010101028
:10189000101010101010101010101010000304047D
:1018A000040404040804040404040300045A20008B
:1018B000000000000000000000000000000023FC09
:1018C0001040108001440668F0B01128166810A47A
:1018D0001124162010A0284047FE00000000FFC081
:1018E00000400044004800500060005000480044A0
:1018F000002000200012000A0006000208101D103F
:10190000F09010901010FD10109038903410501E70
:1019100053F0901010101010101010101020102004
:10192000102013FEFC201020102015FC1884308895
:10193000D04810501020105051882606000000009A
:10194000000000000102030406070809000000006F
:1019500001020304741900080000002010000000B8
:101960002E0D000884190008100000204804000013
:101970003E0D000801000000100000000000000003
:041980000024F4004B
:0400000508000131BD
:00000001FF
